{
  "_format": "hh-sol-artifact-1",
  "contractName": "DSCEngine",
  "sourceName": "contracts/DSCEngine.sol",
  "abi": [
    {
      "inputs": [
        {
          "internalType": "address",
          "name": "priceOracleAddress",
          "type": "address"
        },
        {
          "internalType": "address",
          "name": "InterestRateModelAddress",
          "type": "address"
        }
      ],
      "stateMutability": "nonpayable",
      "type": "constructor"
    },
    {
      "inputs": [],
      "name": "DSCEngine__LiquidationFailed",
      "type": "error"
    },
    {
      "inputs": [],
      "name": "DSCEngine__LoanRepaymentFailed",
      "type": "error"
    },
    {
      "inputs": [],
      "name": "DSCEngine__Mintfailed",
      "type": "error"
    },
    {
      "inputs": [],
      "name": "DSCEngine__NeedsMoreThanZero",
      "type": "error"
    },
    {
      "inputs": [],
      "name": "DSCEngine__NotAllowedCollateral",
      "type": "error"
    },
    {
      "inputs": [],
      "name": "DSCEngine__NotAllowedToken",
      "type": "error"
    },
    {
      "inputs": [],
      "name": "DSCEngine__StablecoinBorrowFailed",
      "type": "error"
    },
    {
      "inputs": [],
      "name": "DSCEngine__TokenBurnFailed",
      "type": "error"
    },
    {
      "inputs": [],
      "name": "DSCEngine__TokenToMintExceedsDepositedStablecoin",
      "type": "error"
    },
    {
      "inputs": [],
      "name": "DSCEngine__TransferFailed",
      "type": "error"
    },
    {
      "inputs": [],
      "name": "DSCEngine__WithdrawCollateralFailed",
      "type": "error"
    },
    {
      "inputs": [
        {
          "internalType": "address",
          "name": "owner",
          "type": "address"
        }
      ],
      "name": "OwnableInvalidOwner",
      "type": "error"
    },
    {
      "inputs": [
        {
          "internalType": "address",
          "name": "account",
          "type": "address"
        }
      ],
      "name": "OwnableUnauthorizedAccount",
      "type": "error"
    },
    {
      "inputs": [],
      "name": "ReentrancyGuardReentrantCall",
      "type": "error"
    },
    {
      "inputs": [
        {
          "internalType": "address",
          "name": "token",
          "type": "address"
        }
      ],
      "name": "SafeERC20FailedOperation",
      "type": "error"
    },
    {
      "anonymous": false,
      "inputs": [
        {
          "indexed": true,
          "internalType": "address",
          "name": "from",
          "type": "address"
        },
        {
          "indexed": true,
          "internalType": "uint256",
          "name": "amount",
          "type": "uint256"
        }
      ],
      "name": "CollateralDeposited",
      "type": "event"
    },
    {
      "anonymous": false,
      "inputs": [
        {
          "indexed": true,
          "internalType": "address",
          "name": "user",
          "type": "address"
        },
        {
          "indexed": false,
          "internalType": "uint256",
          "name": "collateralAmount",
          "type": "uint256"
        },
        {
          "indexed": false,
          "internalType": "uint256",
          "name": "borrowedAmount",
          "type": "uint256"
        }
      ],
      "name": "CollateralDepositedAndBorrowed",
      "type": "event"
    },
    {
      "anonymous": false,
      "inputs": [
        {
          "indexed": true,
          "internalType": "address",
          "name": "from",
          "type": "address"
        },
        {
          "indexed": true,
          "internalType": "uint256",
          "name": "amount",
          "type": "uint256"
        }
      ],
      "name": "CollateralWithdrawn",
      "type": "event"
    },
    {
      "anonymous": false,
      "inputs": [
        {
          "indexed": true,
          "internalType": "address",
          "name": "liquidator",
          "type": "address"
        },
        {
          "indexed": true,
          "internalType": "address",
          "name": "borrower",
          "type": "address"
        },
        {
          "indexed": false,
          "internalType": "uint256",
          "name": "debtAmount",
          "type": "uint256"
        },
        {
          "indexed": false,
          "internalType": "uint256",
          "name": "collateralSeized",
          "type": "uint256"
        }
      ],
      "name": "Liquidation",
      "type": "event"
    },
    {
      "anonymous": false,
      "inputs": [
        {
          "indexed": true,
          "internalType": "address",
          "name": "from",
          "type": "address"
        },
        {
          "indexed": true,
          "internalType": "uint256",
          "name": "amount",
          "type": "uint256"
        }
      ],
      "name": "LoanRepaid",
      "type": "event"
    },
    {
      "anonymous": false,
      "inputs": [
        {
          "indexed": true,
          "internalType": "address",
          "name": "previousOwner",
          "type": "address"
        },
        {
          "indexed": true,
          "internalType": "address",
          "name": "newOwner",
          "type": "address"
        }
      ],
      "name": "OwnershipTransferred",
      "type": "event"
    },
    {
      "anonymous": false,
      "inputs": [
        {
          "indexed": true,
          "internalType": "address",
          "name": "from",
          "type": "address"
        },
        {
          "indexed": false,
          "internalType": "uint256",
          "name": "amount",
          "type": "uint256"
        }
      ],
      "name": "StableCoinDeposited",
      "type": "event"
    },
    {
      "anonymous": false,
      "inputs": [
        {
          "indexed": true,
          "internalType": "address",
          "name": "from",
          "type": "address"
        },
        {
          "indexed": true,
          "internalType": "uint256",
          "name": "amount",
          "type": "uint256"
        }
      ],
      "name": "StableCoinWithdrawed",
      "type": "event"
    },
    {
      "anonymous": false,
      "inputs": [
        {
          "indexed": true,
          "internalType": "address",
          "name": "from",
          "type": "address"
        },
        {
          "indexed": true,
          "internalType": "uint256",
          "name": "amount",
          "type": "uint256"
        }
      ],
      "name": "StablecoinBorrowed",
      "type": "event"
    },
    {
      "anonymous": false,
      "inputs": [
        {
          "indexed": true,
          "internalType": "address",
          "name": "to",
          "type": "address"
        },
        {
          "indexed": true,
          "internalType": "uint256",
          "name": "amount",
          "type": "uint256"
        }
      ],
      "name": "tokenMinted",
      "type": "event"
    },
    {
      "inputs": [],
      "name": "USDC_ADDRESS",
      "outputs": [
        {
          "internalType": "address",
          "name": "",
          "type": "address"
        }
      ],
      "stateMutability": "view",
      "type": "function"
    },
    {
      "inputs": [
        {
          "internalType": "uint256",
          "name": "stablecoinAmount",
          "type": "uint256"
        }
      ],
      "name": "borrowStablecoin",
      "outputs": [],
      "stateMutability": "nonpayable",
      "type": "function"
    },
    {
      "inputs": [
        {
          "internalType": "address",
          "name": "user",
          "type": "address"
        }
      ],
      "name": "canUserBeLiquidated",
      "outputs": [
        {
          "internalType": "bool",
          "name": "",
          "type": "bool"
        }
      ],
      "stateMutability": "view",
      "type": "function"
    },
    {
      "inputs": [],
      "name": "depositCollateral",
      "outputs": [],
      "stateMutability": "payable",
      "type": "function"
    },
    {
      "inputs": [],
      "name": "depositCollateralAndBorrowStablecoin",
      "outputs": [],
      "stateMutability": "payable",
      "type": "function"
    },
    {
      "inputs": [
        {
          "internalType": "uint256",
          "name": "amountStableCoin",
          "type": "uint256"
        }
      ],
      "name": "depositStablecoin",
      "outputs": [],
      "stateMutability": "nonpayable",
      "type": "function"
    },
    {
      "inputs": [
        {
          "internalType": "address",
          "name": "user",
          "type": "address"
        }
      ],
      "name": "getAccuredInterest",
      "outputs": [
        {
          "internalType": "uint256",
          "name": "",
          "type": "uint256"
        }
      ],
      "stateMutability": "view",
      "type": "function"
    },
    {
      "inputs": [
        {
          "internalType": "address",
          "name": "user",
          "type": "address"
        }
      ],
      "name": "getCollateralDepositBalance",
      "outputs": [
        {
          "internalType": "uint256",
          "name": "",
          "type": "uint256"
        }
      ],
      "stateMutability": "view",
      "type": "function"
    },
    {
      "inputs": [],
      "name": "getCollateralThreshold",
      "outputs": [
        {
          "internalType": "uint256",
          "name": "",
          "type": "uint256"
        }
      ],
      "stateMutability": "pure",
      "type": "function"
    },
    {
      "inputs": [
        {
          "internalType": "address",
          "name": "user",
          "type": "address"
        }
      ],
      "name": "getDebtBalance",
      "outputs": [
        {
          "internalType": "uint256",
          "name": "",
          "type": "uint256"
        }
      ],
      "stateMutability": "view",
      "type": "function"
    },
    {
      "inputs": [],
      "name": "getETHPrice",
      "outputs": [
        {
          "internalType": "uint256",
          "name": "",
          "type": "uint256"
        }
      ],
      "stateMutability": "view",
      "type": "function"
    },
    {
      "inputs": [
        {
          "internalType": "address",
          "name": "user",
          "type": "address"
        }
      ],
      "name": "getHealthFactor",
      "outputs": [
        {
          "internalType": "uint256",
          "name": "",
          "type": "uint256"
        }
      ],
      "stateMutability": "view",
      "type": "function"
    },
    {
      "inputs": [],
      "name": "getInterest",
      "outputs": [
        {
          "internalType": "uint256",
          "name": "",
          "type": "uint256"
        }
      ],
      "stateMutability": "pure",
      "type": "function"
    },
    {
      "inputs": [],
      "name": "getMaxBorrowableAmount",
      "outputs": [
        {
          "internalType": "uint256",
          "name": "",
          "type": "uint256"
        }
      ],
      "stateMutability": "view",
      "type": "function"
    },
    {
      "inputs": [],
      "name": "getMaxWithdrawableCollateral",
      "outputs": [
        {
          "internalType": "uint256",
          "name": "",
          "type": "uint256"
        }
      ],
      "stateMutability": "view",
      "type": "function"
    },
    {
      "inputs": [
        {
          "internalType": "address",
          "name": "user",
          "type": "address"
        }
      ],
      "name": "getMintedLendingToken",
      "outputs": [
        {
          "internalType": "uint256",
          "name": "",
          "type": "uint256"
        }
      ],
      "stateMutability": "view",
      "type": "function"
    },
    {
      "inputs": [
        {
          "internalType": "address",
          "name": "user",
          "type": "address"
        }
      ],
      "name": "getStableCoinBalance",
      "outputs": [
        {
          "internalType": "uint256",
          "name": "",
          "type": "uint256"
        }
      ],
      "stateMutability": "view",
      "type": "function"
    },
    {
      "inputs": [
        {
          "internalType": "address",
          "name": "tokenAddress",
          "type": "address"
        }
      ],
      "name": "getTokenPriceInUsd",
      "outputs": [
        {
          "internalType": "uint256",
          "name": "",
          "type": "uint256"
        }
      ],
      "stateMutability": "view",
      "type": "function"
    },
    {
      "inputs": [],
      "name": "getTotalStablecoinInPool",
      "outputs": [
        {
          "internalType": "uint256",
          "name": "",
          "type": "uint256"
        }
      ],
      "stateMutability": "view",
      "type": "function"
    },
    {
      "inputs": [],
      "name": "getTotalStablecoinSupply",
      "outputs": [
        {
          "internalType": "uint256",
          "name": "",
          "type": "uint256"
        }
      ],
      "stateMutability": "view",
      "type": "function"
    },
    {
      "inputs": [],
      "name": "getUSDCPrice",
      "outputs": [
        {
          "internalType": "uint256",
          "name": "",
          "type": "uint256"
        }
      ],
      "stateMutability": "view",
      "type": "function"
    },
    {
      "inputs": [
        {
          "internalType": "address",
          "name": "user",
          "type": "address"
        }
      ],
      "name": "getUserCollateralValueInUsd",
      "outputs": [
        {
          "internalType": "uint256",
          "name": "",
          "type": "uint256"
        }
      ],
      "stateMutability": "view",
      "type": "function"
    },
    {
      "inputs": [
        {
          "internalType": "address",
          "name": "user",
          "type": "address"
        }
      ],
      "name": "getUserTotalDebtInUsd",
      "outputs": [
        {
          "internalType": "uint256",
          "name": "",
          "type": "uint256"
        }
      ],
      "stateMutability": "view",
      "type": "function"
    },
    {
      "inputs": [],
      "name": "getYourAccruedDebtInterest",
      "outputs": [
        {
          "internalType": "uint256",
          "name": "",
          "type": "uint256"
        }
      ],
      "stateMutability": "view",
      "type": "function"
    },
    {
      "inputs": [],
      "name": "getYourBorrowedStablecoin",
      "outputs": [
        {
          "internalType": "uint256",
          "name": "",
          "type": "uint256"
        }
      ],
      "stateMutability": "view",
      "type": "function"
    },
    {
      "inputs": [],
      "name": "getYourCollateralDeposited",
      "outputs": [
        {
          "internalType": "uint256",
          "name": "",
          "type": "uint256"
        }
      ],
      "stateMutability": "view",
      "type": "function"
    },
    {
      "inputs": [],
      "name": "getYourCollateralValueInUSD",
      "outputs": [
        {
          "internalType": "uint256",
          "name": "",
          "type": "uint256"
        }
      ],
      "stateMutability": "view",
      "type": "function"
    },
    {
      "inputs": [],
      "name": "getYourDebtValueInUSD",
      "outputs": [
        {
          "internalType": "uint256",
          "name": "",
          "type": "uint256"
        }
      ],
      "stateMutability": "view",
      "type": "function"
    },
    {
      "inputs": [],
      "name": "getYourEarnedLendingInterest",
      "outputs": [
        {
          "internalType": "uint256",
          "name": "",
          "type": "uint256"
        }
      ],
      "stateMutability": "view",
      "type": "function"
    },
    {
      "inputs": [],
      "name": "getYourHealthFactor",
      "outputs": [
        {
          "internalType": "uint256",
          "name": "",
          "type": "uint256"
        }
      ],
      "stateMutability": "view",
      "type": "function"
    },
    {
      "inputs": [],
      "name": "getYourLendedStablecoin",
      "outputs": [
        {
          "internalType": "uint256",
          "name": "",
          "type": "uint256"
        }
      ],
      "stateMutability": "view",
      "type": "function"
    },
    {
      "inputs": [
        {
          "internalType": "address",
          "name": "stablecoin",
          "type": "address"
        }
      ],
      "name": "isStablecoinValid",
      "outputs": [
        {
          "internalType": "bool",
          "name": "",
          "type": "bool"
        }
      ],
      "stateMutability": "pure",
      "type": "function"
    },
    {
      "inputs": [],
      "name": "owner",
      "outputs": [
        {
          "internalType": "address",
          "name": "",
          "type": "address"
        }
      ],
      "stateMutability": "view",
      "type": "function"
    },
    {
      "inputs": [],
      "name": "renounceOwnership",
      "outputs": [],
      "stateMutability": "nonpayable",
      "type": "function"
    },
    {
      "inputs": [],
      "name": "s_totalStablecoin",
      "outputs": [
        {
          "internalType": "uint256",
          "name": "",
          "type": "uint256"
        }
      ],
      "stateMutability": "view",
      "type": "function"
    },
    {
      "inputs": [
        {
          "internalType": "address",
          "name": "user",
          "type": "address"
        }
      ],
      "name": "totalTimePassed",
      "outputs": [
        {
          "internalType": "uint256",
          "name": "",
          "type": "uint256"
        }
      ],
      "stateMutability": "view",
      "type": "function"
    },
    {
      "inputs": [
        {
          "internalType": "address",
          "name": "newOwner",
          "type": "address"
        }
      ],
      "name": "transferOwnership",
      "outputs": [],
      "stateMutability": "nonpayable",
      "type": "function"
    },
    {
      "inputs": [
        {
          "internalType": "uint256",
          "name": "withdrawAmount",
          "type": "uint256"
        }
      ],
      "name": "withdrawCollateral",
      "outputs": [],
      "stateMutability": "nonpayable",
      "type": "function"
    },
    {
      "inputs": [
        {
          "internalType": "uint256",
          "name": "amountStableCoin",
          "type": "uint256"
        }
      ],
      "name": "withdrawStablecoin",
      "outputs": [],
      "stateMutability": "nonpayable",
      "type": "function"
    }
  ],
  "bytecode": "0x60c06040523480156200001157600080fd5b5060405162001c1c38038062001c1c8339810160408190526200003491620000f3565b600160005533806200006057604051631e4fbdf760e01b81526000600482015260240160405180910390fd5b6200006b8162000084565b506001600160a01b0391821660a052166080526200012b565b600180546001600160a01b038381166001600160a01b0319831681179093556040519116919082907f8be0079c531659141344cd1fd0a4f28419497f9722a3daafe3b4186f6b6457e090600090a35050565b80516001600160a01b0381168114620000ee57600080fd5b919050565b600080604083850312156200010757600080fd5b6200011283620000d6565b91506200012260208401620000d6565b90509250929050565b60805160a051611a8562000197600039600081816107ea0152818161092901528181610d2401528181610f9e015281816111a401528181611531015281816116260152818161172c01526117b70152600081816106e701528181610e70015261122d0152611a856000f3fe6080604052600436106102305760003560e01c8063801a2d991161012e578063c5839dd1116100ab578063ef26475c1161006f578063ef26475c146105ec578063f2fde38b14610639578063f559056214610659578063f96d947d14610679578063fe6bcd7c146106af57600080fd5b8063c5839dd114610557578063dadb7e791461056c578063dbafccca1461058c578063dd2856d1146105a2578063e5a4bed3146105d857600080fd5b80639d5ec1c5116100f25780639d5ec1c5146104dd578063a607a8d9146104e5578063ae48c702146104fa578063b89a495b1461050f578063bb09d9b71461052f57600080fd5b8063801a2d991461043657806380a9012b14610456578063870e974e146104765780638da5cb5b1461049657806391b3a439146104c857600080fd5b8063536f7026116101bc5780636e16814f116101805780636e16814f146103015780636f758140146103c3578063715018a6146103cb57806371ebcf53146103e05780637d52b6821461041657600080fd5b8063536f70261461023557806358d398ef1461033f57806359f99c53146103615780636112fe2e1461038357806363ad31aa146103a357600080fd5b806333c6c4521161020357806333c6c452146102b65780633fb1bf3e146102cb5780634469214b146103015780634ad517bc146103165780634fa2b53c1461032b57600080fd5b806303bd360614610235578063042dcee31461025d57806322f676b21461027f5780632e1a2ce0146102a1575b600080fd5b34801561024157600080fd5b5061024a6106cf565b6040519081526020015b60405180910390f35b34801561026957600080fd5b503360009081526004602052604090205461024a565b34801561028b57600080fd5b503360009081526002602052604090205461024a565b3480156102ad57600080fd5b5061024a610760565b3480156102c257600080fd5b5061024a610896565b3480156102d757600080fd5b5061024a6102e636600461194a565b6001600160a01b031660009081526004602052604090205490565b34801561030d57600080fd5b5060085461024a565b34801561032257600080fd5b5061024a6108fd565b34801561033757600080fd5b50609661024a565b34801561034b57600080fd5b503360009081526003602052604090205461024a565b34801561036d57600080fd5b5061038161037c366004611973565b610960565b005b34801561038f57600080fd5b5061038161039e366004611973565b610a20565b3480156103af57600080fd5b5061024a6103be36600461194a565b610c0d565b610381610c9b565b3480156103d757600080fd5b50610381610cee565b3480156103ec57600080fd5b5061024a6103fb36600461194a565b6001600160a01b031660009081526003602052604090205490565b34801561042257600080fd5b5061024a61043136600461194a565b610d02565b34801561044257600080fd5b5061024a61045136600461194a565b610d92565b34801561046257600080fd5b5061024a61047136600461194a565b610d9d565b34801561048257600080fd5b50610381610491366004611973565b610da8565b3480156104a257600080fd5b506001546001600160a01b03165b6040516001600160a01b039091168152602001610254565b3480156104d457600080fd5b5061024a610f28565b610381611079565b3480156104f157600080fd5b5061024a6111a0565b34801561050657600080fd5b5061024a611200565b34801561051b57600080fd5b5061024a61052a36600461194a565b61120b565b34801561053b57600080fd5b506104b07376efc6b7adac502dc210f255ea8420672c1355d381565b34801561056357600080fd5b5061024a61125e565b34801561057857600080fd5b50610381610587366004611973565b611269565b34801561059857600080fd5b5061024a60085481565b3480156105ae57600080fd5b5061024a6105bd36600461194a565b6001600160a01b031660009081526006602052604090205490565b3480156105e457600080fd5b50600561024a565b3480156105f857600080fd5b5061062961060736600461194a565b6001600160a01b03167376efc6b7adac502dc210f255ea8420672c1355d31490565b6040519015158152602001610254565b34801561064557600080fd5b5061038161065436600461194a565b6113dd565b34801561066557600080fd5b5061062961067436600461194a565b61141b565b34801561068557600080fd5b5061024a61069436600461194a565b6001600160a01b031660009081526002602052604090205490565b3480156106bb57600080fd5b5061024a6106ca36600461194a565b611499565b60405163b89a495b60e01b81523360048201526000907f00000000000000000000000000000000000000000000000000000000000000006001600160a01b03169063b89a495b906024015b602060405180830381865afa158015610737573d6000803e3d6000fd5b505050506040513d601f19601f8201168201806040525081019061075b919061198c565b905090565b60008061076c33611502565b90506000609661077d8360646119bb565b61078791906119d2565b90506000610794336115db565b90508181106107a7576000935050505090565b60006107b382846119f4565b6040516302c68be360e31b81527376efc6b7adac502dc210f255ea8420672c1355d360048201529091506000906001600160a01b037f000000000000000000000000000000000000000000000000000000000000000016906316345f1890602401602060405180830381865afa158015610831573d6000803e3d6000fd5b505050506040513d601f19601f82011682018060405250810190610855919061198c565b905060008161086c84670de0b6b3a76400006119bb565b61087691906119d2565b90506008548111610887578061088b565b6008545b965050505050505090565b6000806108a233611502565b905060006108af336115db565b9050806000036108c3576000199250505090565b6108ce8160646119bb565b60966108e2670de0b6b3a7640000856119bb565b6108ec91906119bb565b6108f691906119d2565b9250505090565b6040516302c68be360e31b81527376efc6b7adac502dc210f255ea8420672c1355d360048201526000907f00000000000000000000000000000000000000000000000000000000000000006001600160a01b0316906316345f189060240161071a565b600081116109895760405162461bcd60e51b815260040161098090611a07565b60405180910390fd5b7376efc6b7adac502dc210f255ea8420672c1355d36109aa8133308561166f565b33600090815260026020526040812080548492906109c9908490611a3c565b9250508190555081600860008282546109e29190611a3c565b909155505060405182815233907f66cef183dbc45fd6ab6c6cfd4ada8f7b1780d070873ce30723107d9f644ec6609060200160405180910390a25050565b60008111610a825760405162461bcd60e51b815260206004820152602960248201527f576974686472617720616d6f756e74206d7573742062652067726561746572206044820152687468616e207a65726f60b81b6064820152608401610980565b3360009081526003602052604090205481811015610ae25760405162461bcd60e51b815260206004820152601f60248201527f496e73756666696369656e7420636f6c6c61746572616c2062616c616e6365006044820152606401610980565b6000610aee83836119f4565b90506000610afb336116dc565b90506000610b088361179e565b9050610b1481836117ee565b610b605760405162461bcd60e51b815260206004820152601d60248201527f436f6c6c61746572616c207468726573686f6c642062726561636865640000006044820152606401610980565b336000818152600360205260408082208690555190919087908381818185875af1925050503d8060008114610bb1576040519150601f19603f3d011682016040523d82523d6000602084013e610bb6565b606091505b5050905080610bd857604051634dc34d1760e01b815260040160405180910390fd5b604051869033907fc30fcfbcaac9e0deffa719714eaa82396ff506a0d0d0eebe170830177288715d90600090a3505050505050565b6001600160a01b038116600090815260076020526040812054610c725760405162461bcd60e51b815260206004820152601a60248201527f5573657220686173206e6f74206465706f7369746564207965740000000000006044820152606401610980565b6001600160a01b038216600090815260076020526040902054610c9590426119f4565b92915050565b3360009081526003602052604081208054349290610cba908490611a3c565b9091555050604051349033907fd7243f6f8212d5188fd054141cf6ea89cfc0d91facb8c3afe2f88a135848014290600090a3565b610cf6611824565b610d006000611851565b565b6040516302c68be360e31b81526001600160a01b0382811660048301526000917f0000000000000000000000000000000000000000000000000000000000000000909116906316345f18906024015b602060405180830381865afa158015610d6e573d6000803e3d6000fd5b505050506040513d601f19601f82011682018060405250810190610c95919061198c565b6000610c95826115db565b6000610c9582611502565b60008111610dc85760405162461bcd60e51b815260040161098090611a07565b33600090815260026020526040902054811115610e1e5760405162461bcd60e51b8152602060048201526014602482015273496e73756666696369656e742062616c616e636560601b6044820152606401610980565b3360009081526002602052604081208054839290610e3d9084906119f4565b925050819055508060086000828254610e5691906119f4565b90915550506040516323d0aab160e01b81523360048201527f00000000000000000000000000000000000000000000000000000000000000006001600160a01b0316906323d0aab190602401600060405180830381600087803b158015610ebc57600080fd5b505af1158015610ed0573d6000803e3d6000fd5b507376efc6b7adac502dc210f255ea8420672c1355d39250610ef7915082905033846118a3565b604051829033907f13f1180d41ad6611b3b08bbafa35e4540fdd948fe7ada6fa37137e3e46cbb77290600090a35050565b600080610f34336115db565b905080600003610f535750503360009081526003602052604090205490565b60006064610f626096846119bb565b610f6c91906119d2565b90506000610f7933611502565b9050818111610f8c576000935050505090565b6000610f9883836119f4565b905060007f00000000000000000000000000000000000000000000000000000000000000006001600160a01b031663a625d21d6040518163ffffffff1660e01b8152600401602060405180830381865afa158015610ffa573d6000803e3d6000fd5b505050506040513d601f19601f8201168201806040525081019061101e919061198c565b905060008161103584670de0b6b3a76400006119bb565b61103f91906119d2565b33600090815260036020526040902054909150811161105e578061088b565b33600090815260036020526040902054965050505050505090565b600034116110d55760405162461bcd60e51b8152602060048201526024808201527f436f6c6c61746572616c206d7573742062652067726561746572207468616e206044820152637a65726f60e01b6064820152608401610980565b6110dd610c9b565b686c6b935b8bbd4000006000670de0b6b3a76400006110fc83346119bb565b61110691906119d2565b9050600060646111178360326119bb565b61112191906119d2565b9050600061113464e8d4a51000836119d2565b905060085481116111455780611149565b6008545b90506103e880821061115e5761115e82611269565b604080513481526020810184905233917fc913d0af25ee3f92d7fd23fa1cfbed7dc2a6b514f9b2e013f18289be5be11b90910160405180910390a25050505050565b60007f00000000000000000000000000000000000000000000000000000000000000006001600160a01b031663a625d21d6040518163ffffffff1660e01b8152600401602060405180830381865afa158015610737573d6000803e3d6000fd5b600061075b33611502565b60405163b89a495b60e01b81526001600160a01b0382811660048301526000917f00000000000000000000000000000000000000000000000000000000000000009091169063b89a495b90602401610d51565b600061075b336115db565b600081116112895760405162461bcd60e51b815260040161098090611a07565b6008548111156112d25760405162461bcd60e51b81526020600482015260146024820152734e6f7420656e6f756768206c697175696469747960601b6044820152606401610980565b336000908152600360205260408120549060646112f06096856119bb565b6112fa91906119d2565b90508181111561134c5760405162461bcd60e51b815260206004820152601760248201527f496e73756666696369656e7420636f6c6c61746572616c0000000000000000006044820152606401610980565b336000908152600460205260408120805485929061136b908490611a3c565b92505081905550826008600082825461138491906119f4565b909155507376efc6b7adac502dc210f255ea8420672c1355d390506113aa8133866118a3565b604051849033907f55ca543acfe189813a500eaff658acafb5d2345c0db5314154e00ac8c9d3b91f90600090a350505050565b6113e5611824565b6001600160a01b03811661140f57604051631e4fbdf760e01b815260006004820152602401610980565b61141881611851565b50565b604051633f9af35f60e21b81526001600160a01b03821660048201526000908190309063fe6bcd7c90602401602060405180830381865afa158015611464573d6000803e3d6000fd5b505050506040513d601f19601f82011682018060405250810190611488919061198c565b670de0b6b3a7640000119392505050565b6000806114a583611502565b905060006114b2846115db565b9050806000036114c757506000199392505050565b6114d28160646119bb565b60966114e6670de0b6b3a7640000856119bb565b6114f091906119bb565b6114fa91906119d2565b949350505050565b60008060036000846001600160a01b03166001600160a01b0316815260200190815260200160002054905060007f00000000000000000000000000000000000000000000000000000000000000006001600160a01b031663a625d21d6040518163ffffffff1660e01b8152600401602060405180830381865afa15801561158d573d6000803e3d6000fd5b505050506040513d601f19601f820116820180604052508101906115b1919061198c565b90506000670de0b6b3a76400006115c883856119bb565b6115d291906119d2565b95945050505050565b6001600160a01b0381811660009081526004602081905260408083205490516302c68be360e31b81527376efc6b7adac502dc210f255ea8420672c1355d392810192909252919283917f0000000000000000000000000000000000000000000000000000000000000000909116906316345f1890602401602060405180830381865afa15801561158d573d6000803e3d6000fd5b6040516001600160a01b0384811660248301528381166044830152606482018390526116d69186918216906323b872dd906084015b604051602081830303815290604052915060e01b6020820180516001600160e01b0383818316178352505050506118d9565b50505050565b6001600160a01b0381811660009081526004602081905260408083205490516351c8572160e11b81527376efc6b7adac502dc210f255ea8420672c1355d3928101929092526024820181905291927f0000000000000000000000000000000000000000000000000000000000000000169063a390ae4290604401602060405180830381865afa158015611773573d6000803e3d6000fd5b505050506040513d601f19601f82011682018060405250810190611797919061198c565b9392505050565b604051630d82fdc960e11b8152600481018290526000907f00000000000000000000000000000000000000000000000000000000000000006001600160a01b031690631b05fb9290602401610d51565b60008160000361180057506001610c95565b60008261180e8560646119bb565b61181891906119d2565b60961115949350505050565b6001546001600160a01b03163314610d005760405163118cdaa760e01b8152336004820152602401610980565b600180546001600160a01b038381166001600160a01b0319831681179093556040519116919082907f8be0079c531659141344cd1fd0a4f28419497f9722a3daafe3b4186f6b6457e090600090a35050565b6040516001600160a01b038381166024830152604482018390526118d491859182169063a9059cbb906064016116a4565b505050565b600080602060008451602086016000885af1806118fc576040513d6000823e3d81fd5b50506000513d91508115611914578060011415611921565b6001600160a01b0384163b155b156116d657604051635274afe760e01b81526001600160a01b0385166004820152602401610980565b60006020828403121561195c57600080fd5b81356001600160a01b038116811461179757600080fd5b60006020828403121561198557600080fd5b5035919050565b60006020828403121561199e57600080fd5b5051919050565b634e487b7160e01b600052601160045260246000fd5b8082028115828204841417610c9557610c956119a5565b6000826119ef57634e487b7160e01b600052601260045260246000fd5b500490565b81810381811115610c9557610c956119a5565b6020808252818101527f416d6f756e74206d7573742062652067726561746572207468616e207a65726f604082015260600190565b80820180821115610c9557610c956119a556fea2646970667358221220aa221a842dc2e8cfba2c0391b8e13b5c97a4fc1ba5e3b3c5812c575108744be164736f6c63430008140033",
  "linkReferences": {},
  "deployedLinkReferences": {}
}