{
  "_format": "hh-sol-artifact-1",
  "contractName": "DSCEngine",
  "sourceName": "contracts/DSCEngine.sol",
  "abi": [
    {
      "inputs": [
        {
          "internalType": "address",
          "name": "priceOracleAddress",
          "type": "address"
        },
        {
          "internalType": "address",
          "name": "dsctokenAddress",
          "type": "address"
        },
        {
          "internalType": "address",
          "name": "InterestRateModelAddress",
          "type": "address"
        },
        {
          "internalType": "address",
          "name": "usdcAddress",
          "type": "address"
        },
        {
          "internalType": "address",
          "name": "usdtAddress",
          "type": "address"
        },
        {
          "internalType": "address",
          "name": "wethAddress",
          "type": "address"
        },
        {
          "internalType": "address",
          "name": "wbtcAddress",
          "type": "address"
        }
      ],
      "stateMutability": "nonpayable",
      "type": "constructor"
    },
    {
      "inputs": [],
      "name": "DSCEngine__LiquidationFailed",
      "type": "error"
    },
    {
      "inputs": [],
      "name": "DSCEngine__LoanRepaymentFailed",
      "type": "error"
    },
    {
      "inputs": [],
      "name": "DSCEngine__Mintfailed",
      "type": "error"
    },
    {
      "inputs": [],
      "name": "DSCEngine__NeedsMoreThanZero",
      "type": "error"
    },
    {
      "inputs": [],
      "name": "DSCEngine__NotAllowedCollateral",
      "type": "error"
    },
    {
      "inputs": [],
      "name": "DSCEngine__NotAllowedToken",
      "type": "error"
    },
    {
      "inputs": [],
      "name": "DSCEngine__TokenBurnFailed",
      "type": "error"
    },
    {
      "inputs": [],
      "name": "DSCEngine__TokenToMintExceedsDepositedStablecoin",
      "type": "error"
    },
    {
      "inputs": [],
      "name": "DSCEngine__TransferFailed",
      "type": "error"
    },
    {
      "inputs": [],
      "name": "DSCEngine__WithdrawCollateralFailed",
      "type": "error"
    },
    {
      "inputs": [
        {
          "internalType": "address",
          "name": "owner",
          "type": "address"
        }
      ],
      "name": "OwnableInvalidOwner",
      "type": "error"
    },
    {
      "inputs": [
        {
          "internalType": "address",
          "name": "account",
          "type": "address"
        }
      ],
      "name": "OwnableUnauthorizedAccount",
      "type": "error"
    },
    {
      "inputs": [],
      "name": "ReentrancyGuardReentrantCall",
      "type": "error"
    },
    {
      "anonymous": false,
      "inputs": [
        {
          "indexed": true,
          "internalType": "address",
          "name": "from",
          "type": "address"
        },
        {
          "indexed": true,
          "internalType": "address",
          "name": "collateral",
          "type": "address"
        },
        {
          "indexed": true,
          "internalType": "uint256",
          "name": "amount",
          "type": "uint256"
        }
      ],
      "name": "CollateralDeposited",
      "type": "event"
    },
    {
      "anonymous": false,
      "inputs": [
        {
          "indexed": true,
          "internalType": "address",
          "name": "previousOwner",
          "type": "address"
        },
        {
          "indexed": true,
          "internalType": "address",
          "name": "newOwner",
          "type": "address"
        }
      ],
      "name": "OwnershipTransferred",
      "type": "event"
    },
    {
      "anonymous": false,
      "inputs": [
        {
          "indexed": true,
          "internalType": "address",
          "name": "from",
          "type": "address"
        },
        {
          "indexed": true,
          "internalType": "address",
          "name": "token",
          "type": "address"
        },
        {
          "indexed": false,
          "internalType": "uint256",
          "name": "amount",
          "type": "uint256"
        }
      ],
      "name": "StableCoinDeposited",
      "type": "event"
    },
    {
      "anonymous": false,
      "inputs": [
        {
          "indexed": true,
          "internalType": "address",
          "name": "from",
          "type": "address"
        },
        {
          "indexed": true,
          "internalType": "address",
          "name": "token",
          "type": "address"
        },
        {
          "indexed": true,
          "internalType": "uint256",
          "name": "amount",
          "type": "uint256"
        }
      ],
      "name": "StableCoinWithdrawed",
      "type": "event"
    },
    {
      "anonymous": false,
      "inputs": [
        {
          "indexed": true,
          "internalType": "address",
          "name": "to",
          "type": "address"
        },
        {
          "indexed": true,
          "internalType": "uint256",
          "name": "amount",
          "type": "uint256"
        }
      ],
      "name": "tokenMinted",
      "type": "event"
    },
    {
      "inputs": [],
      "name": "USDC_ADDRESS",
      "outputs": [
        {
          "internalType": "address",
          "name": "",
          "type": "address"
        }
      ],
      "stateMutability": "view",
      "type": "function"
    },
    {
      "inputs": [],
      "name": "USDT_ADDRESS",
      "outputs": [
        {
          "internalType": "address",
          "name": "",
          "type": "address"
        }
      ],
      "stateMutability": "view",
      "type": "function"
    },
    {
      "inputs": [],
      "name": "WBTC_ADDRESS",
      "outputs": [
        {
          "internalType": "address",
          "name": "",
          "type": "address"
        }
      ],
      "stateMutability": "view",
      "type": "function"
    },
    {
      "inputs": [],
      "name": "WETH_ADDRESS",
      "outputs": [
        {
          "internalType": "address",
          "name": "",
          "type": "address"
        }
      ],
      "stateMutability": "view",
      "type": "function"
    },
    {
      "inputs": [
        {
          "internalType": "address",
          "name": "tokenAddress",
          "type": "address"
        },
        {
          "internalType": "uint256",
          "name": "stableCoinAmount",
          "type": "uint256"
        },
        {
          "internalType": "address",
          "name": "collateralAddress",
          "type": "address"
        }
      ],
      "name": "borrowStableCoins",
      "outputs": [],
      "stateMutability": "nonpayable",
      "type": "function"
    },
    {
      "inputs": [
        {
          "internalType": "uint256",
          "name": "amountTokenToBurn",
          "type": "uint256"
        }
      ],
      "name": "burn",
      "outputs": [],
      "stateMutability": "nonpayable",
      "type": "function"
    },
    {
      "inputs": [
        {
          "internalType": "address",
          "name": "user",
          "type": "address"
        }
      ],
      "name": "canUserBeLiquidated",
      "outputs": [
        {
          "internalType": "bool",
          "name": "",
          "type": "bool"
        }
      ],
      "stateMutability": "view",
      "type": "function"
    },
    {
      "inputs": [
        {
          "internalType": "address",
          "name": "collateralAddress",
          "type": "address"
        },
        {
          "internalType": "uint256",
          "name": "collateralAmount",
          "type": "uint256"
        }
      ],
      "name": "depositCollateral",
      "outputs": [],
      "stateMutability": "nonpayable",
      "type": "function"
    },
    {
      "inputs": [
        {
          "internalType": "address",
          "name": "tokenAddress",
          "type": "address"
        },
        {
          "internalType": "uint256",
          "name": "amountStableCoin",
          "type": "uint256"
        }
      ],
      "name": "depositStableCoins",
      "outputs": [],
      "stateMutability": "nonpayable",
      "type": "function"
    },
    {
      "inputs": [
        {
          "internalType": "address",
          "name": "tokenAddress",
          "type": "address"
        },
        {
          "internalType": "uint256",
          "name": "amountStableCoin",
          "type": "uint256"
        }
      ],
      "name": "depositStableCoinsAndMintToken",
      "outputs": [],
      "stateMutability": "nonpayable",
      "type": "function"
    },
    {
      "inputs": [
        {
          "internalType": "address",
          "name": "user",
          "type": "address"
        }
      ],
      "name": "getAccuredInterest",
      "outputs": [
        {
          "internalType": "uint256",
          "name": "",
          "type": "uint256"
        }
      ],
      "stateMutability": "view",
      "type": "function"
    },
    {
      "inputs": [
        {
          "internalType": "address",
          "name": "user",
          "type": "address"
        },
        {
          "internalType": "address",
          "name": "collateralAddress",
          "type": "address"
        }
      ],
      "name": "getCollateralDepositBalance",
      "outputs": [
        {
          "internalType": "uint256",
          "name": "",
          "type": "uint256"
        }
      ],
      "stateMutability": "view",
      "type": "function"
    },
    {
      "inputs": [],
      "name": "getCollateralThreshold",
      "outputs": [
        {
          "internalType": "uint256",
          "name": "",
          "type": "uint256"
        }
      ],
      "stateMutability": "pure",
      "type": "function"
    },
    {
      "inputs": [
        {
          "internalType": "address",
          "name": "user",
          "type": "address"
        },
        {
          "internalType": "address",
          "name": "tokenAddress",
          "type": "address"
        }
      ],
      "name": "getDebtBalance",
      "outputs": [
        {
          "internalType": "uint256",
          "name": "",
          "type": "uint256"
        }
      ],
      "stateMutability": "view",
      "type": "function"
    },
    {
      "inputs": [
        {
          "internalType": "address",
          "name": "user",
          "type": "address"
        }
      ],
      "name": "getHealthFactor",
      "outputs": [
        {
          "internalType": "uint256",
          "name": "",
          "type": "uint256"
        }
      ],
      "stateMutability": "view",
      "type": "function"
    },
    {
      "inputs": [],
      "name": "getInterest",
      "outputs": [
        {
          "internalType": "uint256",
          "name": "",
          "type": "uint256"
        }
      ],
      "stateMutability": "pure",
      "type": "function"
    },
    {
      "inputs": [
        {
          "internalType": "address",
          "name": "user",
          "type": "address"
        }
      ],
      "name": "getMintedLendingToken",
      "outputs": [
        {
          "internalType": "uint256",
          "name": "",
          "type": "uint256"
        }
      ],
      "stateMutability": "view",
      "type": "function"
    },
    {
      "inputs": [
        {
          "internalType": "address",
          "name": "user",
          "type": "address"
        },
        {
          "internalType": "address",
          "name": "token",
          "type": "address"
        }
      ],
      "name": "getStableCoinBalance",
      "outputs": [
        {
          "internalType": "uint256",
          "name": "",
          "type": "uint256"
        }
      ],
      "stateMutability": "view",
      "type": "function"
    },
    {
      "inputs": [
        {
          "internalType": "address",
          "name": "tokenAddress",
          "type": "address"
        }
      ],
      "name": "getTokenPriceInUsd",
      "outputs": [
        {
          "internalType": "uint256",
          "name": "",
          "type": "uint256"
        }
      ],
      "stateMutability": "view",
      "type": "function"
    },
    {
      "inputs": [],
      "name": "getTotalStablecoinSupply",
      "outputs": [
        {
          "internalType": "uint256",
          "name": "",
          "type": "uint256"
        }
      ],
      "stateMutability": "view",
      "type": "function"
    },
    {
      "inputs": [
        {
          "internalType": "address",
          "name": "user",
          "type": "address"
        }
      ],
      "name": "getUserCollateralValueInUsd",
      "outputs": [
        {
          "internalType": "uint256",
          "name": "",
          "type": "uint256"
        }
      ],
      "stateMutability": "view",
      "type": "function"
    },
    {
      "inputs": [
        {
          "internalType": "address",
          "name": "user",
          "type": "address"
        }
      ],
      "name": "getUserTotalDebtInUsd",
      "outputs": [
        {
          "internalType": "uint256",
          "name": "",
          "type": "uint256"
        }
      ],
      "stateMutability": "view",
      "type": "function"
    },
    {
      "inputs": [
        {
          "internalType": "address",
          "name": "collateral",
          "type": "address"
        }
      ],
      "name": "isCollateralValid",
      "outputs": [
        {
          "internalType": "bool",
          "name": "",
          "type": "bool"
        }
      ],
      "stateMutability": "view",
      "type": "function"
    },
    {
      "inputs": [
        {
          "internalType": "address",
          "name": "stablecoin",
          "type": "address"
        }
      ],
      "name": "isStablecoinValid",
      "outputs": [
        {
          "internalType": "bool",
          "name": "",
          "type": "bool"
        }
      ],
      "stateMutability": "view",
      "type": "function"
    },
    {
      "inputs": [
        {
          "internalType": "address",
          "name": "_borrower",
          "type": "address"
        },
        {
          "internalType": "address",
          "name": "tokenAddress",
          "type": "address"
        },
        {
          "internalType": "address",
          "name": "collateralAddress",
          "type": "address"
        },
        {
          "internalType": "uint256",
          "name": "repayAmount",
          "type": "uint256"
        }
      ],
      "name": "liquidate",
      "outputs": [],
      "stateMutability": "nonpayable",
      "type": "function"
    },
    {
      "inputs": [
        {
          "internalType": "uint256",
          "name": "amountTokenToMint",
          "type": "uint256"
        }
      ],
      "name": "mintLendingToken",
      "outputs": [],
      "stateMutability": "nonpayable",
      "type": "function"
    },
    {
      "inputs": [],
      "name": "owner",
      "outputs": [
        {
          "internalType": "address",
          "name": "",
          "type": "address"
        }
      ],
      "stateMutability": "view",
      "type": "function"
    },
    {
      "inputs": [],
      "name": "renounceOwnership",
      "outputs": [],
      "stateMutability": "nonpayable",
      "type": "function"
    },
    {
      "inputs": [
        {
          "internalType": "address",
          "name": "tokenAddress",
          "type": "address"
        },
        {
          "internalType": "uint256",
          "name": "stablecoinAmountToRepay",
          "type": "uint256"
        }
      ],
      "name": "repayLoan",
      "outputs": [],
      "stateMutability": "nonpayable",
      "type": "function"
    },
    {
      "inputs": [],
      "name": "s_totalStablecoin",
      "outputs": [
        {
          "internalType": "uint256",
          "name": "",
          "type": "uint256"
        }
      ],
      "stateMutability": "view",
      "type": "function"
    },
    {
      "inputs": [
        {
          "internalType": "address",
          "name": "user",
          "type": "address"
        }
      ],
      "name": "totalTimePassed",
      "outputs": [
        {
          "internalType": "uint256",
          "name": "",
          "type": "uint256"
        }
      ],
      "stateMutability": "view",
      "type": "function"
    },
    {
      "inputs": [
        {
          "internalType": "address",
          "name": "newOwner",
          "type": "address"
        }
      ],
      "name": "transferOwnership",
      "outputs": [],
      "stateMutability": "nonpayable",
      "type": "function"
    },
    {
      "inputs": [
        {
          "internalType": "address",
          "name": "collateralAddress",
          "type": "address"
        },
        {
          "internalType": "uint256",
          "name": "amountToWithdraw",
          "type": "uint256"
        }
      ],
      "name": "withdrawCollateral",
      "outputs": [],
      "stateMutability": "nonpayable",
      "type": "function"
    },
    {
      "inputs": [
        {
          "internalType": "address",
          "name": "tokenAddress",
          "type": "address"
        },
        {
          "internalType": "uint256",
          "name": "amountStableCoin",
          "type": "uint256"
        }
      ],
      "name": "withdrawStableCoin",
      "outputs": [],
      "stateMutability": "nonpayable",
      "type": "function"
    },
    {
      "inputs": [
        {
          "internalType": "address",
          "name": "tokenAddress",
          "type": "address"
        },
        {
          "internalType": "uint256",
          "name": "amountStableCoin",
          "type": "uint256"
        },
        {
          "internalType": "uint256",
          "name": "amountTokenToBurn",
          "type": "uint256"
        }
      ],
      "name": "withdrawStableCoinsAndBurnToken",
      "outputs": [],
      "stateMutability": "nonpayable",
      "type": "function"
    }
  ],
  "bytecode": "0x6101606040523480156200001257600080fd5b50604051620030c1380380620030c1833981016040819052620000359162000113565b600160005533806200006157604051631e4fbdf760e01b81526000600482015260240160405180910390fd5b6200006c81620000a4565b506001600160a01b03968716610140529486166101005292851661012052908416608052831660a052821660c0521660e052620001a8565b600180546001600160a01b038381166001600160a01b0319831681179093556040519116919082907f8be0079c531659141344cd1fd0a4f28419497f9722a3daafe3b4186f6b6457e090600090a35050565b80516001600160a01b03811681146200010e57600080fd5b919050565b600080600080600080600060e0888a0312156200012f57600080fd5b6200013a88620000f6565b96506200014a60208901620000f6565b95506200015a60408901620000f6565b94506200016a60608901620000f6565b93506200017a60808901620000f6565b92506200018a60a08901620000f6565b91506200019a60c08901620000f6565b905092959891949750929550565b60805160a05160c05160e051610100516101205161014051612d6e6200035360003960008181610cea01528181610ecf0152818161244b015281816124df015281816127f8015281816128a8015281816129fb0152612aab01526000818161090f01528181610c5a015281816111f40152818161130e0152818161163701528181611b0301528181611c2501528181611ca60152611e1401526000818161201c0152818161219b015281816125d00152612682015260008181610483015281816105be01528181610f4c01528181611574015281816129b80152612a7d01526000818161021b015281816105fb01528181610f87015281816115b1015261298c0152600081816104aa0152818161085e01528181610bd40152818161100b01528181611116015281816114ad01528181611b7401528181611fa9015281816120d70152818161227d015281816127b5015261287a0152600081816104490152818161082101528181610b9701528181610fce015281816110d90152818161147001528181611b3701528181611f11015281816120ac0152818161224201526127890152612d6e6000f3fe608060405234801561001057600080fd5b50600436106102115760003560e01c80638da5cb5b11610125578063c1892058116100ad578063e60ab8331161007c578063e60ab83314610505578063ef26475c14610518578063f2fde38b1461052b578063f55905621461053e578063fe6bcd7c1461055157600080fd5b8063c1892058146104a5578063dbafccca146104cc578063dd2856d1146104d5578063e5a4bed3146104fe57600080fd5b8063aab3f868116100f4578063aab3f8681461041e578063b89a495b14610431578063bb09d9b714610444578063bcdd961a1461046b578063bdd5915f1461047e57600080fd5b80638da5cb5b146103d457806393a595f5146103e5578063970f2996146103f8578063a5d5db0c1461040b57600080fd5b806358bd5c20116101a85780637d52b682116101775780637d52b68214610365578063801a2d9914610378578063803c97b31461038b57806380a9012b146103ae5780638896d799146103c157600080fd5b806358bd5c20146102fe57806363ad31aa1461033757806364bd3ea41461034a578063715018a61461035d57600080fd5b80633ef071f8116101e45780633ef071f8146102c957806342966c68146102dc5780634469214b146102ef5780634fa2b53c146102f757600080fd5b8063040141e514610216578063173badc91461025a5780633099adae1461027b578063350c35e9146102b4575b600080fd5b61023d7f000000000000000000000000000000000000000000000000000000000000000081565b6040516001600160a01b0390911681526020015b60405180910390f35b61026d610268366004612af6565b610564565b604051908152602001610251565b61026d610289366004612af6565b6001600160a01b03918216600090815260036020908152604080832093909416825291909152205490565b6102c76102c2366004612b29565b610591565b005b6102c76102d7366004612b29565b61081e565b6102c76102ea366004612b53565b610ab1565b60085461026d565b609661026d565b61026d61030c366004612af6565b6001600160a01b03918216600090815260046020908152604080832093909416825291909152205490565b61026d610345366004612b6c565b610ae2565b6102c7610358366004612b87565b610b6a565b6102c7610e99565b61026d610373366004612b6c565b610ead565b61026d610386366004612b6c565b610f3d565b61039e610399366004612b6c565b610f48565b6040519015158152602001610251565b61026d6103bc366004612b6c565b610fc0565b6102c76103cf366004612bc3565b610fcb565b6001546001600160a01b031661023d565b6102c76103f3366004612b29565b6110ac565b6102c7610406366004612b29565b61146d565b6102c7610419366004612b29565b611547565b6102c761042c366004612bf6565b6117b3565b61026d61043f366004612b6c565b611ae1565b61023d7f000000000000000000000000000000000000000000000000000000000000000081565b6102c7610479366004612b29565b611b34565b61023d7f000000000000000000000000000000000000000000000000000000000000000081565b61023d7f000000000000000000000000000000000000000000000000000000000000000081565b61026d60085481565b61026d6104e3366004612b6c565b6001600160a01b031660009081526006602052604090205490565b600561026d565b6102c7610513366004612b53565b611ed3565b61039e610526366004612b6c565b61223e565b6102c7610539366004612b6c565b6122b6565b61039e61054c366004612b6c565b6122f4565b61026d61055f366004612b6c565b612372565b6001600160a01b038083166000908152600260209081526040808320938516835292905220545b92915050565b80806000036105b35760405163cb1d3f7d60e01b815260040160405180910390fd5b6105bb6123db565b827f00000000000000000000000000000000000000000000000000000000000000006001600160a01b0316816001600160a01b03161415801561063057507f00000000000000000000000000000000000000000000000000000000000000006001600160a01b0316816001600160a01b031614155b1561064e57604051632b0b030560e21b815260040160405180910390fd5b3360009081526003602090815260408083206001600160a01b0388168452909152902054838110156106da5760405162461bcd60e51b815260206004820152602a60248201527f20416d6f756e74206578636565647320746f74616c20636f6c6c61746572616c6044820152690819195c1bdcda5d195960b21b60648201526084015b60405180910390fd5b60006106e68583612c57565b905060006106f43388612405565b9050600061070288846124b6565b905061070e8183612553565b61075a5760405162461bcd60e51b815260206004820152601d60248201527f436f6c6c61746572616c207468726573686f6c6420627265616368656400000060448201526064016106d1565b3360008181526003602090815260408083206001600160a01b038d1680855292528083208790555163a9059cbb60e01b81526004810193909352602483018a9052909163a9059cbb906044016020604051808303816000875af11580156107c5573d6000803e3d6000fd5b505050506040513d601f19601f820116820180604052508101906107e99190612c6a565b90508061080957604051638dac826f60e01b815260040160405180910390fd5b5050505050506108196001600055565b505050565b817f00000000000000000000000000000000000000000000000000000000000000006001600160a01b0316816001600160a01b03161415801561089357507f00000000000000000000000000000000000000000000000000000000000000006001600160a01b0316816001600160a01b031614155b156108b15760405163540167df60e11b815260040160405180910390fd5b81806000036108d35760405163cb1d3f7d60e01b815260040160405180910390fd5b6108db6123db565b3360008181526002602090815260408083206001600160a01b038981168552925291829020549151631cc0af0360e11b81527f0000000000000000000000000000000000000000000000000000000000000000909116926339815e069261094792600190600401612c8c565b600060405180830381600087803b15801561096157600080fd5b505af1158015610975573d6000803e3d6000fd5b50506040516323b872dd60e01b8152600092506001600160a01b03871691506323b872dd906109ac90339030908990600401612caf565b6020604051808303816000875af11580156109cb573d6000803e3d6000fd5b505050506040513d601f19601f820116820180604052508101906109ef9190612c6a565b905080610a0f57604051634dc34d1760e01b815260040160405180910390fd5b3360009081526002602090815260408083206001600160a01b038916845290915281208054869290610a42908490612cd3565b925050819055508360086000828254610a5b9190612cd3565b90915550506040518481526001600160a01b0386169033907fd12462c6581dd948aaec1542f79d92681b1c9d2d0aacdf3f419a583e9a73f5339060200160405180910390a350610aab6001600055565b50505050565b8080600003610ad35760405163cb1d3f7d60e01b815260040160405180910390fd5b610ade333384612589565b5050565b6001600160a01b038116600090815260076020526040812054610b475760405162461bcd60e51b815260206004820152601a60248201527f5573657220686173206e6f74206465706f73697465642079657400000000000060448201526064016106d1565b6001600160a01b03821660009081526007602052604090205461058b9042612c57565b8180600003610b8c5760405163cb1d3f7d60e01b815260040160405180910390fd5b610b946123db565b837f00000000000000000000000000000000000000000000000000000000000000006001600160a01b0316816001600160a01b031614158015610c0957507f00000000000000000000000000000000000000000000000000000000000000006001600160a01b0316816001600160a01b031614155b15610c275760405163540167df60e11b815260040160405180910390fd5b3360008181526004602081815260408084206001600160a01b038b811686529252808420549051631cc0af0360e11b81527f0000000000000000000000000000000000000000000000000000000000000000909216946339815e0694610c91949193909101612c8c565b600060405180830381600087803b158015610cab57600080fd5b505af1158015610cbf573d6000803e3d6000fd5b5050604051631eee3aa360e01b81523360048201526001600160a01b038681166024830152600093507f0000000000000000000000000000000000000000000000000000000000000000169150631eee3aa390604401602060405180830381865afa158015610d32573d6000803e3d6000fd5b505050506040513d601f19601f82011682018060405250810190610d569190612ce6565b905060006064610d67609688612cff565b610d719190612d16565b905081811115610dbb5760405162461bcd60e51b8152602060048201526015602482015274139bdd08195b9bdd59da0818dbdb1b185d195c985b605a1b60448201526064016106d1565b3360009081526004602090815260408083206001600160a01b038b16845290915281208054889290610dee908490612cd3565b909155505060405163a9059cbb60e01b8152336004820152602481018790526000906001600160a01b0389169063a9059cbb906044016020604051808303816000875af1158015610e43573d6000803e3d6000fd5b505050506040513d601f19601f82011682018060405250810190610e679190612c6a565b905080610e7357600080fd5b8660086000828254610e859190612c57565b9091555050600160005550610aab92505050565b610ea16126ec565b610eab6000612719565b565b6040516302c68be360e31b81526001600160a01b0382811660048301526000917f0000000000000000000000000000000000000000000000000000000000000000909116906316345f18906024015b602060405180830381865afa158015610f19573d6000803e3d6000fd5b505050506040513d601f19601f8201168201806040525081019061058b9190612ce6565b600061058b8261276b565b60007f00000000000000000000000000000000000000000000000000000000000000006001600160a01b0316826001600160a01b0316148061058b57507f00000000000000000000000000000000000000000000000000000000000000006001600160a01b0316826001600160a01b03161492915050565b600061058b8261296e565b827f00000000000000000000000000000000000000000000000000000000000000006001600160a01b0316816001600160a01b03161415801561104057507f00000000000000000000000000000000000000000000000000000000000000006001600160a01b0316816001600160a01b031614155b1561105e5760405163540167df60e11b815260040160405180910390fd5b82806000036110805760405163cb1d3f7d60e01b815260040160405180910390fd5b6110886123db565b6110928585611b34565b61109b83610ab1565b6110a56001600055565b5050505050565b80806000036110ce5760405163cb1d3f7d60e01b815260040160405180910390fd5b6110d66123db565b827f00000000000000000000000000000000000000000000000000000000000000006001600160a01b0316816001600160a01b03161415801561114b57507f00000000000000000000000000000000000000000000000000000000000000006001600160a01b0316816001600160a01b031614155b156111695760405163540167df60e11b815260040160405180910390fd5b3360009081526004602090815260408083206001600160a01b03881684529091529020548311156111dc5760405162461bcd60e51b815260206004820152601960248201527f526570617920616d6f756e74206578636565647320646562740000000000000060448201526064016106d1565b60405163b89a495b60e01b81523360048201526000907f00000000000000000000000000000000000000000000000000000000000000006001600160a01b03169063b89a495b90602401602060405180830381865afa158015611243573d6000803e3d6000fd5b505050506040513d601f19601f820116820180604052508101906112679190612ce6565b3360009081526004602090815260408083206001600160a01b038a1684529091528120549192506112988383612cd3565b116112db5760405162461bcd60e51b8152602060048201526013602482015272139bc81bdd5d1cdd185b991a5b99c81919589d606a1b60448201526064016106d1565b3360008181526004602081815260408084206001600160a01b038c811686529252808420549051631cc0af0360e11b81527f0000000000000000000000000000000000000000000000000000000000000000909216946339815e0694611345949193909101612c8c565b600060405180830381600087803b15801561135f57600080fd5b505af1158015611373573d6000803e3d6000fd5b50503360009081526004602090815260408083206001600160a01b038c168452909152812080548994509092506113ab908490612c57565b9250508190555084600860008282546113c49190612cd3565b90915550506040516323b872dd60e01b81526000906001600160a01b038816906323b872dd906113fc90339030908b90600401612caf565b6020604051808303816000875af115801561141b573d6000803e3d6000fd5b505050506040513d601f19601f8201168201806040525081019061143f9190612c6a565b90508061145f57604051630780770360e11b815260040160405180910390fd5b505050506108196001600055565b817f00000000000000000000000000000000000000000000000000000000000000006001600160a01b0316816001600160a01b0316141580156114e257507f00000000000000000000000000000000000000000000000000000000000000006001600160a01b0316816001600160a01b031614155b156115005760405163540167df60e11b815260040160405180910390fd5b81806000036115225760405163cb1d3f7d60e01b815260040160405180910390fd5b61152a6123db565b611534848461081e565b61153d83611ed3565b610aab6001600055565b80806000036115695760405163cb1d3f7d60e01b815260040160405180910390fd5b6115716123db565b827f00000000000000000000000000000000000000000000000000000000000000006001600160a01b0316816001600160a01b0316141580156115e657507f00000000000000000000000000000000000000000000000000000000000000006001600160a01b0316816001600160a01b031614155b1561160457604051632b0b030560e21b815260040160405180910390fd5b3360008181526003602090815260408083206001600160a01b0389811685529252808320549051631cc0af0360e11b81527f0000000000000000000000000000000000000000000000000000000000000000909216936339815e069361166f93919291600401612c8c565b600060405180830381600087803b15801561168957600080fd5b505af115801561169d573d6000803e3d6000fd5b50506040516323b872dd60e01b8152600092506001600160a01b03871691506323b872dd906116d490339030908990600401612caf565b6020604051808303816000875af11580156116f3573d6000803e3d6000fd5b505050506040513d601f19601f820116820180604052508101906117179190612c6a565b90508061173757604051634dc34d1760e01b815260040160405180910390fd5b3360009081526003602090815260408083206001600160a01b03891684529091528120805486929061176a908490612cd3565b909155505060405184906001600160a01b0387169033907ff1c0dd7e9b98bbff859029005ef89b127af049cd18df1a8d79f0b7e019911e5690600090a450506108196001600055565b6117bb6123db565b60006117c68561296e565b905060006117d38661276b565b90506000670de0b6b3a7640000826117ec609686612cff565b6117f69190612d16565b6118009190612d16565b9050600181106118525760405162461bcd60e51b815260206004820152601960248201527f5573657220697320756e646572636f6c6c61746572697a65640000000000000060448201526064016106d1565b6000841180156118625750818411155b6118a55760405162461bcd60e51b8152602060048201526014602482015273125b9d985b1a59081c995c185e48185b5bdd5b9d60621b60448201526064016106d1565b600a60006064866118b68483612cd3565b6118c09190612cff565b6118ca9190612d16565b6001600160a01b03808b166000908152600360209081526040808320938c16835292905220549091508111156119425760405162461bcd60e51b815260206004820152601e60248201527f4e6f7420656e6f75676820636f6c6c61746572616c20746f207365697a65000060448201526064016106d1565b6001600160a01b03808a166000908152600460209081526040808320938c1683529290529081208054889290611979908490612c57565b90915550506001600160a01b03808a166000908152600360209081526040808320938b16835292905290812080548392906119b5908490612c57565b909155505060405163a9059cbb60e01b8152336004820152602481018290526000906001600160a01b0389169063a9059cbb906044016020604051808303816000875af1158015611a0a573d6000803e3d6000fd5b505050506040513d601f19601f82011682018060405250810190611a2e9190612c6a565b90506000896001600160a01b03166323b872dd33308b6040518463ffffffff1660e01b8152600401611a6293929190612caf565b6020604051808303816000875af1158015611a81573d6000803e3d6000fd5b505050506040513d601f19601f82011682018060405250810190611aa59190612c6a565b9050811580611ab2575080155b15611ad05760405163255a46f960e11b815260040160405180910390fd5b50505050505050610aab6001600055565b60405163b89a495b60e01b81526001600160a01b0382811660048301526000917f00000000000000000000000000000000000000000000000000000000000000009091169063b89a495b90602401610efc565b817f00000000000000000000000000000000000000000000000000000000000000006001600160a01b0316816001600160a01b031614158015611ba957507f00000000000000000000000000000000000000000000000000000000000000006001600160a01b0316816001600160a01b031614155b15611bc75760405163540167df60e11b815260040160405180910390fd5b8180600003611be95760405163cb1d3f7d60e01b815260040160405180910390fd5b611bf16123db565b3360008181526002602090815260408083206001600160a01b038981168552925291829020549151631cc0af0360e11b81527f0000000000000000000000000000000000000000000000000000000000000000909116926339815e0692611c5d92600190600401612c8c565b600060405180830381600087803b158015611c7757600080fd5b505af1158015611c8b573d6000803e3d6000fd5b505060405163b89a495b60e01b8152336004820152600092507f00000000000000000000000000000000000000000000000000000000000000006001600160a01b0316915063b89a495b90602401602060405180830381865afa158015611cf6573d6000803e3d6000fd5b505050506040513d601f19601f82011682018060405250810190611d1a9190612ce6565b905060006001600160a01b03861663a9059cbb33611d388589612cd3565b6040516001600160e01b031960e085901b1681526001600160a01b03909216600483015260248201526044016020604051808303816000875af1158015611d83573d6000803e3d6000fd5b505050506040513d601f19601f82011682018060405250810190611da79190612c6a565b905080611dc757604051634dc34d1760e01b815260040160405180910390fd5b3360009081526002602090815260408083206001600160a01b038a16845290915281208054879290611dfa908490612c57565b90915550506040516323d0aab160e01b81523360048201527f00000000000000000000000000000000000000000000000000000000000000006001600160a01b0316906323d0aab190602401600060405180830381600087803b158015611e6057600080fd5b505af1158015611e74573d6000803e3d6000fd5b505050508460086000828254611e8a9190612c57565b909155505060405185906001600160a01b0388169033907f82cb60a50bdd6fcb2d9b10df992f3c07380e4a1beb575a48b73fef8f2494d31f90600090a45050610aab6001600055565b8080600003611ef55760405163cb1d3f7d60e01b815260040160405180910390fd5b611efd6123db565b3360008181526002602090815260408083207f00000000000000000000000000000000000000000000000000000000000000006001600160a01b031684529091529020548390811115611f8b5760405162461bcd60e51b8152602060048201526016602482015275139bdd081cdd59999a58da595b9d0819195c1bdcda5d60521b60448201526064016106d1565b6001600160a01b0380831660009081526002602090815260408083207f00000000000000000000000000000000000000000000000000000000000000009094168352929052205481111561201a5760405162461bcd60e51b8152602060048201526016602482015275139bdd081cdd59999a58da595b9d0819195c1bdcda5d60521b60448201526064016106d1565b7f00000000000000000000000000000000000000000000000000000000000000006001600160a01b03166120905760405162461bcd60e51b815260206004820152601860248201527f695f6c746f6b656e206e6f7420696e697469616c697a6564000000000000000060448201526064016106d1565b3360009081526002602090815260408083206001600160a01b037f0000000000000000000000000000000000000000000000000000000000000000811685529252808320547f000000000000000000000000000000000000000000000000000000000000000090921683528220546121089190612cd3565b90508481101561212b576040516314ca838160e11b815260040160405180910390fd5b336000908152600660205260408120805487929061214a908490612cd3565b9091555050604051859033907f2d8eb9b9558d4b5ef1d238622692f6156d5822009340e26ab15fac05d64c12f090600090a36040516340c10f1960e01b8152336004820152602481018690526000907f00000000000000000000000000000000000000000000000000000000000000006001600160a01b0316906340c10f19906044016020604051808303816000875af11580156121ec573d6000803e3d6000fd5b505050506040513d601f19601f820116820180604052508101906122109190612c6a565b9050806122305760405163f07fe0c360e01b815260040160405180910390fd5b50505050610ade6001600055565b60007f00000000000000000000000000000000000000000000000000000000000000006001600160a01b0316826001600160a01b0316148061058b57507f00000000000000000000000000000000000000000000000000000000000000006001600160a01b0316826001600160a01b03161492915050565b6122be6126ec565b6001600160a01b0381166122e857604051631e4fbdf760e01b8152600060048201526024016106d1565b6122f181612719565b50565b604051633f9af35f60e21b81526001600160a01b03821660048201526000908190309063fe6bcd7c90602401602060405180830381865afa15801561233d573d6000803e3d6000fd5b505050506040513d601f19601f820116820180604052508101906123619190612ce6565b670de0b6b3a7640000119392505050565b60008061237e8361296e565b9050600061238b8461276b565b9050806000036123a057506000199392505050565b6123ab816064612cff565b60966123bf670de0b6b3a764000085612cff565b6123c99190612cff565b6123d39190612d16565b949350505050565b6002600054036123fe57604051633ee5aeb560e01b815260040160405180910390fd5b6002600055565b6001600160a01b03828116600090815260046020818152604080842086861680865292528084205490516351c8572160e11b8152928301919091526024820181905291927f0000000000000000000000000000000000000000000000000000000000000000169063a390ae4290604401602060405180830381865afa158015612492573d6000803e3d6000fd5b505050506040513d601f19601f820116820180604052508101906123d39190612ce6565b6040516351c8572160e11b81526001600160a01b038381166004830152602482018390526000917f00000000000000000000000000000000000000000000000000000000000000009091169063a390ae4290604401602060405180830381865afa158015612528573d6000803e3d6000fd5b505050506040513d601f19601f8201168201806040525081019061254c9190612ce6565b9392505050565b6000816000036125655750600161058b565b600082612573856064612cff565b61257d9190612d16565b60961115949350505050565b6001600160a01b038316600090815260066020526040812080548392906125b1908490612c57565b90915550506040516323b872dd60e01b81526000906001600160a01b037f000000000000000000000000000000000000000000000000000000000000000016906323b872dd9061260990869030908790600401612caf565b6020604051808303816000875af1158015612628573d6000803e3d6000fd5b505050506040513d601f19601f8201168201806040525081019061264c9190612c6a565b90508061266c576040516308d2a41160e41b815260040160405180910390fd5b604051630852cd8d60e31b8152600481018390527f00000000000000000000000000000000000000000000000000000000000000006001600160a01b0316906342966c6890602401600060405180830381600087803b1580156126ce57600080fd5b505af11580156126e2573d6000803e3d6000fd5b5050505050505050565b6001546001600160a01b03163314610eab5760405163118cdaa760e01b81523360048201526024016106d1565b600180546001600160a01b038381166001600160a01b0319831681179093556040519116919082907f8be0079c531659141344cd1fd0a4f28419497f9722a3daafe3b4186f6b6457e090600090a35050565b6001600160a01b0381811660009081526004602081815260408084207f000000000000000000000000000000000000000000000000000000000000000086168086529252808420547f0000000000000000000000000000000000000000000000000000000000000000861685528185205491516302c68be360e31b815293840192909252929390929184917f000000000000000000000000000000000000000000000000000000000000000016906316345f1890602401602060405180830381865afa15801561283f573d6000803e3d6000fd5b505050506040513d601f19601f820116820180604052508101906128639190612ce6565b6040516302c68be360e31b81526001600160a01b037f0000000000000000000000000000000000000000000000000000000000000000811660048301529192506000917f000000000000000000000000000000000000000000000000000000000000000016906316345f18906024015b602060405180830381865afa1580156128f0573d6000803e3d6000fd5b505050506040513d601f19601f820116820180604052508101906129149190612ce6565b90506000670de0b6b3a764000061292b8487612cff565b6129359190612d16565b90506000670de0b6b3a764000061294c8487612cff565b6129569190612d16565b90506129628183612cd3565b98975050505050505050565b6001600160a01b0381811660009081526003602090815260408083207f000000000000000000000000000000000000000000000000000000000000000085168085529252808320547f0000000000000000000000000000000000000000000000000000000000000000851684528184205491516302c68be360e31b815260048101939093529293909184917f000000000000000000000000000000000000000000000000000000000000000016906316345f1890602401602060405180830381865afa158015612a42573d6000803e3d6000fd5b505050506040513d601f19601f82011682018060405250810190612a669190612ce6565b6040516302c68be360e31b81526001600160a01b037f0000000000000000000000000000000000000000000000000000000000000000811660048301529192506000917f000000000000000000000000000000000000000000000000000000000000000016906316345f18906024016128d3565b80356001600160a01b0381168114612af157600080fd5b919050565b60008060408385031215612b0957600080fd5b612b1283612ada565b9150612b2060208401612ada565b90509250929050565b60008060408385031215612b3c57600080fd5b612b4583612ada565b946020939093013593505050565b600060208284031215612b6557600080fd5b5035919050565b600060208284031215612b7e57600080fd5b61254c82612ada565b600080600060608486031215612b9c57600080fd5b612ba584612ada565b925060208401359150612bba60408501612ada565b90509250925092565b600080600060608486031215612bd857600080fd5b612be184612ada565b95602085013595506040909401359392505050565b60008060008060808587031215612c0c57600080fd5b612c1585612ada565b9350612c2360208601612ada565b9250612c3160408601612ada565b9396929550929360600135925050565b634e487b7160e01b600052601160045260246000fd5b8181038181111561058b5761058b612c41565b600060208284031215612c7c57600080fd5b8151801515811461254c57600080fd5b6001600160a01b0393909316835260208301919091521515604082015260600190565b6001600160a01b039384168152919092166020820152604081019190915260600190565b8082018082111561058b5761058b612c41565b600060208284031215612cf857600080fd5b5051919050565b808202811582820484141761058b5761058b612c41565b600082612d3357634e487b7160e01b600052601260045260246000fd5b50049056fea264697066735822122094b5c4f845e2ff349bcdb00e55c0335069776395d5e9361b9e29696f2f6146f864736f6c63430008140033",
  "linkReferences": {},
  "deployedLinkReferences": {}
}