{
  "_format": "hh-sol-artifact-1",
  "contractName": "DSCEngine",
  "sourceName": "contracts/DSCEngine.sol",
  "abi": [
    {
      "inputs": [
        {
          "internalType": "address",
          "name": "priceOracleAddress",
          "type": "address"
        },
        {
          "internalType": "address",
          "name": "InterestRateModelAddress",
          "type": "address"
        }
      ],
      "stateMutability": "nonpayable",
      "type": "constructor"
    },
    {
      "inputs": [],
      "name": "DSCEngine__LiquidationFailed",
      "type": "error"
    },
    {
      "inputs": [],
      "name": "DSCEngine__LoanRepaymentFailed",
      "type": "error"
    },
    {
      "inputs": [],
      "name": "DSCEngine__Mintfailed",
      "type": "error"
    },
    {
      "inputs": [],
      "name": "DSCEngine__NeedsMoreThanZero",
      "type": "error"
    },
    {
      "inputs": [],
      "name": "DSCEngine__NotAllowedCollateral",
      "type": "error"
    },
    {
      "inputs": [],
      "name": "DSCEngine__NotAllowedToken",
      "type": "error"
    },
    {
      "inputs": [],
      "name": "DSCEngine__StablecoinBorrowFailed",
      "type": "error"
    },
    {
      "inputs": [],
      "name": "DSCEngine__TokenBurnFailed",
      "type": "error"
    },
    {
      "inputs": [],
      "name": "DSCEngine__TokenToMintExceedsDepositedStablecoin",
      "type": "error"
    },
    {
      "inputs": [],
      "name": "DSCEngine__TransferFailed",
      "type": "error"
    },
    {
      "inputs": [],
      "name": "DSCEngine__WithdrawCollateralFailed",
      "type": "error"
    },
    {
      "inputs": [
        {
          "internalType": "address",
          "name": "owner",
          "type": "address"
        }
      ],
      "name": "OwnableInvalidOwner",
      "type": "error"
    },
    {
      "inputs": [
        {
          "internalType": "address",
          "name": "account",
          "type": "address"
        }
      ],
      "name": "OwnableUnauthorizedAccount",
      "type": "error"
    },
    {
      "inputs": [],
      "name": "ReentrancyGuardReentrantCall",
      "type": "error"
    },
    {
      "anonymous": false,
      "inputs": [
        {
          "indexed": true,
          "internalType": "address",
          "name": "from",
          "type": "address"
        },
        {
          "indexed": true,
          "internalType": "uint256",
          "name": "amount",
          "type": "uint256"
        }
      ],
      "name": "CollateralDeposited",
      "type": "event"
    },
    {
      "anonymous": false,
      "inputs": [
        {
          "indexed": true,
          "internalType": "address",
          "name": "from",
          "type": "address"
        },
        {
          "indexed": true,
          "internalType": "uint256",
          "name": "amount",
          "type": "uint256"
        }
      ],
      "name": "CollateralWithdrawn",
      "type": "event"
    },
    {
      "anonymous": false,
      "inputs": [
        {
          "indexed": true,
          "internalType": "address",
          "name": "liquidator",
          "type": "address"
        },
        {
          "indexed": true,
          "internalType": "address",
          "name": "borrower",
          "type": "address"
        },
        {
          "indexed": false,
          "internalType": "uint256",
          "name": "debtAmount",
          "type": "uint256"
        },
        {
          "indexed": false,
          "internalType": "uint256",
          "name": "collateralSeized",
          "type": "uint256"
        }
      ],
      "name": "Liquidation",
      "type": "event"
    },
    {
      "anonymous": false,
      "inputs": [
        {
          "indexed": true,
          "internalType": "address",
          "name": "from",
          "type": "address"
        },
        {
          "indexed": true,
          "internalType": "uint256",
          "name": "amount",
          "type": "uint256"
        }
      ],
      "name": "LoanRepaid",
      "type": "event"
    },
    {
      "anonymous": false,
      "inputs": [
        {
          "indexed": true,
          "internalType": "address",
          "name": "previousOwner",
          "type": "address"
        },
        {
          "indexed": true,
          "internalType": "address",
          "name": "newOwner",
          "type": "address"
        }
      ],
      "name": "OwnershipTransferred",
      "type": "event"
    },
    {
      "anonymous": false,
      "inputs": [
        {
          "indexed": true,
          "internalType": "address",
          "name": "from",
          "type": "address"
        },
        {
          "indexed": false,
          "internalType": "uint256",
          "name": "amount",
          "type": "uint256"
        }
      ],
      "name": "StableCoinDeposited",
      "type": "event"
    },
    {
      "anonymous": false,
      "inputs": [
        {
          "indexed": true,
          "internalType": "address",
          "name": "from",
          "type": "address"
        },
        {
          "indexed": true,
          "internalType": "uint256",
          "name": "amount",
          "type": "uint256"
        }
      ],
      "name": "StableCoinWithdrawed",
      "type": "event"
    },
    {
      "anonymous": false,
      "inputs": [
        {
          "indexed": true,
          "internalType": "address",
          "name": "from",
          "type": "address"
        },
        {
          "indexed": true,
          "internalType": "uint256",
          "name": "amount",
          "type": "uint256"
        }
      ],
      "name": "StablecoinBorrowed",
      "type": "event"
    },
    {
      "anonymous": false,
      "inputs": [
        {
          "indexed": true,
          "internalType": "address",
          "name": "to",
          "type": "address"
        },
        {
          "indexed": true,
          "internalType": "uint256",
          "name": "amount",
          "type": "uint256"
        }
      ],
      "name": "tokenMinted",
      "type": "event"
    },
    {
      "inputs": [],
      "name": "USDC_ADDRESS",
      "outputs": [
        {
          "internalType": "address",
          "name": "",
          "type": "address"
        }
      ],
      "stateMutability": "view",
      "type": "function"
    },
    {
      "inputs": [
        {
          "internalType": "uint256",
          "name": "stablecoinAmount",
          "type": "uint256"
        }
      ],
      "name": "borrowStablecoin",
      "outputs": [],
      "stateMutability": "nonpayable",
      "type": "function"
    },
    {
      "inputs": [
        {
          "internalType": "address",
          "name": "user",
          "type": "address"
        }
      ],
      "name": "canUserBeLiquidated",
      "outputs": [
        {
          "internalType": "bool",
          "name": "",
          "type": "bool"
        }
      ],
      "stateMutability": "view",
      "type": "function"
    },
    {
      "inputs": [],
      "name": "depositCollateral",
      "outputs": [],
      "stateMutability": "payable",
      "type": "function"
    },
    {
      "inputs": [],
      "name": "depositCollateralAndBorrowStablecoin",
      "outputs": [],
      "stateMutability": "payable",
      "type": "function"
    },
    {
      "inputs": [
        {
          "internalType": "uint256",
          "name": "amountStableCoin",
          "type": "uint256"
        }
      ],
      "name": "depositStablecoin",
      "outputs": [],
      "stateMutability": "nonpayable",
      "type": "function"
    },
    {
      "inputs": [
        {
          "internalType": "address",
          "name": "user",
          "type": "address"
        }
      ],
      "name": "getAccuredInterest",
      "outputs": [
        {
          "internalType": "uint256",
          "name": "",
          "type": "uint256"
        }
      ],
      "stateMutability": "view",
      "type": "function"
    },
    {
      "inputs": [
        {
          "internalType": "address",
          "name": "user",
          "type": "address"
        }
      ],
      "name": "getCollateralDepositBalance",
      "outputs": [
        {
          "internalType": "uint256",
          "name": "",
          "type": "uint256"
        }
      ],
      "stateMutability": "view",
      "type": "function"
    },
    {
      "inputs": [],
      "name": "getCollateralThreshold",
      "outputs": [
        {
          "internalType": "uint256",
          "name": "",
          "type": "uint256"
        }
      ],
      "stateMutability": "pure",
      "type": "function"
    },
    {
      "inputs": [
        {
          "internalType": "address",
          "name": "user",
          "type": "address"
        }
      ],
      "name": "getDebtBalance",
      "outputs": [
        {
          "internalType": "uint256",
          "name": "",
          "type": "uint256"
        }
      ],
      "stateMutability": "view",
      "type": "function"
    },
    {
      "inputs": [
        {
          "internalType": "address",
          "name": "user",
          "type": "address"
        }
      ],
      "name": "getHealthFactor",
      "outputs": [
        {
          "internalType": "uint256",
          "name": "",
          "type": "uint256"
        }
      ],
      "stateMutability": "view",
      "type": "function"
    },
    {
      "inputs": [],
      "name": "getInterest",
      "outputs": [
        {
          "internalType": "uint256",
          "name": "",
          "type": "uint256"
        }
      ],
      "stateMutability": "pure",
      "type": "function"
    },
    {
      "inputs": [
        {
          "internalType": "address",
          "name": "user",
          "type": "address"
        }
      ],
      "name": "getMintedLendingToken",
      "outputs": [
        {
          "internalType": "uint256",
          "name": "",
          "type": "uint256"
        }
      ],
      "stateMutability": "view",
      "type": "function"
    },
    {
      "inputs": [
        {
          "internalType": "address",
          "name": "user",
          "type": "address"
        }
      ],
      "name": "getStableCoinBalance",
      "outputs": [
        {
          "internalType": "uint256",
          "name": "",
          "type": "uint256"
        }
      ],
      "stateMutability": "view",
      "type": "function"
    },
    {
      "inputs": [
        {
          "internalType": "address",
          "name": "tokenAddress",
          "type": "address"
        }
      ],
      "name": "getTokenPriceInUsd",
      "outputs": [
        {
          "internalType": "uint256",
          "name": "",
          "type": "uint256"
        }
      ],
      "stateMutability": "view",
      "type": "function"
    },
    {
      "inputs": [],
      "name": "getTotalStablecoinSupply",
      "outputs": [
        {
          "internalType": "uint256",
          "name": "",
          "type": "uint256"
        }
      ],
      "stateMutability": "view",
      "type": "function"
    },
    {
      "inputs": [
        {
          "internalType": "address",
          "name": "user",
          "type": "address"
        }
      ],
      "name": "getUserCollateralValueInUsd",
      "outputs": [
        {
          "internalType": "uint256",
          "name": "",
          "type": "uint256"
        }
      ],
      "stateMutability": "view",
      "type": "function"
    },
    {
      "inputs": [
        {
          "internalType": "address",
          "name": "user",
          "type": "address"
        }
      ],
      "name": "getUserTotalDebtInUsd",
      "outputs": [
        {
          "internalType": "uint256",
          "name": "",
          "type": "uint256"
        }
      ],
      "stateMutability": "view",
      "type": "function"
    },
    {
      "inputs": [
        {
          "internalType": "address",
          "name": "stablecoin",
          "type": "address"
        }
      ],
      "name": "isStablecoinValid",
      "outputs": [
        {
          "internalType": "bool",
          "name": "",
          "type": "bool"
        }
      ],
      "stateMutability": "pure",
      "type": "function"
    },
    {
      "inputs": [
        {
          "internalType": "address",
          "name": "_borrower",
          "type": "address"
        },
        {
          "internalType": "uint256",
          "name": "repayAmount",
          "type": "uint256"
        }
      ],
      "name": "liquidate",
      "outputs": [],
      "stateMutability": "nonpayable",
      "type": "function"
    },
    {
      "inputs": [],
      "name": "owner",
      "outputs": [
        {
          "internalType": "address",
          "name": "",
          "type": "address"
        }
      ],
      "stateMutability": "view",
      "type": "function"
    },
    {
      "inputs": [],
      "name": "renounceOwnership",
      "outputs": [],
      "stateMutability": "nonpayable",
      "type": "function"
    },
    {
      "inputs": [
        {
          "internalType": "uint256",
          "name": "stablecoinAmountToRepay",
          "type": "uint256"
        }
      ],
      "name": "repayLoan",
      "outputs": [],
      "stateMutability": "nonpayable",
      "type": "function"
    },
    {
      "inputs": [],
      "name": "s_totalStablecoin",
      "outputs": [
        {
          "internalType": "uint256",
          "name": "",
          "type": "uint256"
        }
      ],
      "stateMutability": "view",
      "type": "function"
    },
    {
      "inputs": [
        {
          "internalType": "address",
          "name": "user",
          "type": "address"
        }
      ],
      "name": "totalTimePassed",
      "outputs": [
        {
          "internalType": "uint256",
          "name": "",
          "type": "uint256"
        }
      ],
      "stateMutability": "view",
      "type": "function"
    },
    {
      "inputs": [
        {
          "internalType": "address",
          "name": "newOwner",
          "type": "address"
        }
      ],
      "name": "transferOwnership",
      "outputs": [],
      "stateMutability": "nonpayable",
      "type": "function"
    },
    {
      "inputs": [
        {
          "internalType": "uint256",
          "name": "amountToWithdraw",
          "type": "uint256"
        }
      ],
      "name": "withdrawCollateral",
      "outputs": [],
      "stateMutability": "nonpayable",
      "type": "function"
    },
    {
      "inputs": [
        {
          "internalType": "uint256",
          "name": "amountStableCoin",
          "type": "uint256"
        }
      ],
      "name": "withdrawStablecoin",
      "outputs": [],
      "stateMutability": "nonpayable",
      "type": "function"
    }
  ],
  "bytecode": "0x60c06040523480156200001157600080fd5b506040516200286e3803806200286e8339810160408190526200003491620000f3565b600160005533806200006057604051631e4fbdf760e01b81526000600482015260240160405180910390fd5b6200006b8162000084565b506001600160a01b0391821660a052166080526200012b565b600180546001600160a01b038381166001600160a01b0319831681179093556040519116919082907f8be0079c531659141344cd1fd0a4f28419497f9722a3daafe3b4186f6b6457e090600090a35050565b80516001600160a01b0381168114620000ee57600080fd5b919050565b600080604083850312156200010757600080fd5b6200011283620000d6565b91506200012260208401620000d6565b90509250929050565b60805160a051612675620001f9600039600081816108be01528181610b9e01528181610c6c015281816113dc015281816117930152818161195601528181611ba201528181611c2d01528181611d5e01528181611e2401528181611eb201528181611f4f015261238f0152600081816105dd01528181610ab701528181610d5101528181610dd001528181610f48015281816110da015281816111db0152818161134a01528181611453015281816115170152818161170f0152818161214301526122fb01526126756000f3fe6080604052600436106101b75760003560e01c80639d5ec1c5116100ec578063dd2856d11161008a578063f2fde38b11610064578063f2fde38b146104e6578063f559056214610506578063f96d947d14610526578063fe6bcd7c1461055c57600080fd5b8063dd2856d114610455578063e5a4bed31461048b578063ef26475c1461049f57600080fd5b8063bb09d9b7116100c6578063bb09d9b7146103dd578063bcbaf487146103ff578063dadb7e791461041f578063dbafccca1461043f57600080fd5b80639d5ec1c514610395578063ab7b1c891461039d578063b89a495b146103bd57600080fd5b8063715018a611610159578063801a2d9911610133578063801a2d991461030357806380a9012b14610323578063870e974e146103435780638da5cb5b1461036357600080fd5b8063715018a61461029857806371ebcf53146102ad5780637d52b682146102e357600080fd5b806359f99c531161019557806359f99c531461022e5780636112fe2e1461025057806363ad31aa146102705780636f7581401461029057600080fd5b80633fb1bf3e146101bc5780634469214b146102055780634fa2b53c1461021a575b600080fd5b3480156101c857600080fd5b506101f26101d73660046124ee565b6001600160a01b031660009081526004602052604090205490565b6040519081526020015b60405180910390f35b34801561021157600080fd5b506008546101f2565b34801561022657600080fd5b5060966101f2565b34801561023a57600080fd5b5061024e610249366004612509565b61057c565b005b34801561025c57600080fd5b5061024e61026b366004612509565b610766565b34801561027c57600080fd5b506101f261028b3660046124ee565b6109c3565b61024e610a51565b3480156102a457600080fd5b5061024e610c36565b3480156102b957600080fd5b506101f26102c83660046124ee565b6001600160a01b031660009081526003602052604090205490565b3480156102ef57600080fd5b506101f26102fe3660046124ee565b610c4a565b34801561030f57600080fd5b506101f261031e3660046124ee565b610cda565b34801561032f57600080fd5b506101f261033e3660046124ee565b610ce5565b34801561034f57600080fd5b5061024e61035e366004612509565b610cf0565b34801561036f57600080fd5b506001546001600160a01b03165b6040516001600160a01b0390911681526020016101fc565b61024e610fe5565b3480156103a957600080fd5b5061024e6103b8366004612509565b61102a565b3480156103c957600080fd5b506101f26103d83660046124ee565b6114f5565b3480156103e957600080fd5b5061037d60008051602061262083398151915281565b34801561040b57600080fd5b5061024e61041a366004612522565b611548565b34801561042b57600080fd5b5061024e61043a366004612509565b6116b4565b34801561044b57600080fd5b506101f260085481565b34801561046157600080fd5b506101f26104703660046124ee565b6001600160a01b031660009081526006602052604090205490565b34801561049757600080fd5b5060056101f2565b3480156104ab57600080fd5b506104d66104ba3660046124ee565b6001600160a01b03166000805160206126208339815191521490565b60405190151581526020016101fc565b3480156104f257600080fd5b5061024e6105013660046124ee565b611a0c565b34801561051257600080fd5b506104d66105213660046124ee565b611a47565b34801561053257600080fd5b506101f26105413660046124ee565b6001600160a01b031660009081526002602052604090205490565b34801561056857600080fd5b506101f26105773660046124ee565b611ac5565b60008051602061262083398151915281806000036105ad5760405163cb1d3f7d60e01b815260040160405180910390fd5b6105b5611b2e565b3360008181526002602052604090819020549051631cc0af0360e11b81526001600160a01b037f000000000000000000000000000000000000000000000000000000000000000016926339815e06926106139260019060040161254c565b600060405180830381600087803b15801561062d57600080fd5b505af1158015610641573d6000803e3d6000fd5b50506040516323b872dd60e01b8152336004820152306024820152604481018690526000925060008051602061262083398151915291506323b872dd906064016020604051808303816000875af11580156106a0573d6000803e3d6000fd5b505050506040513d601f19601f820116820180604052508101906106c4919061256f565b9050806106e457604051634dc34d1760e01b815260040160405180910390fd5b33600090815260026020526040812080548692906107039084906125a7565b92505081905550836008600082825461071c91906125a7565b909155505060405184815233907f66cef183dbc45fd6ab6c6cfd4ada8f7b1780d070873ce30723107d9f644ec6609060200160405180910390a2506107616001600055565b505050565b80806000036107885760405163cb1d3f7d60e01b815260040160405180910390fd5b610790611b2e565b33600090815260036020526040902054828110156108085760405162461bcd60e51b815260206004820152602a60248201527f20416d6f756e74206578636565647320746f74616c20636f6c6c61746572616c6044820152690819195c1bdcda5d195960b21b60648201526084015b60405180910390fd5b600061081484836125ba565b9050600061082133611b58565b9050600061082e83611c14565b905061083a8183611c64565b6108865760405162461bcd60e51b815260206004820152601d60248201527f436f6c6c61746572616c207468726573686f6c6420627265616368656400000060448201526064016107ff565b336000818152600360205260409081902085905551633d6fe0dd60e21b81526004810191909152602481018790526001600160a01b037f0000000000000000000000000000000000000000000000000000000000000000169063f5bf837490604401600060405180830381600087803b15801561090257600080fd5b505af1158015610916573d6000803e3d6000fd5b50506040516000925033915088908381818185875af1925050503d806000811461095c576040519150601f19603f3d011682016040523d82523d6000602084013e610961565b606091505b505090508061098357604051634dc34d1760e01b815260040160405180910390fd5b604051879033907fc30fcfbcaac9e0deffa719714eaa82396ff506a0d0d0eebe170830177288715d90600090a350505050506109bf6001600055565b5050565b6001600160a01b038116600090815260076020526040812054610a285760405162461bcd60e51b815260206004820152601a60248201527f5573657220686173206e6f74206465706f73697465642079657400000000000060448201526064016107ff565b6001600160a01b038216600090815260076020526040902054610a4b90426125ba565b92915050565b3480600003610a735760405163cb1d3f7d60e01b815260040160405180910390fd5b610a7b611b2e565b3360009081526003602052604090205415610b1f5733600081815260036020526040808220549051631cc0af0360e11b81526001600160a01b037f000000000000000000000000000000000000000000000000000000000000000016936339815e0693610aec93919260040161254c565b600060405180830381600087803b158015610b0657600080fd5b505af1158015610b1a573d6000803e3d6000fd5b505050505b336000908152600760205260408120549003610b48573360009081526007602052604090204290555b3360009081526003602052604081205490610b6334836125a7565b336000818152600360205260409081902083905551633d6fe0dd60e21b81526004810191909152602481018290529091506001600160a01b037f0000000000000000000000000000000000000000000000000000000000000000169063f5bf837490604401600060405180830381600087803b158015610be257600080fd5b505af1158015610bf6573d6000803e3d6000fd5b50506040513492503391507fd7243f6f8212d5188fd054141cf6ea89cfc0d91facb8c3afe2f88a135848014290600090a35050610c336001600055565b50565b610c3e611c9a565b610c486000611cc7565b565b6040516302c68be360e31b81526001600160a01b0382811660048301526000917f0000000000000000000000000000000000000000000000000000000000000000909116906316345f18906024015b602060405180830381865afa158015610cb6573d6000803e3d6000fd5b505050506040513d601f19601f82011682018060405250810190610a4b91906125cd565b6000610a4b82611d19565b6000610a4b82611df5565b6000805160206126208339815191528180600003610d215760405163cb1d3f7d60e01b815260040160405180910390fd5b610d29611b2e565b3360008181526002602052604090819020549051631cc0af0360e11b81526001600160a01b037f000000000000000000000000000000000000000000000000000000000000000016926339815e0692610d879260019060040161254c565b600060405180830381600087803b158015610da157600080fd5b505af1158015610db5573d6000803e3d6000fd5b505060405163b89a495b60e01b8152336004820152600092507f00000000000000000000000000000000000000000000000000000000000000006001600160a01b0316915063b89a495b90602401602060405180830381865afa158015610e20573d6000803e3d6000fd5b505050506040513d601f19601f82011682018060405250810190610e4491906125cd565b9050600060008051602061262083398151915263a9059cbb33610e6785896125a7565b6040516001600160e01b031960e085901b1681526001600160a01b03909216600483015260248201526044016020604051808303816000875af1158015610eb2573d6000803e3d6000fd5b505050506040513d601f19601f82011682018060405250810190610ed6919061256f565b905080610ef657604051634dc34d1760e01b815260040160405180910390fd5b3360009081526002602052604081208054879290610f159084906125ba565b925050819055508460086000828254610f2e91906125ba565b90915550506040516323d0aab160e01b81523360048201527f00000000000000000000000000000000000000000000000000000000000000006001600160a01b0316906323d0aab190602401600060405180830381600087803b158015610f9457600080fd5b505af1158015610fa8573d6000803e3d6000fd5b50506040518792503391507f13f1180d41ad6611b3b08bbafa35e4540fdd948fe7ada6fa37137e3e46cbb77290600090a350506107616001600055565b34806000036110075760405163cb1d3f7d60e01b815260040160405180910390fd5b61100f611b2e565b611017610a51565b611020346116b4565b610c336001600055565b808060000361104c5760405163cb1d3f7d60e01b815260040160405180910390fd5b611054611b2e565b600080516020612620833981519152336000908152600460205260409020548311156110c25760405162461bcd60e51b815260206004820152601960248201527f526570617920616d6f756e74206578636565647320646562740000000000000060448201526064016107ff565b60405163b89a495b60e01b81523360048201526000907f00000000000000000000000000000000000000000000000000000000000000006001600160a01b03169063b89a495b90602401602060405180830381865afa158015611129573d6000803e3d6000fd5b505050506040513d601f19601f8201168201806040525081019061114d91906125cd565b3360009081526004602052604081205491925061116a83836125a7565b9050600081116111b25760405162461bcd60e51b8152602060048201526013602482015272139bc81bdd5d1cdd185b991a5b99c81919589d606a1b60448201526064016107ff565b336000818152600460208190526040808320549051631cc0af0360e11b81526001600160a01b037f000000000000000000000000000000000000000000000000000000000000000016946339815e06946112119491939290910161254c565b600060405180830381600087803b15801561122b57600080fd5b505af115801561123f573d6000803e3d6000fd5b50506040516323b872dd60e01b8152336004820152306024820152604481018990526000925060008051602061262083398151915291506323b872dd906064016020604051808303816000875af115801561129e573d6000803e3d6000fd5b505050506040513d601f19601f820116820180604052508101906112c2919061256f565b9050806112e257604051630780770360e11b815260040160405180910390fd5b33600090815260046020526040812080548992906113019084906125ba565b92505081905550866008600082825461131a91906125a7565b90915550503360009081526004602052604081205490036113af576040516323d0aab160e01b81523360048201527f00000000000000000000000000000000000000000000000000000000000000006001600160a01b0316906323d0aab190602401600060405180830381600087803b15801561139657600080fd5b505af11580156113aa573d6000803e3d6000fd5b505050505b3360008181526003602052604090819020549051633d6fe0dd60e21b8152600481019290925260248201527f00000000000000000000000000000000000000000000000000000000000000006001600160a01b03169063f5bf837490604401600060405180830381600087803b15801561142857600080fd5b505af115801561143c573d6000803e3d6000fd5b50506040516323d0aab160e01b81523360048201527f00000000000000000000000000000000000000000000000000000000000000006001600160a01b031692506323d0aab19150602401600060405180830381600087803b1580156114a157600080fd5b505af11580156114b5573d6000803e3d6000fd5b50506040518992503391507fc200a1f31dd659e356e0f112c82558e25f49f7b0f84438691cd96f5cb355882390600090a350505050506109bf6001600055565b60405163b89a495b60e01b81526001600160a01b0382811660048301526000917f00000000000000000000000000000000000000000000000000000000000000009091169063b89a495b90602401610c99565b611550611b2e565b60008051602061262083398151915281806000036115815760405163cb1d3f7d60e01b815260040160405180910390fd5b6001600160a01b0384166000908152600460205260409020546115dd5760405162461bcd60e51b8152602060048201526014602482015273109bdc9c9bddd95c881a185cc81b9bc81919589d60621b60448201526064016107ff565b60008311801561160557506001600160a01b0384166000908152600460205260409020548311155b6116485760405162461bcd60e51b8152602060048201526014602482015273125b9d985b1a59081c995c185e48185b5bdd5b9d60621b60448201526064016107ff565b60006116548585611e80565b9050611661858583612063565b60408051858152602081018390526001600160a01b0387169133917f4ecae3269f800df64b16cb9f6f8b0b507018888521d1cff0841823e44bc0b00d910160405180910390a35050506109bf6001600055565b80806000036116d65760405163cb1d3f7d60e01b815260040160405180910390fd5b6116de611b2e565b336000818152600460208190526040808320549051631cc0af0360e11b8152600080516020612620833981519152947f00000000000000000000000000000000000000000000000000000000000000006001600160a01b0316946339815e069461174a9492930161254c565b600060405180830381600087803b15801561176457600080fd5b505af1158015611778573d6000803e3d6000fd5b5050604051634bc8272160e11b8152336004820152600092507f00000000000000000000000000000000000000000000000000000000000000006001600160a01b031691506397904e4290602401602060405180830381865afa1580156117e3573d6000803e3d6000fd5b505050506040513d601f19601f8201168201806040525081019061180791906125cd565b9050600060646118186096876125e6565b61182291906125fd565b90508181111561186c5760405162461bcd60e51b8152602060048201526015602482015274139bdd08195b9bdd59da0818dbdb1b185d195c985b605a1b60448201526064016107ff565b336000908152600460205260408120805487929061188b9084906125a7565b909155505060405163a9059cbb60e01b8152336004820152602481018690526000906000805160206126208339815191529063a9059cbb906044016020604051808303816000875af11580156118e5573d6000803e3d6000fd5b505050506040513d601f19601f82011682018060405250810190611909919061256f565b9050806119295760405163116be6cb60e21b815260040160405180910390fd5b3360008181526003602052604090819020549051633d6fe0dd60e21b8152600481019290925260248201527f00000000000000000000000000000000000000000000000000000000000000006001600160a01b03169063f5bf837490604401600060405180830381600087803b1580156119a257600080fd5b505af11580156119b6573d6000803e3d6000fd5b5050505085600860008282546119cc91906125ba565b9091555050604051869033907f55ca543acfe189813a500eaff658acafb5d2345c0db5314154e00ac8c9d3b91f90600090a3505050506109bf6001600055565b611a14611c9a565b6001600160a01b038116611a3e57604051631e4fbdf760e01b8152600060048201526024016107ff565b610c3381611cc7565b604051633f9af35f60e21b81526001600160a01b03821660048201526000908190309063fe6bcd7c90602401602060405180830381865afa158015611a90573d6000803e3d6000fd5b505050506040513d601f19601f82011682018060405250810190611ab491906125cd565b670de0b6b3a7640000119392505050565b600080611ad183611df5565b90506000611ade84611d19565b905080600003611af357506000199392505050565b611afe8160646125e6565b6096611b12670de0b6b3a7640000856125e6565b611b1c91906125e6565b611b2691906125fd565b949350505050565b600260005403611b5157604051633ee5aeb560e01b815260040160405180910390fd5b6002600055565b6001600160a01b0381811660009081526004602081905260408083205490516351c8572160e11b8152600080516020612620833981519152928101929092526024820181905291927f0000000000000000000000000000000000000000000000000000000000000000169063a390ae4290604401602060405180830381865afa158015611be9573d6000803e3d6000fd5b505050506040513d601f19601f82011682018060405250810190611c0d91906125cd565b9392505050565b604051630d82fdc960e11b8152600481018290526000907f00000000000000000000000000000000000000000000000000000000000000006001600160a01b031690631b05fb9290602401610c99565b600081600003611c7657506001610a4b565b600082611c848560646125e6565b611c8e91906125fd565b60961115949350505050565b6001546001600160a01b03163314610c485760405163118cdaa760e01b81523360048201526024016107ff565b600180546001600160a01b038381166001600160a01b0319831681179093556040519116919082907f8be0079c531659141344cd1fd0a4f28419497f9722a3daafe3b4186f6b6457e090600090a35050565b6001600160a01b0381811660009081526004602081905260408083205490516302c68be360e31b815260008051602061262083398151915292810192909252919283917f0000000000000000000000000000000000000000000000000000000000000000909116906316345f1890602401602060405180830381865afa158015611da7573d6000803e3d6000fd5b505050506040513d601f19601f82011682018060405250810190611dcb91906125cd565b90506000670de0b6b3a7640000611de283856125e6565b611dec91906125fd565b95945050505050565b60008060036000846001600160a01b03166001600160a01b0316815260200190815260200160002054905060007f00000000000000000000000000000000000000000000000000000000000000006001600160a01b031663a625d21d6040518163ffffffff1660e01b8152600401602060405180830381865afa158015611da7573d6000803e3d6000fd5b6040516351c8572160e11b8152600080516020612620833981519152600482015260248101829052600090600a9082907f00000000000000000000000000000000000000000000000000000000000000006001600160a01b03169063a390ae4290604401602060405180830381865afa158015611f01573d6000803e3d6000fd5b505050506040513d601f19601f82011682018060405250810190611f2591906125cd565b905060006064611f3584826125a7565b611f3f90846125e6565b611f4991906125fd565b905060007f00000000000000000000000000000000000000000000000000000000000000006001600160a01b031663a625d21d6040518163ffffffff1660e01b8152600401602060405180830381865afa158015611fab573d6000803e3d6000fd5b505050506040513d601f19601f82011682018060405250810190611fcf91906125cd565b905080611fe483670de0b6b3a76400006125e6565b611fee91906125fd565b6001600160a01b0388166000908152600360205260409020549095508211156120595760405162461bcd60e51b815260206004820152601e60248201527f4e6f7420656e6f75676820636f6c6c61746572616c20746f207365697a65000060448201526064016107ff565b5050505092915050565b61206c8361245d565b6120b85760405162461bcd60e51b815260206004820152601d60248201527f55736572206973206e6f7420756e646572636f6c6c61746572697a656400000060448201526064016107ff565b6001600160a01b0383166000908152600360205260409020548111156121185760405162461bcd60e51b8152602060048201526015602482015274139bdd08115b9bdd59da0818dbdb1b185d195c985b605a1b60448201526064016107ff565b6001600160a01b038381166000908152600460208190526040808320549051631cc0af0360e11b81527f0000000000000000000000000000000000000000000000000000000000000000909416936339815e0693612179938993920161254c565b600060405180830381600087803b15801561219357600080fd5b505af11580156121a7573d6000803e3d6000fd5b50506040516323b872dd60e01b8152336004820152306024820152604481018590526000925060008051602061262083398151915291506323b872dd906064016020604051808303816000875af1158015612206573d6000803e3d6000fd5b505050506040513d601f19601f8201168201806040525081019061222a919061256f565b90508061224a5760405163255a46f960e11b815260040160405180910390fd5b6001600160a01b038416600090815260046020526040812080548592906122729084906125ba565b90915550506001600160a01b0384166000908152600360205260408120805484929061229f9084906125ba565b9250508190555082600860008282546122b891906125a7565b90915550506001600160a01b0384166000908152600460205260408120549003612358576040516323d0aab160e01b81526001600160a01b0385811660048301527f000000000000000000000000000000000000000000000000000000000000000016906323d0aab190602401600060405180830381600087803b15801561233f57600080fd5b505af1158015612353573d6000803e3d6000fd5b505050505b6001600160a01b0384811660008181526003602052604090819020549051633d6fe0dd60e21b8152600481019290925260248201527f00000000000000000000000000000000000000000000000000000000000000009091169063f5bf837490604401600060405180830381600087803b1580156123d557600080fd5b505af11580156123e9573d6000803e3d6000fd5b50506040516000925033915084908381818185875af1925050503d806000811461242f576040519150601f19603f3d011682016040523d82523d6000602084013e612434565b606091505b50509050806124565760405163255a46f960e11b815260040160405180910390fd5b5050505050565b60008061246983611df5565b9050600061247684611d19565b90508060000361248a575060009392505050565b60006124978260646125e6565b60966124ab670de0b6b3a7640000866125e6565b6124b591906125e6565b6124bf91906125fd565b670de0b6b3a76400001195945050505050565b80356001600160a01b03811681146124e957600080fd5b919050565b60006020828403121561250057600080fd5b611c0d826124d2565b60006020828403121561251b57600080fd5b5035919050565b6000806040838503121561253557600080fd5b61253e836124d2565b946020939093013593505050565b6001600160a01b0393909316835260208301919091521515604082015260600190565b60006020828403121561258157600080fd5b81518015158114611c0d57600080fd5b634e487b7160e01b600052601160045260246000fd5b80820180821115610a4b57610a4b612591565b81810381811115610a4b57610a4b612591565b6000602082840312156125df57600080fd5b5051919050565b8082028115828204841417610a4b57610a4b612591565b60008261261a57634e487b7160e01b600052601260045260246000fd5b50049056fe00000000000000000000000076efc6b7adac502dc210f255ea8420672c1355d3a2646970667358221220524e2399fc5b6c162af2d2357ec059b75116656d37e3b49badcb4aced711650e64736f6c63430008140033",
  "linkReferences": {},
  "deployedLinkReferences": {}
}