{
  "_format": "hh-sol-artifact-1",
  "contractName": "DSCEngine",
  "sourceName": "contracts/DSCEngine.sol",
  "abi": [
    {
      "inputs": [
        {
          "internalType": "address",
          "name": "priceOracleAddress",
          "type": "address"
        },
        {
          "internalType": "address",
          "name": "dsctokenAddress",
          "type": "address"
        },
        {
          "internalType": "address",
          "name": "InterestRateModelAddress",
          "type": "address"
        },
        {
          "internalType": "address",
          "name": "usdcAddress",
          "type": "address"
        },
        {
          "internalType": "address",
          "name": "usdtAddress",
          "type": "address"
        }
      ],
      "stateMutability": "nonpayable",
      "type": "constructor"
    },
    {
      "inputs": [],
      "name": "DSCEngine__LiquidationFailed",
      "type": "error"
    },
    {
      "inputs": [],
      "name": "DSCEngine__LoanRepaymentFailed",
      "type": "error"
    },
    {
      "inputs": [],
      "name": "DSCEngine__Mintfailed",
      "type": "error"
    },
    {
      "inputs": [],
      "name": "DSCEngine__NeedsMoreThanZero",
      "type": "error"
    },
    {
      "inputs": [],
      "name": "DSCEngine__NotAllowedCollateral",
      "type": "error"
    },
    {
      "inputs": [],
      "name": "DSCEngine__NotAllowedToken",
      "type": "error"
    },
    {
      "inputs": [],
      "name": "DSCEngine__StablecoinBorrowFailed",
      "type": "error"
    },
    {
      "inputs": [],
      "name": "DSCEngine__TokenBurnFailed",
      "type": "error"
    },
    {
      "inputs": [],
      "name": "DSCEngine__TokenToMintExceedsDepositedStablecoin",
      "type": "error"
    },
    {
      "inputs": [],
      "name": "DSCEngine__TransferFailed",
      "type": "error"
    },
    {
      "inputs": [],
      "name": "DSCEngine__WithdrawCollateralFailed",
      "type": "error"
    },
    {
      "inputs": [
        {
          "internalType": "address",
          "name": "owner",
          "type": "address"
        }
      ],
      "name": "OwnableInvalidOwner",
      "type": "error"
    },
    {
      "inputs": [
        {
          "internalType": "address",
          "name": "account",
          "type": "address"
        }
      ],
      "name": "OwnableUnauthorizedAccount",
      "type": "error"
    },
    {
      "inputs": [],
      "name": "ReentrancyGuardReentrantCall",
      "type": "error"
    },
    {
      "anonymous": false,
      "inputs": [
        {
          "indexed": true,
          "internalType": "address",
          "name": "from",
          "type": "address"
        },
        {
          "indexed": true,
          "internalType": "uint256",
          "name": "amount",
          "type": "uint256"
        }
      ],
      "name": "CollateralDeposited",
      "type": "event"
    },
    {
      "anonymous": false,
      "inputs": [
        {
          "indexed": true,
          "internalType": "address",
          "name": "from",
          "type": "address"
        },
        {
          "indexed": true,
          "internalType": "uint256",
          "name": "amount",
          "type": "uint256"
        }
      ],
      "name": "CollateralWithdrawn",
      "type": "event"
    },
    {
      "anonymous": false,
      "inputs": [
        {
          "indexed": true,
          "internalType": "address",
          "name": "liquidator",
          "type": "address"
        },
        {
          "indexed": true,
          "internalType": "address",
          "name": "borrower",
          "type": "address"
        },
        {
          "indexed": true,
          "internalType": "address",
          "name": "debtToken",
          "type": "address"
        },
        {
          "indexed": false,
          "internalType": "uint256",
          "name": "debtAmount",
          "type": "uint256"
        },
        {
          "indexed": false,
          "internalType": "uint256",
          "name": "collateralSeized",
          "type": "uint256"
        }
      ],
      "name": "Liquidation",
      "type": "event"
    },
    {
      "anonymous": false,
      "inputs": [
        {
          "indexed": true,
          "internalType": "address",
          "name": "from",
          "type": "address"
        },
        {
          "indexed": true,
          "internalType": "address",
          "name": "token",
          "type": "address"
        },
        {
          "indexed": true,
          "internalType": "uint256",
          "name": "amount",
          "type": "uint256"
        }
      ],
      "name": "LoanRepaid",
      "type": "event"
    },
    {
      "anonymous": false,
      "inputs": [
        {
          "indexed": true,
          "internalType": "address",
          "name": "previousOwner",
          "type": "address"
        },
        {
          "indexed": true,
          "internalType": "address",
          "name": "newOwner",
          "type": "address"
        }
      ],
      "name": "OwnershipTransferred",
      "type": "event"
    },
    {
      "anonymous": false,
      "inputs": [
        {
          "indexed": true,
          "internalType": "address",
          "name": "from",
          "type": "address"
        },
        {
          "indexed": true,
          "internalType": "address",
          "name": "token",
          "type": "address"
        },
        {
          "indexed": false,
          "internalType": "uint256",
          "name": "amount",
          "type": "uint256"
        }
      ],
      "name": "StableCoinDeposited",
      "type": "event"
    },
    {
      "anonymous": false,
      "inputs": [
        {
          "indexed": true,
          "internalType": "address",
          "name": "from",
          "type": "address"
        },
        {
          "indexed": true,
          "internalType": "address",
          "name": "token",
          "type": "address"
        },
        {
          "indexed": true,
          "internalType": "uint256",
          "name": "amount",
          "type": "uint256"
        }
      ],
      "name": "StableCoinWithdrawed",
      "type": "event"
    },
    {
      "anonymous": false,
      "inputs": [
        {
          "indexed": true,
          "internalType": "address",
          "name": "from",
          "type": "address"
        },
        {
          "indexed": true,
          "internalType": "address",
          "name": "token",
          "type": "address"
        },
        {
          "indexed": true,
          "internalType": "uint256",
          "name": "amount",
          "type": "uint256"
        }
      ],
      "name": "StablecoinBorrowed",
      "type": "event"
    },
    {
      "anonymous": false,
      "inputs": [
        {
          "indexed": true,
          "internalType": "address",
          "name": "to",
          "type": "address"
        },
        {
          "indexed": true,
          "internalType": "uint256",
          "name": "amount",
          "type": "uint256"
        }
      ],
      "name": "tokenMinted",
      "type": "event"
    },
    {
      "inputs": [],
      "name": "USDC_ADDRESS",
      "outputs": [
        {
          "internalType": "address",
          "name": "",
          "type": "address"
        }
      ],
      "stateMutability": "view",
      "type": "function"
    },
    {
      "inputs": [],
      "name": "USDT_ADDRESS",
      "outputs": [
        {
          "internalType": "address",
          "name": "",
          "type": "address"
        }
      ],
      "stateMutability": "view",
      "type": "function"
    },
    {
      "inputs": [
        {
          "internalType": "address",
          "name": "tokenAddress",
          "type": "address"
        },
        {
          "internalType": "uint256",
          "name": "stablecoinAmount",
          "type": "uint256"
        }
      ],
      "name": "borrowStableCoins",
      "outputs": [],
      "stateMutability": "nonpayable",
      "type": "function"
    },
    {
      "inputs": [
        {
          "internalType": "uint256",
          "name": "amountTokenToBurn",
          "type": "uint256"
        }
      ],
      "name": "burn",
      "outputs": [],
      "stateMutability": "nonpayable",
      "type": "function"
    },
    {
      "inputs": [
        {
          "internalType": "address",
          "name": "user",
          "type": "address"
        }
      ],
      "name": "canUserBeLiquidated",
      "outputs": [
        {
          "internalType": "bool",
          "name": "",
          "type": "bool"
        }
      ],
      "stateMutability": "view",
      "type": "function"
    },
    {
      "inputs": [],
      "name": "depositCollateral",
      "outputs": [],
      "stateMutability": "payable",
      "type": "function"
    },
    {
      "inputs": [
        {
          "internalType": "address",
          "name": "tokenAddress",
          "type": "address"
        }
      ],
      "name": "depositCollateralAndBorrowStablecoin",
      "outputs": [],
      "stateMutability": "payable",
      "type": "function"
    },
    {
      "inputs": [
        {
          "internalType": "address",
          "name": "tokenAddress",
          "type": "address"
        },
        {
          "internalType": "uint256",
          "name": "amountStableCoin",
          "type": "uint256"
        }
      ],
      "name": "depositStableCoins",
      "outputs": [],
      "stateMutability": "nonpayable",
      "type": "function"
    },
    {
      "inputs": [
        {
          "internalType": "address",
          "name": "tokenAddress",
          "type": "address"
        },
        {
          "internalType": "uint256",
          "name": "amountStableCoin",
          "type": "uint256"
        }
      ],
      "name": "depositStableCoinsAndMintToken",
      "outputs": [],
      "stateMutability": "nonpayable",
      "type": "function"
    },
    {
      "inputs": [
        {
          "internalType": "address",
          "name": "user",
          "type": "address"
        }
      ],
      "name": "getAccuredInterest",
      "outputs": [
        {
          "internalType": "uint256",
          "name": "",
          "type": "uint256"
        }
      ],
      "stateMutability": "view",
      "type": "function"
    },
    {
      "inputs": [
        {
          "internalType": "address",
          "name": "user",
          "type": "address"
        }
      ],
      "name": "getCollateralDepositBalance",
      "outputs": [
        {
          "internalType": "uint256",
          "name": "",
          "type": "uint256"
        }
      ],
      "stateMutability": "view",
      "type": "function"
    },
    {
      "inputs": [],
      "name": "getCollateralThreshold",
      "outputs": [
        {
          "internalType": "uint256",
          "name": "",
          "type": "uint256"
        }
      ],
      "stateMutability": "pure",
      "type": "function"
    },
    {
      "inputs": [
        {
          "internalType": "address",
          "name": "user",
          "type": "address"
        },
        {
          "internalType": "address",
          "name": "tokenAddress",
          "type": "address"
        }
      ],
      "name": "getDebtBalance",
      "outputs": [
        {
          "internalType": "uint256",
          "name": "",
          "type": "uint256"
        }
      ],
      "stateMutability": "view",
      "type": "function"
    },
    {
      "inputs": [
        {
          "internalType": "address",
          "name": "user",
          "type": "address"
        }
      ],
      "name": "getHealthFactor",
      "outputs": [
        {
          "internalType": "uint256",
          "name": "",
          "type": "uint256"
        }
      ],
      "stateMutability": "view",
      "type": "function"
    },
    {
      "inputs": [],
      "name": "getInterest",
      "outputs": [
        {
          "internalType": "uint256",
          "name": "",
          "type": "uint256"
        }
      ],
      "stateMutability": "pure",
      "type": "function"
    },
    {
      "inputs": [
        {
          "internalType": "address",
          "name": "user",
          "type": "address"
        }
      ],
      "name": "getMintedLendingToken",
      "outputs": [
        {
          "internalType": "uint256",
          "name": "",
          "type": "uint256"
        }
      ],
      "stateMutability": "view",
      "type": "function"
    },
    {
      "inputs": [
        {
          "internalType": "address",
          "name": "user",
          "type": "address"
        },
        {
          "internalType": "address",
          "name": "token",
          "type": "address"
        }
      ],
      "name": "getStableCoinBalance",
      "outputs": [
        {
          "internalType": "uint256",
          "name": "",
          "type": "uint256"
        }
      ],
      "stateMutability": "view",
      "type": "function"
    },
    {
      "inputs": [
        {
          "internalType": "address",
          "name": "tokenAddress",
          "type": "address"
        }
      ],
      "name": "getTokenPriceInUsd",
      "outputs": [
        {
          "internalType": "uint256",
          "name": "",
          "type": "uint256"
        }
      ],
      "stateMutability": "view",
      "type": "function"
    },
    {
      "inputs": [],
      "name": "getTotalStablecoinSupply",
      "outputs": [
        {
          "internalType": "uint256",
          "name": "",
          "type": "uint256"
        }
      ],
      "stateMutability": "view",
      "type": "function"
    },
    {
      "inputs": [
        {
          "internalType": "address",
          "name": "user",
          "type": "address"
        }
      ],
      "name": "getUserCollateralValueInUsd",
      "outputs": [
        {
          "internalType": "uint256",
          "name": "",
          "type": "uint256"
        }
      ],
      "stateMutability": "view",
      "type": "function"
    },
    {
      "inputs": [
        {
          "internalType": "address",
          "name": "user",
          "type": "address"
        }
      ],
      "name": "getUserTotalDebtInUsd",
      "outputs": [
        {
          "internalType": "uint256",
          "name": "",
          "type": "uint256"
        }
      ],
      "stateMutability": "view",
      "type": "function"
    },
    {
      "inputs": [
        {
          "internalType": "address",
          "name": "stablecoin",
          "type": "address"
        }
      ],
      "name": "isStablecoinValid",
      "outputs": [
        {
          "internalType": "bool",
          "name": "",
          "type": "bool"
        }
      ],
      "stateMutability": "view",
      "type": "function"
    },
    {
      "inputs": [
        {
          "internalType": "address",
          "name": "_borrower",
          "type": "address"
        },
        {
          "internalType": "address",
          "name": "tokenAddress",
          "type": "address"
        },
        {
          "internalType": "uint256",
          "name": "repayAmount",
          "type": "uint256"
        }
      ],
      "name": "liquidate",
      "outputs": [],
      "stateMutability": "nonpayable",
      "type": "function"
    },
    {
      "inputs": [
        {
          "internalType": "uint256",
          "name": "amountTokenToMint",
          "type": "uint256"
        }
      ],
      "name": "mintLendingToken",
      "outputs": [],
      "stateMutability": "nonpayable",
      "type": "function"
    },
    {
      "inputs": [],
      "name": "owner",
      "outputs": [
        {
          "internalType": "address",
          "name": "",
          "type": "address"
        }
      ],
      "stateMutability": "view",
      "type": "function"
    },
    {
      "inputs": [],
      "name": "renounceOwnership",
      "outputs": [],
      "stateMutability": "nonpayable",
      "type": "function"
    },
    {
      "inputs": [
        {
          "internalType": "address",
          "name": "tokenAddress",
          "type": "address"
        },
        {
          "internalType": "uint256",
          "name": "stablecoinAmountToRepay",
          "type": "uint256"
        }
      ],
      "name": "repayLoan",
      "outputs": [],
      "stateMutability": "nonpayable",
      "type": "function"
    },
    {
      "inputs": [],
      "name": "s_totalStablecoin",
      "outputs": [
        {
          "internalType": "uint256",
          "name": "",
          "type": "uint256"
        }
      ],
      "stateMutability": "view",
      "type": "function"
    },
    {
      "inputs": [
        {
          "internalType": "address",
          "name": "user",
          "type": "address"
        }
      ],
      "name": "totalTimePassed",
      "outputs": [
        {
          "internalType": "uint256",
          "name": "",
          "type": "uint256"
        }
      ],
      "stateMutability": "view",
      "type": "function"
    },
    {
      "inputs": [
        {
          "internalType": "address",
          "name": "newOwner",
          "type": "address"
        }
      ],
      "name": "transferOwnership",
      "outputs": [],
      "stateMutability": "nonpayable",
      "type": "function"
    },
    {
      "inputs": [
        {
          "internalType": "address",
          "name": "tokenAddress",
          "type": "address"
        },
        {
          "internalType": "uint256",
          "name": "amountToWithdraw",
          "type": "uint256"
        }
      ],
      "name": "withdrawCollateral",
      "outputs": [],
      "stateMutability": "nonpayable",
      "type": "function"
    },
    {
      "inputs": [
        {
          "internalType": "address",
          "name": "tokenAddress",
          "type": "address"
        },
        {
          "internalType": "uint256",
          "name": "amountStableCoin",
          "type": "uint256"
        }
      ],
      "name": "withdrawStableCoin",
      "outputs": [],
      "stateMutability": "nonpayable",
      "type": "function"
    },
    {
      "inputs": [
        {
          "internalType": "address",
          "name": "tokenAddress",
          "type": "address"
        },
        {
          "internalType": "uint256",
          "name": "amountStableCoin",
          "type": "uint256"
        },
        {
          "internalType": "uint256",
          "name": "amountTokenToBurn",
          "type": "uint256"
        }
      ],
      "name": "withdrawStableCoinsAndBurnToken",
      "outputs": [],
      "stateMutability": "nonpayable",
      "type": "function"
    }
  ],
  "bytecode": "0x6101206040523480156200001257600080fd5b506040516200378538038062003785833981016040819052620000359162000106565b600160005533806200006157604051631e4fbdf760e01b81526000600482015260240160405180910390fd5b6200006c8162000097565b506001600160a01b039485166101005292841660c05290831660e05282166080521660a05262000176565b600180546001600160a01b038381166001600160a01b0319831681179093556040519116919082907f8be0079c531659141344cd1fd0a4f28419497f9722a3daafe3b4186f6b6457e090600090a35050565b80516001600160a01b03811681146200010157600080fd5b919050565b600080600080600060a086880312156200011f57600080fd5b6200012a86620000e9565b94506200013a60208701620000e9565b93506200014a60408701620000e9565b92506200015a60608701620000e9565b91506200016a60808701620000e9565b90509295509295909350565b60805160a05160c05160e0516101005161346562000320600039600081816109ec01528181610f8301528181611064015281816112580152818161142501528181611a4b015281816125c10152818161266301528181612ab701528181612bcc01528181612c5d01528181612f3901528181612fe901526130dd015260008181610bf201528181610eb3015281816111d8015281816117100152818161182f015281816119be01528181611ac301528181611c6c01528181611d8e01528181611e0f01528181611f6e015281816128630152612a300152600081816121bc0152818161233601528181612d110152612dc3015260008181610535015281816106dc01528181610b4101528181611152015281816115270152818161163201528181611bb001528181611cdd01528181612149015281816122770152818161241d01528181612ef60152612fbb0152600081816104ce0152818161069f01528181610b0401528181611115015281816114ea015281816115f501528181611b7301528181611ca0015281816120b10152818161224c015281816123e20152612eca01526134656000f3fe6080604052600436106101ee5760003560e01c80638896d7991161010d578063c1892058116100a0578063e60ab8331161006f578063e60ab833146105b7578063ef26475c146105d7578063f2fde38b14610607578063f559056214610627578063fe6bcd7c1461064757600080fd5b8063c189205814610523578063dbafccca14610557578063dd2856d11461056d578063e5a4bed3146105a357600080fd5b8063b89a495b116100dc578063b89a495b1461049c578063bb09d9b7146104bc578063bcdd961a146104f0578063bfd038171461051057600080fd5b80638896d7991461040a5780638da5cb5b1461042a57806393a595f51461045c578063970f29961461047c57600080fd5b806363ad31aa116101855780637d52b682116101545780637d52b6821461038a578063801a2d99146103aa57806380a9012b146103ca57806381679d4e146103ea57600080fd5b806363ad31aa146103175780636f75814014610337578063715018a61461033f57806371ebcf531461035457600080fd5b806342966c68116101c157806342966c68146102885780634469214b146102a85780634fa2b53c146102bd57806358bd5c20146102d157600080fd5b8063173badc9146101f357806326c0130314610226578063350c35e9146102485780633ef071f814610268575b600080fd5b3480156101ff57600080fd5b5061021361020e366004613218565b610667565b6040519081526020015b60405180910390f35b34801561023257600080fd5b5061024661024136600461324b565b610694565b005b34801561025457600080fd5b50610246610263366004613287565b6108af565b34801561027457600080fd5b50610246610283366004613287565b610b01565b34801561029457600080fd5b506102466102a33660046132b1565b610d94565b3480156102b457600080fd5b50600854610213565b3480156102c957600080fd5b506096610213565b3480156102dd57600080fd5b506102136102ec366004613218565b6001600160a01b03918216600090815260046020908152604080832093909416825291909152205490565b34801561032357600080fd5b506102136103323660046132ca565b610dc5565b610246610e4d565b34801561034b57600080fd5b5061024661102e565b34801561036057600080fd5b5061021361036f3660046132ca565b6001600160a01b031660009081526003602052604090205490565b34801561039657600080fd5b506102136103a53660046132ca565b611042565b3480156103b657600080fd5b506102136103c53660046132ca565b6110d2565b3480156103d657600080fd5b506102136103e53660046132ca565b6110dd565b3480156103f657600080fd5b50610246610405366004613287565b6110e8565b34801561041657600080fd5b506102466104253660046132ec565b6114e7565b34801561043657600080fd5b506001546001600160a01b03165b6040516001600160a01b03909116815260200161021d565b34801561046857600080fd5b50610246610477366004613287565b6115c8565b34801561048857600080fd5b50610246610497366004613287565b611b70565b3480156104a857600080fd5b506102136104b73660046132ca565b611c4a565b3480156104c857600080fd5b506104447f000000000000000000000000000000000000000000000000000000000000000081565b3480156104fc57600080fd5b5061024661050b366004613287565b611c9d565b61024661051e3660046132ca565b61202d565b34801561052f57600080fd5b506104447f000000000000000000000000000000000000000000000000000000000000000081565b34801561056357600080fd5b5061021360085481565b34801561057957600080fd5b506102136105883660046132ca565b6001600160a01b031660009081526006602052604090205490565b3480156105af57600080fd5b506005610213565b3480156105c357600080fd5b506102466105d23660046132b1565b612073565b3480156105e357600080fd5b506105f76105f23660046132ca565b6123de565b604051901515815260200161021d565b34801561061357600080fd5b506102466106223660046132ca565b612456565b34801561063357600080fd5b506105f76106423660046132ca565b612491565b34801561065357600080fd5b506102136106623660046132ca565b61250f565b6001600160a01b038083166000908152600260209081526040808320938516835292905220545b92915050565b61069c612578565b817f00000000000000000000000000000000000000000000000000000000000000006001600160a01b0316816001600160a01b03161415801561071157507f00000000000000000000000000000000000000000000000000000000000000006001600160a01b0316816001600160a01b031614155b1561072f5760405163540167df60e11b815260040160405180910390fd5b81806000036107515760405163cb1d3f7d60e01b815260040160405180910390fd5b6001600160a01b038086166000908152600460209081526040808320938816835292905220546107bf5760405162461bcd60e51b8152602060048201526014602482015273109bdc9c9bddd95c881a185cc81b9bc81919589d60621b60448201526064015b60405180910390fd5b6000831180156107f457506001600160a01b038086166000908152600460209081526040808320938816835292905220548311155b6108375760405162461bcd60e51b8152602060048201526014602482015273125b9d985b1a59081c995c185e48185b5bdd5b9d60621b60448201526064016107b6565b60006108448686866125a2565b905061085286868684612778565b60408051858152602081018390526001600160a01b03808816929089169133917fd58706648644be277f6999c826f65f98128c29c6846a892b929a304a7f19e3eb910160405180910390a45050506108aa6001600055565b505050565b80806000036108d15760405163cb1d3f7d60e01b815260040160405180910390fd5b6108d9612578565b336000908152600360205260409020548281101561094c5760405162461bcd60e51b815260206004820152602a60248201527f20416d6f756e74206578636565647320746f74616c20636f6c6c61746572616c6044820152690819195c1bdcda5d195960b21b60648201526084016107b6565b60006109588483613335565b905060006109663387612b92565b9050600061097383612c44565b905061097f8183612c94565b6109cb5760405162461bcd60e51b815260206004820152601d60248201527f436f6c6c61746572616c207468726573686f6c6420627265616368656400000060448201526064016107b6565b336000818152600360205260409081902085905551633d6fe0dd60e21b81527f00000000000000000000000000000000000000000000000000000000000000006001600160a01b03169163f5bf837491610a2a91908a90600401613348565b600060405180830381600087803b158015610a4457600080fd5b505af1158015610a58573d6000803e3d6000fd5b50506040516000925033915088908381818185875af1925050503d8060008114610a9e576040519150601f19603f3d011682016040523d82523d6000602084013e610aa3565b606091505b5050905080610ac557604051634dc34d1760e01b815260040160405180910390fd5b604051879033907fc30fcfbcaac9e0deffa719714eaa82396ff506a0d0d0eebe170830177288715d90600090a350505050506108aa6001600055565b817f00000000000000000000000000000000000000000000000000000000000000006001600160a01b0316816001600160a01b031614158015610b7657507f00000000000000000000000000000000000000000000000000000000000000006001600160a01b0316816001600160a01b031614155b15610b945760405163540167df60e11b815260040160405180910390fd5b8180600003610bb65760405163cb1d3f7d60e01b815260040160405180910390fd5b610bbe612578565b3360008181526002602090815260408083206001600160a01b038981168552925291829020549151631cc0af0360e11b81527f0000000000000000000000000000000000000000000000000000000000000000909116926339815e0692610c2a92600190600401613361565b600060405180830381600087803b158015610c4457600080fd5b505af1158015610c58573d6000803e3d6000fd5b50506040516323b872dd60e01b8152600092506001600160a01b03871691506323b872dd90610c8f90339030908990600401613384565b6020604051808303816000875af1158015610cae573d6000803e3d6000fd5b505050506040513d601f19601f82011682018060405250810190610cd291906133a8565b905080610cf257604051634dc34d1760e01b815260040160405180910390fd5b3360009081526002602090815260408083206001600160a01b038916845290915281208054869290610d259084906133ca565b925050819055508360086000828254610d3e91906133ca565b90915550506040518481526001600160a01b0386169033907fd12462c6581dd948aaec1542f79d92681b1c9d2d0aacdf3f419a583e9a73f5339060200160405180910390a350610d8e6001600055565b50505050565b8080600003610db65760405163cb1d3f7d60e01b815260040160405180910390fd5b610dc1333384612cca565b5050565b6001600160a01b038116600090815260076020526040812054610e2a5760405162461bcd60e51b815260206004820152601a60248201527f5573657220686173206e6f74206465706f73697465642079657400000000000060448201526064016107b6565b6001600160a01b03821660009081526007602052604090205461068e9042613335565b3480600003610e6f5760405163cb1d3f7d60e01b815260040160405180910390fd5b610e77612578565b3360009081526003602052604090205415610f1b5733600081815260036020526040808220549051631cc0af0360e11b81526001600160a01b037f000000000000000000000000000000000000000000000000000000000000000016936339815e0693610ee8939192600401613361565b600060405180830381600087803b158015610f0257600080fd5b505af1158015610f16573d6000803e3d6000fd5b505050505b336000908152600760205260408120549003610f44573360009081526007602052604090204290555b3360009081526003602052604081205490610f5f34836133ca565b336000818152600360205260409081902083905551633d6fe0dd60e21b81529192507f00000000000000000000000000000000000000000000000000000000000000006001600160a01b03169163f5bf837491610fc0918590600401613348565b600060405180830381600087803b158015610fda57600080fd5b505af1158015610fee573d6000803e3d6000fd5b50506040513492503391507fd7243f6f8212d5188fd054141cf6ea89cfc0d91facb8c3afe2f88a135848014290600090a3505061102b6001600055565b50565b611036612e2d565b6110406000612e5a565b565b6040516302c68be360e31b81526001600160a01b0382811660048301526000917f0000000000000000000000000000000000000000000000000000000000000000909116906316345f18906024015b602060405180830381865afa1580156110ae573d6000803e3d6000fd5b505050506040513d601f19601f8201168201806040525081019061068e91906133dd565b600061068e82612eac565b600061068e826130ae565b808060000361110a5760405163cb1d3f7d60e01b815260040160405180910390fd5b611112612578565b827f00000000000000000000000000000000000000000000000000000000000000006001600160a01b0316816001600160a01b03161415801561118757507f00000000000000000000000000000000000000000000000000000000000000006001600160a01b0316816001600160a01b031614155b156111a55760405163540167df60e11b815260040160405180910390fd5b3360008181526004602081815260408084206001600160a01b038a811686529252808420549051631cc0af0360e11b81527f0000000000000000000000000000000000000000000000000000000000000000909216946339815e069461120f949193909101613361565b600060405180830381600087803b15801561122957600080fd5b505af115801561123d573d6000803e3d6000fd5b5050604051634bc8272160e11b8152336004820152600092507f00000000000000000000000000000000000000000000000000000000000000006001600160a01b031691506397904e4290602401602060405180830381865afa1580156112a8573d6000803e3d6000fd5b505050506040513d601f19601f820116820180604052508101906112cc91906133dd565b9050600060646112dd6096876133f6565b6112e7919061340d565b9050818111156113315760405162461bcd60e51b8152602060048201526015602482015274139bdd08195b9bdd59da0818dbdb1b185d195c985b605a1b60448201526064016107b6565b3360009081526004602090815260408083206001600160a01b038a168452909152812080548792906113649084906133ca565b909155505060405163a9059cbb60e01b81526000906001600160a01b0388169063a9059cbb9061139a9033908a90600401613348565b6020604051808303816000875af11580156113b9573d6000803e3d6000fd5b505050506040513d601f19601f820116820180604052508101906113dd91906133a8565b9050806113fd5760405163116be6cb60e21b815260040160405180910390fd5b3360008181526003602052604090819020549051633d6fe0dd60e21b81526001600160a01b037f0000000000000000000000000000000000000000000000000000000000000000169263f5bf83749261145892600401613348565b600060405180830381600087803b15801561147257600080fd5b505af1158015611486573d6000803e3d6000fd5b50505050856008600082825461149c9190613335565b909155505060405186906001600160a01b0389169033907fcee8cf122c4ec1846315f19cc8ed6a57655291c63b0ae7c6d774e3f0df7b58d690600090a4505050506108aa6001600055565b827f00000000000000000000000000000000000000000000000000000000000000006001600160a01b0316816001600160a01b03161415801561155c57507f00000000000000000000000000000000000000000000000000000000000000006001600160a01b0316816001600160a01b031614155b1561157a5760405163540167df60e11b815260040160405180910390fd5b828060000361159c5760405163cb1d3f7d60e01b815260040160405180910390fd5b6115a4612578565b6115ae8585611c9d565b6115b783610d94565b6115c16001600055565b5050505050565b80806000036115ea5760405163cb1d3f7d60e01b815260040160405180910390fd5b6115f2612578565b827f00000000000000000000000000000000000000000000000000000000000000006001600160a01b0316816001600160a01b03161415801561166757507f00000000000000000000000000000000000000000000000000000000000000006001600160a01b0316816001600160a01b031614155b156116855760405163540167df60e11b815260040160405180910390fd5b3360009081526004602090815260408083206001600160a01b03881684529091529020548311156116f85760405162461bcd60e51b815260206004820152601960248201527f526570617920616d6f756e74206578636565647320646562740000000000000060448201526064016107b6565b60405163b89a495b60e01b81523360048201526000907f00000000000000000000000000000000000000000000000000000000000000006001600160a01b03169063b89a495b90602401602060405180830381865afa15801561175f573d6000803e3d6000fd5b505050506040513d601f19601f8201168201806040525081019061178391906133dd565b3360009081526004602090815260408083206001600160a01b038a1684529091528120549192506117b483836133ca565b9050600081116117fc5760405162461bcd60e51b8152602060048201526013602482015272139bc81bdd5d1cdd185b991a5b99c81919589d606a1b60448201526064016107b6565b3360008181526004602081815260408084206001600160a01b038d811686529252808420549051631cc0af0360e11b81527f0000000000000000000000000000000000000000000000000000000000000000909216946339815e0694611866949193909101613361565b600060405180830381600087803b15801561188057600080fd5b505af1158015611894573d6000803e3d6000fd5b50506040516323b872dd60e01b8152600092506001600160a01b038a1691506323b872dd906118cb90339030908c90600401613384565b6020604051808303816000875af11580156118ea573d6000803e3d6000fd5b505050506040513d601f19601f8201168201806040525081019061190e91906133a8565b90508061192e57604051630780770360e11b815260040160405180910390fd5b3360009081526004602090815260408083206001600160a01b038c16845290915281208054899290611961908490613335565b92505081905550866008600082825461197a91906133ca565b90915550503360009081526004602090815260408083206001600160a01b038c1684529091528120549003611a23576040516323d0aab160e01b81523360048201527f00000000000000000000000000000000000000000000000000000000000000006001600160a01b0316906323d0aab190602401600060405180830381600087803b158015611a0a57600080fd5b505af1158015611a1e573d6000803e3d6000fd5b505050505b3360008181526003602052604090819020549051633d6fe0dd60e21b81526001600160a01b037f0000000000000000000000000000000000000000000000000000000000000000169263f5bf837492611a7e92600401613348565b600060405180830381600087803b158015611a9857600080fd5b505af1158015611aac573d6000803e3d6000fd5b50506040516323d0aab160e01b81523360048201527f00000000000000000000000000000000000000000000000000000000000000006001600160a01b031692506323d0aab19150602401600060405180830381600087803b158015611b1157600080fd5b505af1158015611b25573d6000803e3d6000fd5b50506040518992506001600160a01b038b16915033907ffe3c4f4ff6f11a42f9d84f777002ab405a07fc0075a3504d153b0587f61f460e90600090a450505050506108aa6001600055565b817f00000000000000000000000000000000000000000000000000000000000000006001600160a01b0316816001600160a01b031614158015611be557507f00000000000000000000000000000000000000000000000000000000000000006001600160a01b0316816001600160a01b031614155b15611c035760405163540167df60e11b815260040160405180910390fd5b8180600003611c255760405163cb1d3f7d60e01b815260040160405180910390fd5b611c2d612578565b611c378484610b01565b611c4083612073565b610d8e6001600055565b60405163b89a495b60e01b81526001600160a01b0382811660048301526000917f00000000000000000000000000000000000000000000000000000000000000009091169063b89a495b90602401611091565b817f00000000000000000000000000000000000000000000000000000000000000006001600160a01b0316816001600160a01b031614158015611d1257507f00000000000000000000000000000000000000000000000000000000000000006001600160a01b0316816001600160a01b031614155b15611d305760405163540167df60e11b815260040160405180910390fd5b8180600003611d525760405163cb1d3f7d60e01b815260040160405180910390fd5b611d5a612578565b3360008181526002602090815260408083206001600160a01b038981168552925291829020549151631cc0af0360e11b81527f0000000000000000000000000000000000000000000000000000000000000000909116926339815e0692611dc692600190600401613361565b600060405180830381600087803b158015611de057600080fd5b505af1158015611df4573d6000803e3d6000fd5b505060405163b89a495b60e01b8152336004820152600092507f00000000000000000000000000000000000000000000000000000000000000006001600160a01b0316915063b89a495b90602401602060405180830381865afa158015611e5f573d6000803e3d6000fd5b505050506040513d601f19601f82011682018060405250810190611e8391906133dd565b905060006001600160a01b03861663a9059cbb33611ea185896133ca565b6040518363ffffffff1660e01b8152600401611ebe929190613348565b6020604051808303816000875af1158015611edd573d6000803e3d6000fd5b505050506040513d601f19601f82011682018060405250810190611f0191906133a8565b905080611f2157604051634dc34d1760e01b815260040160405180910390fd5b3360009081526002602090815260408083206001600160a01b038a16845290915281208054879290611f54908490613335565b90915550506040516323d0aab160e01b81523360048201527f00000000000000000000000000000000000000000000000000000000000000006001600160a01b0316906323d0aab190602401600060405180830381600087803b158015611fba57600080fd5b505af1158015611fce573d6000803e3d6000fd5b505050508460086000828254611fe49190613335565b909155505060405185906001600160a01b0388169033907f82cb60a50bdd6fcb2d9b10df992f3c07380e4a1beb575a48b73fef8f2494d31f90600090a45050610d8e6001600055565b348060000361204f5760405163cb1d3f7d60e01b815260040160405180910390fd5b612057612578565b61205f610e4d565b61206982346110e8565b610dc16001600055565b80806000036120955760405163cb1d3f7d60e01b815260040160405180910390fd5b61209d612578565b3360008181526002602090815260408083207f00000000000000000000000000000000000000000000000000000000000000006001600160a01b03168452909152902054839081111561212b5760405162461bcd60e51b8152602060048201526016602482015275139bdd081cdd59999a58da595b9d0819195c1bdcda5d60521b60448201526064016107b6565b6001600160a01b0380831660009081526002602090815260408083207f0000000000000000000000000000000000000000000000000000000000000000909416835292905220548111156121ba5760405162461bcd60e51b8152602060048201526016602482015275139bdd081cdd59999a58da595b9d0819195c1bdcda5d60521b60448201526064016107b6565b7f00000000000000000000000000000000000000000000000000000000000000006001600160a01b03166122305760405162461bcd60e51b815260206004820152601860248201527f695f6c746f6b656e206e6f7420696e697469616c697a6564000000000000000060448201526064016107b6565b3360009081526002602090815260408083206001600160a01b037f0000000000000000000000000000000000000000000000000000000000000000811685529252808320547f000000000000000000000000000000000000000000000000000000000000000090921683528220546122a891906133ca565b9050848110156122cb576040516314ca838160e11b815260040160405180910390fd5b33600090815260066020526040812080548792906122ea9084906133ca565b9091555050604051859033907f2d8eb9b9558d4b5ef1d238622692f6156d5822009340e26ab15fac05d64c12f090600090a36040516340c10f1960e01b81526000906001600160a01b037f000000000000000000000000000000000000000000000000000000000000000016906340c10f199061236d9033908a90600401613348565b6020604051808303816000875af115801561238c573d6000803e3d6000fd5b505050506040513d601f19601f820116820180604052508101906123b091906133a8565b9050806123d05760405163f07fe0c360e01b815260040160405180910390fd5b50505050610dc16001600055565b60007f00000000000000000000000000000000000000000000000000000000000000006001600160a01b0316826001600160a01b0316148061068e57507f00000000000000000000000000000000000000000000000000000000000000006001600160a01b0316826001600160a01b03161492915050565b61245e612e2d565b6001600160a01b03811661248857604051631e4fbdf760e01b8152600060048201526024016107b6565b61102b81612e5a565b604051633f9af35f60e21b81526001600160a01b03821660048201526000908190309063fe6bcd7c90602401602060405180830381865afa1580156124da573d6000803e3d6000fd5b505050506040513d601f19601f820116820180604052508101906124fe91906133dd565b670de0b6b3a7640000119392505050565b60008061251b836130ae565b9050600061252884612eac565b90508060000361253d57506000199392505050565b6125488160646133f6565b609661255c670de0b6b3a7640000856133f6565b61256691906133f6565b612570919061340d565b949350505050565b60026000540361259b57604051633ee5aeb560e01b815260040160405180910390fd5b6002600055565b6040516351c8572160e11b8152600090600a9082906001600160a01b037f0000000000000000000000000000000000000000000000000000000000000000169063a390ae42906125f89088908890600401613348565b602060405180830381865afa158015612615573d6000803e3d6000fd5b505050506040513d601f19601f8201168201806040525081019061263991906133dd565b90506000606461264984826133ca565b61265390846133f6565b61265d919061340d565b905060007f00000000000000000000000000000000000000000000000000000000000000006001600160a01b031663a625d21d6040518163ffffffff1660e01b8152600401602060405180830381865afa1580156126bf573d6000803e3d6000fd5b505050506040513d601f19601f820116820180604052508101906126e391906133dd565b9050806126f883670de0b6b3a76400006133f6565b612702919061340d565b6001600160a01b03891660009081526003602052604090205490955082111561276d5760405162461bcd60e51b815260206004820152601e60248201527f4e6f7420656e6f75676820636f6c6c61746572616c20746f207365697a65000060448201526064016107b6565b505050509392505050565b61278184613187565b6127cd5760405162461bcd60e51b815260206004820152601d60248201527f55736572206973206e6f7420756e646572636f6c6c61746572697a656400000060448201526064016107b6565b6001600160a01b03841660009081526003602052604090205481111561282d5760405162461bcd60e51b8152602060048201526015602482015274139bdd08115b9bdd59da0818dbdb1b185d195c985b605a1b60448201526064016107b6565b6001600160a01b0384811660009081526004602081815260408084208886168552909152808320549051631cc0af0360e11b81527f0000000000000000000000000000000000000000000000000000000000000000909416936339815e0693612899938a939201613361565b600060405180830381600087803b1580156128b357600080fd5b505af11580156128c7573d6000803e3d6000fd5b50506040516323b872dd60e01b8152600092506001600160a01b03861691506323b872dd906128fe90339030908890600401613384565b6020604051808303816000875af115801561291d573d6000803e3d6000fd5b505050506040513d601f19601f8201168201806040525081019061294191906133a8565b9050806129615760405163255a46f960e11b815260040160405180910390fd5b6001600160a01b03808616600090815260046020908152604080832093881683529290529081208054859290612998908490613335565b90915550506001600160a01b038516600090815260036020526040812080548492906129c5908490613335565b9250508190555082600860008282546129de91906133ca565b90915550506001600160a01b0380861660009081526004602090815260408083209388168352929052908120549003612a8d576040516323d0aab160e01b81526001600160a01b0386811660048301527f000000000000000000000000000000000000000000000000000000000000000016906323d0aab190602401600060405180830381600087803b158015612a7457600080fd5b505af1158015612a88573d6000803e3d6000fd5b505050505b6001600160a01b0385811660009081526003602052604090819020549051633d6fe0dd60e21b81527f00000000000000000000000000000000000000000000000000000000000000009092169163f5bf837491612aef91899190600401613348565b600060405180830381600087803b158015612b0957600080fd5b505af1158015612b1d573d6000803e3d6000fd5b50506040516000925033915084908381818185875af1925050503d8060008114612b63576040519150601f19603f3d011682016040523d82523d6000602084013e612b68565b606091505b5050905080612b8a5760405163255a46f960e11b815260040160405180910390fd5b505050505050565b6001600160a01b03808316600090815260046020818152604080842086861685529091528083205490516351c8572160e11b8152929390927f00000000000000000000000000000000000000000000000000000000000000009091169163a390ae4291612c03918791869101613348565b602060405180830381865afa158015612c20573d6000803e3d6000fd5b505050506040513d601f19601f8201168201806040525081019061257091906133dd565b604051630d82fdc960e11b8152600481018290526000907f00000000000000000000000000000000000000000000000000000000000000006001600160a01b031690631b05fb9290602401611091565b600081600003612ca65750600161068e565b600082612cb48560646133f6565b612cbe919061340d565b60961115949350505050565b6001600160a01b03831660009081526006602052604081208054839290612cf2908490613335565b90915550506040516323b872dd60e01b81526000906001600160a01b037f000000000000000000000000000000000000000000000000000000000000000016906323b872dd90612d4a90869030908790600401613384565b6020604051808303816000875af1158015612d69573d6000803e3d6000fd5b505050506040513d601f19601f82011682018060405250810190612d8d91906133a8565b905080612dad576040516308d2a41160e41b815260040160405180910390fd5b604051630852cd8d60e31b8152600481018390527f00000000000000000000000000000000000000000000000000000000000000006001600160a01b0316906342966c6890602401600060405180830381600087803b158015612e0f57600080fd5b505af1158015612e23573d6000803e3d6000fd5b5050505050505050565b6001546001600160a01b031633146110405760405163118cdaa760e01b81523360048201526024016107b6565b600180546001600160a01b038381166001600160a01b0319831681179093556040519116919082907f8be0079c531659141344cd1fd0a4f28419497f9722a3daafe3b4186f6b6457e090600090a35050565b6001600160a01b0381811660009081526004602081815260408084207f000000000000000000000000000000000000000000000000000000000000000086168086529252808420547f0000000000000000000000000000000000000000000000000000000000000000861685528185205491516302c68be360e31b815293840192909252929390929184917f000000000000000000000000000000000000000000000000000000000000000016906316345f1890602401602060405180830381865afa158015612f80573d6000803e3d6000fd5b505050506040513d601f19601f82011682018060405250810190612fa491906133dd565b6040516302c68be360e31b81526001600160a01b037f0000000000000000000000000000000000000000000000000000000000000000811660048301529192506000917f000000000000000000000000000000000000000000000000000000000000000016906316345f1890602401602060405180830381865afa158015613030573d6000803e3d6000fd5b505050506040513d601f19601f8201168201806040525081019061305491906133dd565b90506000670de0b6b3a764000061306b84876133f6565b613075919061340d565b90506000670de0b6b3a764000061308c84876133f6565b613096919061340d565b90506130a281836133ca565b98975050505050505050565b60008060036000846001600160a01b03166001600160a01b0316815260200190815260200160002054905060007f00000000000000000000000000000000000000000000000000000000000000006001600160a01b031663a625d21d6040518163ffffffff1660e01b8152600401602060405180830381865afa158015613139573d6000803e3d6000fd5b505050506040513d601f19601f8201168201806040525081019061315d91906133dd565b90506000670de0b6b3a764000061317483856133f6565b61317e919061340d565b95945050505050565b600080613193836130ae565b905060006131a084612eac565b9050806000036131b4575060009392505050565b60006131c18260646133f6565b60966131d5670de0b6b3a7640000866133f6565b6131df91906133f6565b6131e9919061340d565b670de0b6b3a76400001195945050505050565b80356001600160a01b038116811461321357600080fd5b919050565b6000806040838503121561322b57600080fd5b613234836131fc565b9150613242602084016131fc565b90509250929050565b60008060006060848603121561326057600080fd5b613269846131fc565b9250613277602085016131fc565b9150604084013590509250925092565b6000806040838503121561329a57600080fd5b6132a3836131fc565b946020939093013593505050565b6000602082840312156132c357600080fd5b5035919050565b6000602082840312156132dc57600080fd5b6132e5826131fc565b9392505050565b60008060006060848603121561330157600080fd5b61330a846131fc565b95602085013595506040909401359392505050565b634e487b7160e01b600052601160045260246000fd5b8181038181111561068e5761068e61331f565b6001600160a01b03929092168252602082015260400190565b6001600160a01b0393909316835260208301919091521515604082015260600190565b6001600160a01b039384168152919092166020820152604081019190915260600190565b6000602082840312156133ba57600080fd5b815180151581146132e557600080fd5b8082018082111561068e5761068e61331f565b6000602082840312156133ef57600080fd5b5051919050565b808202811582820484141761068e5761068e61331f565b60008261342a57634e487b7160e01b600052601260045260246000fd5b50049056fea264697066735822122063b477fe03313645da0237af90569b0eef9ba4689b0920b2b57b8a2be7fab0a664736f6c63430008140033",
  "linkReferences": {},
  "deployedLinkReferences": {}
}