{
  "_format": "hh-sol-artifact-1",
  "contractName": "DSCEngine",
  "sourceName": "contracts/DSCEngine.sol",
  "abi": [
    {
      "inputs": [
        {
          "internalType": "address",
          "name": "priceOracleAddress",
          "type": "address"
        },
        {
          "internalType": "address",
          "name": "dsctokenAddress",
          "type": "address"
        },
        {
          "internalType": "address",
          "name": "InterestRateModelAddress",
          "type": "address"
        },
        {
          "internalType": "address",
          "name": "usdcAddress",
          "type": "address"
        },
        {
          "internalType": "address",
          "name": "usdtAddress",
          "type": "address"
        },
        {
          "internalType": "address",
          "name": "wethAddress",
          "type": "address"
        },
        {
          "internalType": "address",
          "name": "wbtcAddress",
          "type": "address"
        }
      ],
      "stateMutability": "nonpayable",
      "type": "constructor"
    },
    {
      "inputs": [],
      "name": "DSCEngine__LiquidationFailed",
      "type": "error"
    },
    {
      "inputs": [],
      "name": "DSCEngine__LoanRepaymentFailed",
      "type": "error"
    },
    {
      "inputs": [],
      "name": "DSCEngine__Mintfailed",
      "type": "error"
    },
    {
      "inputs": [],
      "name": "DSCEngine__NeedsMoreThanZero",
      "type": "error"
    },
    {
      "inputs": [],
      "name": "DSCEngine__NotAllowedCollateral",
      "type": "error"
    },
    {
      "inputs": [],
      "name": "DSCEngine__NotAllowedToken",
      "type": "error"
    },
    {
      "inputs": [],
      "name": "DSCEngine__TokenBurnFailed",
      "type": "error"
    },
    {
      "inputs": [],
      "name": "DSCEngine__TokenToMintExceedsDepositedStablecoin",
      "type": "error"
    },
    {
      "inputs": [],
      "name": "DSCEngine__TransferFailed",
      "type": "error"
    },
    {
      "inputs": [],
      "name": "DSCEngine__WithdrawCollateralFailed",
      "type": "error"
    },
    {
      "inputs": [
        {
          "internalType": "address",
          "name": "owner",
          "type": "address"
        }
      ],
      "name": "OwnableInvalidOwner",
      "type": "error"
    },
    {
      "inputs": [
        {
          "internalType": "address",
          "name": "account",
          "type": "address"
        }
      ],
      "name": "OwnableUnauthorizedAccount",
      "type": "error"
    },
    {
      "inputs": [],
      "name": "ReentrancyGuardReentrantCall",
      "type": "error"
    },
    {
      "anonymous": false,
      "inputs": [
        {
          "indexed": true,
          "internalType": "address",
          "name": "from",
          "type": "address"
        },
        {
          "indexed": true,
          "internalType": "address",
          "name": "collateral",
          "type": "address"
        },
        {
          "indexed": true,
          "internalType": "uint256",
          "name": "amount",
          "type": "uint256"
        }
      ],
      "name": "CollateralDeposited",
      "type": "event"
    },
    {
      "anonymous": false,
      "inputs": [
        {
          "indexed": true,
          "internalType": "address",
          "name": "previousOwner",
          "type": "address"
        },
        {
          "indexed": true,
          "internalType": "address",
          "name": "newOwner",
          "type": "address"
        }
      ],
      "name": "OwnershipTransferred",
      "type": "event"
    },
    {
      "anonymous": false,
      "inputs": [
        {
          "indexed": true,
          "internalType": "address",
          "name": "from",
          "type": "address"
        },
        {
          "indexed": true,
          "internalType": "address",
          "name": "token",
          "type": "address"
        },
        {
          "indexed": false,
          "internalType": "uint256",
          "name": "amount",
          "type": "uint256"
        }
      ],
      "name": "StableCoinDeposited",
      "type": "event"
    },
    {
      "anonymous": false,
      "inputs": [
        {
          "indexed": true,
          "internalType": "address",
          "name": "from",
          "type": "address"
        },
        {
          "indexed": true,
          "internalType": "address",
          "name": "token",
          "type": "address"
        },
        {
          "indexed": true,
          "internalType": "uint256",
          "name": "amount",
          "type": "uint256"
        }
      ],
      "name": "StableCoinWithdrawed",
      "type": "event"
    },
    {
      "anonymous": false,
      "inputs": [
        {
          "indexed": true,
          "internalType": "address",
          "name": "to",
          "type": "address"
        },
        {
          "indexed": true,
          "internalType": "uint256",
          "name": "amount",
          "type": "uint256"
        }
      ],
      "name": "tokenMinted",
      "type": "event"
    },
    {
      "inputs": [],
      "name": "USDC_ADDRESS",
      "outputs": [
        {
          "internalType": "address",
          "name": "",
          "type": "address"
        }
      ],
      "stateMutability": "view",
      "type": "function"
    },
    {
      "inputs": [],
      "name": "USDT_ADDRESS",
      "outputs": [
        {
          "internalType": "address",
          "name": "",
          "type": "address"
        }
      ],
      "stateMutability": "view",
      "type": "function"
    },
    {
      "inputs": [],
      "name": "WBTC_ADDRESS",
      "outputs": [
        {
          "internalType": "address",
          "name": "",
          "type": "address"
        }
      ],
      "stateMutability": "view",
      "type": "function"
    },
    {
      "inputs": [],
      "name": "WETH_ADDRESS",
      "outputs": [
        {
          "internalType": "address",
          "name": "",
          "type": "address"
        }
      ],
      "stateMutability": "view",
      "type": "function"
    },
    {
      "inputs": [
        {
          "internalType": "address",
          "name": "tokenAddress",
          "type": "address"
        },
        {
          "internalType": "uint256",
          "name": "stableCoinAmount",
          "type": "uint256"
        },
        {
          "internalType": "address",
          "name": "collateralAddress",
          "type": "address"
        }
      ],
      "name": "borrowStableCoins",
      "outputs": [],
      "stateMutability": "nonpayable",
      "type": "function"
    },
    {
      "inputs": [
        {
          "internalType": "uint256",
          "name": "amountTokenToBurn",
          "type": "uint256"
        }
      ],
      "name": "burn",
      "outputs": [],
      "stateMutability": "nonpayable",
      "type": "function"
    },
    {
      "inputs": [
        {
          "internalType": "address",
          "name": "collateralAddress",
          "type": "address"
        },
        {
          "internalType": "uint256",
          "name": "collateralAmount",
          "type": "uint256"
        }
      ],
      "name": "depositCollateral",
      "outputs": [],
      "stateMutability": "nonpayable",
      "type": "function"
    },
    {
      "inputs": [
        {
          "internalType": "address",
          "name": "tokenAddress",
          "type": "address"
        },
        {
          "internalType": "uint256",
          "name": "amountStableCoin",
          "type": "uint256"
        }
      ],
      "name": "depositStableCoins",
      "outputs": [],
      "stateMutability": "nonpayable",
      "type": "function"
    },
    {
      "inputs": [
        {
          "internalType": "address",
          "name": "tokenAddress",
          "type": "address"
        },
        {
          "internalType": "uint256",
          "name": "amountStableCoin",
          "type": "uint256"
        }
      ],
      "name": "depositStableCoinsAndMintToken",
      "outputs": [],
      "stateMutability": "nonpayable",
      "type": "function"
    },
    {
      "inputs": [
        {
          "internalType": "address",
          "name": "user",
          "type": "address"
        }
      ],
      "name": "getMintedLendingToken",
      "outputs": [
        {
          "internalType": "uint256",
          "name": "",
          "type": "uint256"
        }
      ],
      "stateMutability": "view",
      "type": "function"
    },
    {
      "inputs": [
        {
          "internalType": "address",
          "name": "user",
          "type": "address"
        },
        {
          "internalType": "address",
          "name": "token",
          "type": "address"
        }
      ],
      "name": "getStableCoinBalance",
      "outputs": [
        {
          "internalType": "uint256",
          "name": "",
          "type": "uint256"
        }
      ],
      "stateMutability": "view",
      "type": "function"
    },
    {
      "inputs": [
        {
          "internalType": "address",
          "name": "_borrower",
          "type": "address"
        },
        {
          "internalType": "address",
          "name": "tokenAddress",
          "type": "address"
        },
        {
          "internalType": "address",
          "name": "collateralAddress",
          "type": "address"
        },
        {
          "internalType": "uint256",
          "name": "repayAmount",
          "type": "uint256"
        }
      ],
      "name": "liquidate",
      "outputs": [],
      "stateMutability": "nonpayable",
      "type": "function"
    },
    {
      "inputs": [
        {
          "internalType": "uint256",
          "name": "amountTokenToMint",
          "type": "uint256"
        }
      ],
      "name": "mintLendingToken",
      "outputs": [],
      "stateMutability": "nonpayable",
      "type": "function"
    },
    {
      "inputs": [],
      "name": "owner",
      "outputs": [
        {
          "internalType": "address",
          "name": "",
          "type": "address"
        }
      ],
      "stateMutability": "view",
      "type": "function"
    },
    {
      "inputs": [],
      "name": "renounceOwnership",
      "outputs": [],
      "stateMutability": "nonpayable",
      "type": "function"
    },
    {
      "inputs": [
        {
          "internalType": "address",
          "name": "tokenAddress",
          "type": "address"
        },
        {
          "internalType": "uint256",
          "name": "stablecoinAmountToRepay",
          "type": "uint256"
        }
      ],
      "name": "repayLoan",
      "outputs": [],
      "stateMutability": "nonpayable",
      "type": "function"
    },
    {
      "inputs": [],
      "name": "s_totalStablecoin",
      "outputs": [
        {
          "internalType": "uint256",
          "name": "",
          "type": "uint256"
        }
      ],
      "stateMutability": "view",
      "type": "function"
    },
    {
      "inputs": [
        {
          "internalType": "address",
          "name": "user",
          "type": "address"
        }
      ],
      "name": "totalTimePassed",
      "outputs": [
        {
          "internalType": "uint256",
          "name": "",
          "type": "uint256"
        }
      ],
      "stateMutability": "view",
      "type": "function"
    },
    {
      "inputs": [
        {
          "internalType": "address",
          "name": "newOwner",
          "type": "address"
        }
      ],
      "name": "transferOwnership",
      "outputs": [],
      "stateMutability": "nonpayable",
      "type": "function"
    },
    {
      "inputs": [
        {
          "internalType": "address",
          "name": "collateralAddress",
          "type": "address"
        },
        {
          "internalType": "uint256",
          "name": "amountToWithdraw",
          "type": "uint256"
        }
      ],
      "name": "withdrawCollateral",
      "outputs": [],
      "stateMutability": "nonpayable",
      "type": "function"
    },
    {
      "inputs": [
        {
          "internalType": "address",
          "name": "tokenAddress",
          "type": "address"
        },
        {
          "internalType": "uint256",
          "name": "amountStableCoin",
          "type": "uint256"
        }
      ],
      "name": "withdrawStableCoin",
      "outputs": [],
      "stateMutability": "nonpayable",
      "type": "function"
    },
    {
      "inputs": [
        {
          "internalType": "address",
          "name": "tokenAddress",
          "type": "address"
        },
        {
          "internalType": "uint256",
          "name": "amountStableCoin",
          "type": "uint256"
        },
        {
          "internalType": "uint256",
          "name": "amountTokenToBurn",
          "type": "uint256"
        }
      ],
      "name": "withdrawStableCoinsAndBurnToken",
      "outputs": [],
      "stateMutability": "nonpayable",
      "type": "function"
    }
  ],
  "bytecode": "0x6101606040523480156200001257600080fd5b5060405162002bd038038062002bd0833981016040819052620000359162000113565b600160005533806200006157604051631e4fbdf760e01b81526000600482015260240160405180910390fd5b6200006c81620000a4565b506001600160a01b03968716610140529486166101005292851661012052908416608052831660a052821660c0521660e052620001a8565b600180546001600160a01b038381166001600160a01b0319831681179093556040519116919082907f8be0079c531659141344cd1fd0a4f28419497f9722a3daafe3b4186f6b6457e090600090a35050565b80516001600160a01b03811681146200010e57600080fd5b919050565b600080600080600080600060e0888a0312156200012f57600080fd5b6200013a88620000f6565b96506200014a60208901620000f6565b95506200015a60408901620000f6565b94506200016a60608901620000f6565b93506200017a60808901620000f6565b92506200018a60a08901620000f6565b91506200019a60c08901620000f6565b905092959891949750929550565b60805160a05160c05160e0516101005161012051610140516128a76200032960003960008181610aeb01528181611f7c0152818161201801528181612331015281816123e10152818161253401526125e401526000818161071001528181610a5b01528181610ed701528181610ff10152818161131a015281816118b5015281816119360152611aa4015260008181611cac01528181611e2b0152818161210901526121bb0152600081816102c4015281816103bf01528181611257015281816122ee01526123b301526000818161014c015281816103fc0152818161129401526122c20152600081816102eb0152818161065f015281816109d501528181610cee01528181610df9015281816111900152818161180401528181611c3901528181611d67015281816124f101526125b601526000818161028a015281816106220152818161099801528181610cb101528181610dbc01528181611153015281816117c701528181611ba101528181611d3c01526124c501526128a76000f3fe608060405234801561001057600080fd5b50600436106101425760003560e01c8063970f2996116100b8578063bdd5915f1161007c578063bdd5915f146102bf578063c1892058146102e6578063dbafccca1461030d578063dd2856d114610316578063e60ab8331461033f578063f2fde38b1461035257600080fd5b8063970f29961461024c578063a5d5db0c1461025f578063aab3f86814610272578063bb09d9b714610285578063bcdd961a146102ac57600080fd5b806363ad31aa1161010a57806363ad31aa146101e757806364bd3ea4146101fa578063715018a61461020d5780638896d799146102155780638da5cb5b1461022857806393a595f51461023957600080fd5b8063040141e514610147578063173badc91461018b578063350c35e9146101ac5780633ef071f8146101c157806342966c68146101d4575b600080fd5b61016e7f000000000000000000000000000000000000000000000000000000000000000081565b6040516001600160a01b0390911681526020015b60405180910390f35b61019e61019936600461262f565b610365565b604051908152602001610182565b6101bf6101ba366004612662565b610392565b005b6101bf6101cf366004612662565b61061f565b6101bf6101e236600461268c565b6108b2565b61019e6101f53660046126a5565b6108e3565b6101bf6102083660046126c0565b61096b565b6101bf610c9a565b6101bf6102233660046126fc565b610cae565b6001546001600160a01b031661016e565b6101bf610247366004612662565b610d8f565b6101bf61025a366004612662565b611150565b6101bf61026d366004612662565b61122a565b6101bf61028036600461272f565b611496565b61016e7f000000000000000000000000000000000000000000000000000000000000000081565b6101bf6102ba366004612662565b6117c4565b61016e7f000000000000000000000000000000000000000000000000000000000000000081565b61016e7f000000000000000000000000000000000000000000000000000000000000000081565b61019e60085481565b61019e6103243660046126a5565b6001600160a01b031660009081526006602052604090205490565b6101bf61034d36600461268c565b611b63565b6101bf6103603660046126a5565b611ece565b6001600160a01b038083166000908152600260209081526040808320938516835292905220545b92915050565b80806000036103b45760405163cb1d3f7d60e01b815260040160405180910390fd5b6103bc611f0c565b827f00000000000000000000000000000000000000000000000000000000000000006001600160a01b0316816001600160a01b03161415801561043157507f00000000000000000000000000000000000000000000000000000000000000006001600160a01b0316816001600160a01b031614155b1561044f57604051632b0b030560e21b815260040160405180910390fd5b3360009081526003602090815260408083206001600160a01b0388168452909152902054838110156104db5760405162461bcd60e51b815260206004820152602a60248201527f20416d6f756e74206578636565647320746f74616c20636f6c6c61746572616c6044820152690819195c1bdcda5d195960b21b60648201526084015b60405180910390fd5b60006104e78583612790565b905060006104f53388611f36565b905060006105038884611fef565b905061050f818361208c565b61055b5760405162461bcd60e51b815260206004820152601d60248201527f436f6c6c61746572616c207468726573686f6c6420627265616368656400000060448201526064016104d2565b3360008181526003602090815260408083206001600160a01b038d1680855292528083208790555163a9059cbb60e01b81526004810193909352602483018a9052909163a9059cbb906044016020604051808303816000875af11580156105c6573d6000803e3d6000fd5b505050506040513d601f19601f820116820180604052508101906105ea91906127a3565b90508061060a57604051638dac826f60e01b815260040160405180910390fd5b50505050505061061a6001600055565b505050565b817f00000000000000000000000000000000000000000000000000000000000000006001600160a01b0316816001600160a01b03161415801561069457507f00000000000000000000000000000000000000000000000000000000000000006001600160a01b0316816001600160a01b031614155b156106b25760405163540167df60e11b815260040160405180910390fd5b81806000036106d45760405163cb1d3f7d60e01b815260040160405180910390fd5b6106dc611f0c565b3360008181526002602090815260408083206001600160a01b038981168552925291829020549151631cc0af0360e11b81527f0000000000000000000000000000000000000000000000000000000000000000909116926339815e0692610748926001906004016127c5565b600060405180830381600087803b15801561076257600080fd5b505af1158015610776573d6000803e3d6000fd5b50506040516323b872dd60e01b8152600092506001600160a01b03871691506323b872dd906107ad903390309089906004016127e8565b6020604051808303816000875af11580156107cc573d6000803e3d6000fd5b505050506040513d601f19601f820116820180604052508101906107f091906127a3565b90508061081057604051634dc34d1760e01b815260040160405180910390fd5b3360009081526002602090815260408083206001600160a01b03891684529091528120805486929061084390849061280c565b92505081905550836008600082825461085c919061280c565b90915550506040518481526001600160a01b0386169033907fd12462c6581dd948aaec1542f79d92681b1c9d2d0aacdf3f419a583e9a73f5339060200160405180910390a3506108ac6001600055565b50505050565b80806000036108d45760405163cb1d3f7d60e01b815260040160405180910390fd5b6108df3333846120c2565b5050565b6001600160a01b0381166000908152600760205260408120546109485760405162461bcd60e51b815260206004820152601a60248201527f5573657220686173206e6f74206465706f73697465642079657400000000000060448201526064016104d2565b6001600160a01b03821660009081526007602052604090205461038c9042612790565b818060000361098d5760405163cb1d3f7d60e01b815260040160405180910390fd5b610995611f0c565b837f00000000000000000000000000000000000000000000000000000000000000006001600160a01b0316816001600160a01b031614158015610a0a57507f00000000000000000000000000000000000000000000000000000000000000006001600160a01b0316816001600160a01b031614155b15610a285760405163540167df60e11b815260040160405180910390fd5b3360008181526004602081815260408084206001600160a01b038b811686529252808420549051631cc0af0360e11b81527f0000000000000000000000000000000000000000000000000000000000000000909216946339815e0694610a929491939091016127c5565b600060405180830381600087803b158015610aac57600080fd5b505af1158015610ac0573d6000803e3d6000fd5b5050604051631eee3aa360e01b81523360048201526001600160a01b038681166024830152600093507f0000000000000000000000000000000000000000000000000000000000000000169150631eee3aa390604401602060405180830381865afa158015610b33573d6000803e3d6000fd5b505050506040513d601f19601f82011682018060405250810190610b57919061281f565b905060006064610b68609688612838565b610b72919061284f565b905081811115610bbc5760405162461bcd60e51b8152602060048201526015602482015274139bdd08195b9bdd59da0818dbdb1b185d195c985b605a1b60448201526064016104d2565b3360009081526004602090815260408083206001600160a01b038b16845290915281208054889290610bef90849061280c565b909155505060405163a9059cbb60e01b8152336004820152602481018790526000906001600160a01b0389169063a9059cbb906044016020604051808303816000875af1158015610c44573d6000803e3d6000fd5b505050506040513d601f19601f82011682018060405250810190610c6891906127a3565b905080610c7457600080fd5b8660086000828254610c869190612790565b90915550506001600055506108ac92505050565b610ca2612225565b610cac6000612252565b565b827f00000000000000000000000000000000000000000000000000000000000000006001600160a01b0316816001600160a01b031614158015610d2357507f00000000000000000000000000000000000000000000000000000000000000006001600160a01b0316816001600160a01b031614155b15610d415760405163540167df60e11b815260040160405180910390fd5b8280600003610d635760405163cb1d3f7d60e01b815260040160405180910390fd5b610d6b611f0c565b610d7585856117c4565b610d7e836108b2565b610d886001600055565b5050505050565b8080600003610db15760405163cb1d3f7d60e01b815260040160405180910390fd5b610db9611f0c565b827f00000000000000000000000000000000000000000000000000000000000000006001600160a01b0316816001600160a01b031614158015610e2e57507f00000000000000000000000000000000000000000000000000000000000000006001600160a01b0316816001600160a01b031614155b15610e4c5760405163540167df60e11b815260040160405180910390fd5b3360009081526004602090815260408083206001600160a01b0388168452909152902054831115610ebf5760405162461bcd60e51b815260206004820152601960248201527f526570617920616d6f756e74206578636565647320646562740000000000000060448201526064016104d2565b60405163b89a495b60e01b81523360048201526000907f00000000000000000000000000000000000000000000000000000000000000006001600160a01b03169063b89a495b90602401602060405180830381865afa158015610f26573d6000803e3d6000fd5b505050506040513d601f19601f82011682018060405250810190610f4a919061281f565b3360009081526004602090815260408083206001600160a01b038a168452909152812054919250610f7b838361280c565b11610fbe5760405162461bcd60e51b8152602060048201526013602482015272139bc81bdd5d1cdd185b991a5b99c81919589d606a1b60448201526064016104d2565b3360008181526004602081815260408084206001600160a01b038c811686529252808420549051631cc0af0360e11b81527f0000000000000000000000000000000000000000000000000000000000000000909216946339815e06946110289491939091016127c5565b600060405180830381600087803b15801561104257600080fd5b505af1158015611056573d6000803e3d6000fd5b50503360009081526004602090815260408083206001600160a01b038c1684529091528120805489945090925061108e908490612790565b9250508190555084600860008282546110a7919061280c565b90915550506040516323b872dd60e01b81526000906001600160a01b038816906323b872dd906110df90339030908b906004016127e8565b6020604051808303816000875af11580156110fe573d6000803e3d6000fd5b505050506040513d601f19601f8201168201806040525081019061112291906127a3565b90508061114257604051630780770360e11b815260040160405180910390fd5b5050505061061a6001600055565b817f00000000000000000000000000000000000000000000000000000000000000006001600160a01b0316816001600160a01b0316141580156111c557507f00000000000000000000000000000000000000000000000000000000000000006001600160a01b0316816001600160a01b031614155b156111e35760405163540167df60e11b815260040160405180910390fd5b81806000036112055760405163cb1d3f7d60e01b815260040160405180910390fd5b61120d611f0c565b611217848461061f565b61122083611b63565b6108ac6001600055565b808060000361124c5760405163cb1d3f7d60e01b815260040160405180910390fd5b611254611f0c565b827f00000000000000000000000000000000000000000000000000000000000000006001600160a01b0316816001600160a01b0316141580156112c957507f00000000000000000000000000000000000000000000000000000000000000006001600160a01b0316816001600160a01b031614155b156112e757604051632b0b030560e21b815260040160405180910390fd5b3360008181526003602090815260408083206001600160a01b0389811685529252808320549051631cc0af0360e11b81527f0000000000000000000000000000000000000000000000000000000000000000909216936339815e0693611352939192916004016127c5565b600060405180830381600087803b15801561136c57600080fd5b505af1158015611380573d6000803e3d6000fd5b50506040516323b872dd60e01b8152600092506001600160a01b03871691506323b872dd906113b7903390309089906004016127e8565b6020604051808303816000875af11580156113d6573d6000803e3d6000fd5b505050506040513d601f19601f820116820180604052508101906113fa91906127a3565b90508061141a57604051634dc34d1760e01b815260040160405180910390fd5b3360009081526003602090815260408083206001600160a01b03891684529091528120805486929061144d90849061280c565b909155505060405184906001600160a01b0387169033907ff1c0dd7e9b98bbff859029005ef89b127af049cd18df1a8d79f0b7e019911e5690600090a4505061061a6001600055565b61149e611f0c565b60006114a9856122a4565b905060006114b6866124a7565b90506000670de0b6b3a7640000826114cf609686612838565b6114d9919061284f565b6114e3919061284f565b9050600181106115355760405162461bcd60e51b815260206004820152601960248201527f5573657220697320756e646572636f6c6c61746572697a65640000000000000060448201526064016104d2565b6000841180156115455750818411155b6115885760405162461bcd60e51b8152602060048201526014602482015273125b9d985b1a59081c995c185e48185b5bdd5b9d60621b60448201526064016104d2565b600a6000606486611599848361280c565b6115a39190612838565b6115ad919061284f565b6001600160a01b03808b166000908152600360209081526040808320938c16835292905220549091508111156116255760405162461bcd60e51b815260206004820152601e60248201527f4e6f7420656e6f75676820636f6c6c61746572616c20746f207365697a65000060448201526064016104d2565b6001600160a01b03808a166000908152600460209081526040808320938c168352929052908120805488929061165c908490612790565b90915550506001600160a01b03808a166000908152600360209081526040808320938b1683529290529081208054839290611698908490612790565b909155505060405163a9059cbb60e01b8152336004820152602481018290526000906001600160a01b0389169063a9059cbb906044016020604051808303816000875af11580156116ed573d6000803e3d6000fd5b505050506040513d601f19601f8201168201806040525081019061171191906127a3565b90506000896001600160a01b03166323b872dd33308b6040518463ffffffff1660e01b8152600401611745939291906127e8565b6020604051808303816000875af1158015611764573d6000803e3d6000fd5b505050506040513d601f19601f8201168201806040525081019061178891906127a3565b9050811580611795575080155b156117b35760405163255a46f960e11b815260040160405180910390fd5b505050505050506108ac6001600055565b817f00000000000000000000000000000000000000000000000000000000000000006001600160a01b0316816001600160a01b03161415801561183957507f00000000000000000000000000000000000000000000000000000000000000006001600160a01b0316816001600160a01b031614155b156118575760405163540167df60e11b815260040160405180910390fd5b81806000036118795760405163cb1d3f7d60e01b815260040160405180910390fd5b611881611f0c565b3360008181526002602090815260408083206001600160a01b038981168552925291829020549151631cc0af0360e11b81527f0000000000000000000000000000000000000000000000000000000000000000909116926339815e06926118ed926001906004016127c5565b600060405180830381600087803b15801561190757600080fd5b505af115801561191b573d6000803e3d6000fd5b505060405163b89a495b60e01b8152336004820152600092507f00000000000000000000000000000000000000000000000000000000000000006001600160a01b0316915063b89a495b90602401602060405180830381865afa158015611986573d6000803e3d6000fd5b505050506040513d601f19601f820116820180604052508101906119aa919061281f565b905060006001600160a01b03861663a9059cbb336119c8858961280c565b6040516001600160e01b031960e085901b1681526001600160a01b03909216600483015260248201526044016020604051808303816000875af1158015611a13573d6000803e3d6000fd5b505050506040513d601f19601f82011682018060405250810190611a3791906127a3565b905080611a5757604051634dc34d1760e01b815260040160405180910390fd5b3360009081526002602090815260408083206001600160a01b038a16845290915281208054879290611a8a908490612790565b90915550506040516323d0aab160e01b81523360048201527f00000000000000000000000000000000000000000000000000000000000000006001600160a01b0316906323d0aab190602401600060405180830381600087803b158015611af057600080fd5b505af1158015611b04573d6000803e3d6000fd5b505050508460086000828254611b1a9190612790565b909155505060405185906001600160a01b0388169033907f82cb60a50bdd6fcb2d9b10df992f3c07380e4a1beb575a48b73fef8f2494d31f90600090a450506108ac6001600055565b8080600003611b855760405163cb1d3f7d60e01b815260040160405180910390fd5b611b8d611f0c565b3360008181526002602090815260408083207f00000000000000000000000000000000000000000000000000000000000000006001600160a01b031684529091529020548390811115611c1b5760405162461bcd60e51b8152602060048201526016602482015275139bdd081cdd59999a58da595b9d0819195c1bdcda5d60521b60448201526064016104d2565b6001600160a01b0380831660009081526002602090815260408083207f000000000000000000000000000000000000000000000000000000000000000090941683529290522054811115611caa5760405162461bcd60e51b8152602060048201526016602482015275139bdd081cdd59999a58da595b9d0819195c1bdcda5d60521b60448201526064016104d2565b7f00000000000000000000000000000000000000000000000000000000000000006001600160a01b0316611d205760405162461bcd60e51b815260206004820152601860248201527f695f6c746f6b656e206e6f7420696e697469616c697a6564000000000000000060448201526064016104d2565b3360009081526002602090815260408083206001600160a01b037f0000000000000000000000000000000000000000000000000000000000000000811685529252808320547f00000000000000000000000000000000000000000000000000000000000000009092168352822054611d98919061280c565b905084811015611dbb576040516314ca838160e11b815260040160405180910390fd5b3360009081526006602052604081208054879290611dda90849061280c565b9091555050604051859033907f2d8eb9b9558d4b5ef1d238622692f6156d5822009340e26ab15fac05d64c12f090600090a36040516340c10f1960e01b8152336004820152602481018690526000907f00000000000000000000000000000000000000000000000000000000000000006001600160a01b0316906340c10f19906044016020604051808303816000875af1158015611e7c573d6000803e3d6000fd5b505050506040513d601f19601f82011682018060405250810190611ea091906127a3565b905080611ec05760405163f07fe0c360e01b815260040160405180910390fd5b505050506108df6001600055565b611ed6612225565b6001600160a01b038116611f0057604051631e4fbdf760e01b8152600060048201526024016104d2565b611f0981612252565b50565b600260005403611f2f57604051633ee5aeb560e01b815260040160405180910390fd5b6002600055565b6001600160a01b03828116600090815260046020818152604080842086861680865292528084205490516351c8572160e11b8152928301919091526024820181905291927f0000000000000000000000000000000000000000000000000000000000000000169063a390ae4290604401602060405180830381865afa158015611fc3573d6000803e3d6000fd5b505050506040513d601f19601f82011682018060405250810190611fe7919061281f565b949350505050565b6040516351c8572160e11b81526001600160a01b038381166004830152602482018390526000917f00000000000000000000000000000000000000000000000000000000000000009091169063a390ae4290604401602060405180830381865afa158015612061573d6000803e3d6000fd5b505050506040513d601f19601f82011682018060405250810190612085919061281f565b9392505050565b60008160000361209e5750600161038c565b6000826120ac856064612838565b6120b6919061284f565b60961115949350505050565b6001600160a01b038316600090815260066020526040812080548392906120ea908490612790565b90915550506040516323b872dd60e01b81526000906001600160a01b037f000000000000000000000000000000000000000000000000000000000000000016906323b872dd90612142908690309087906004016127e8565b6020604051808303816000875af1158015612161573d6000803e3d6000fd5b505050506040513d601f19601f8201168201806040525081019061218591906127a3565b9050806121a5576040516308d2a41160e41b815260040160405180910390fd5b604051630852cd8d60e31b8152600481018390527f00000000000000000000000000000000000000000000000000000000000000006001600160a01b0316906342966c6890602401600060405180830381600087803b15801561220757600080fd5b505af115801561221b573d6000803e3d6000fd5b5050505050505050565b6001546001600160a01b03163314610cac5760405163118cdaa760e01b81523360048201526024016104d2565b600180546001600160a01b038381166001600160a01b0319831681179093556040519116919082907f8be0079c531659141344cd1fd0a4f28419497f9722a3daafe3b4186f6b6457e090600090a35050565b6001600160a01b0381811660009081526003602090815260408083207f000000000000000000000000000000000000000000000000000000000000000085168085529252808320547f0000000000000000000000000000000000000000000000000000000000000000851684528184205491516302c68be360e31b815260048101939093529293909184917f000000000000000000000000000000000000000000000000000000000000000016906316345f1890602401602060405180830381865afa158015612378573d6000803e3d6000fd5b505050506040513d601f19601f8201168201806040525081019061239c919061281f565b6040516302c68be360e31b81526001600160a01b037f0000000000000000000000000000000000000000000000000000000000000000811660048301529192506000917f000000000000000000000000000000000000000000000000000000000000000016906316345f18906024015b602060405180830381865afa158015612429573d6000803e3d6000fd5b505050506040513d601f19601f8201168201806040525081019061244d919061281f565b90506000670de0b6b3a76400006124648487612838565b61246e919061284f565b90506000670de0b6b3a76400006124858487612838565b61248f919061284f565b905061249b818361280c565b98975050505050505050565b6001600160a01b0381811660009081526004602081815260408084207f000000000000000000000000000000000000000000000000000000000000000086168086529252808420547f0000000000000000000000000000000000000000000000000000000000000000861685528185205491516302c68be360e31b815293840192909252929390929184917f000000000000000000000000000000000000000000000000000000000000000016906316345f1890602401602060405180830381865afa15801561257b573d6000803e3d6000fd5b505050506040513d601f19601f8201168201806040525081019061259f919061281f565b6040516302c68be360e31b81526001600160a01b037f0000000000000000000000000000000000000000000000000000000000000000811660048301529192506000917f000000000000000000000000000000000000000000000000000000000000000016906316345f189060240161240c565b80356001600160a01b038116811461262a57600080fd5b919050565b6000806040838503121561264257600080fd5b61264b83612613565b915061265960208401612613565b90509250929050565b6000806040838503121561267557600080fd5b61267e83612613565b946020939093013593505050565b60006020828403121561269e57600080fd5b5035919050565b6000602082840312156126b757600080fd5b61208582612613565b6000806000606084860312156126d557600080fd5b6126de84612613565b9250602084013591506126f360408501612613565b90509250925092565b60008060006060848603121561271157600080fd5b61271a84612613565b95602085013595506040909401359392505050565b6000806000806080858703121561274557600080fd5b61274e85612613565b935061275c60208601612613565b925061276a60408601612613565b9396929550929360600135925050565b634e487b7160e01b600052601160045260246000fd5b8181038181111561038c5761038c61277a565b6000602082840312156127b557600080fd5b8151801515811461208557600080fd5b6001600160a01b0393909316835260208301919091521515604082015260600190565b6001600160a01b039384168152919092166020820152604081019190915260600190565b8082018082111561038c5761038c61277a565b60006020828403121561283157600080fd5b5051919050565b808202811582820484141761038c5761038c61277a565b60008261286c57634e487b7160e01b600052601260045260246000fd5b50049056fea2646970667358221220e5849d74a38b752170c86520945c2dad5344c9177fc223fa6eff7f78fae3185664736f6c63430008140033",
  "linkReferences": {},
  "deployedLinkReferences": {}
}