{
  "_format": "hh-sol-artifact-1",
  "contractName": "DSCEngine",
  "sourceName": "contracts/DSCEngine.sol",
  "abi": [
    {
      "inputs": [
        {
          "internalType": "address",
          "name": "priceOracleAddress",
          "type": "address"
        },
        {
          "internalType": "address",
          "name": "InterestRateModelAddress",
          "type": "address"
        }
      ],
      "stateMutability": "nonpayable",
      "type": "constructor"
    },
    {
      "inputs": [],
      "name": "DSCEngine__LiquidationFailed",
      "type": "error"
    },
    {
      "inputs": [],
      "name": "DSCEngine__LoanRepaymentFailed",
      "type": "error"
    },
    {
      "inputs": [],
      "name": "DSCEngine__Mintfailed",
      "type": "error"
    },
    {
      "inputs": [],
      "name": "DSCEngine__NeedsMoreThanZero",
      "type": "error"
    },
    {
      "inputs": [],
      "name": "DSCEngine__NotAllowedCollateral",
      "type": "error"
    },
    {
      "inputs": [],
      "name": "DSCEngine__NotAllowedToken",
      "type": "error"
    },
    {
      "inputs": [],
      "name": "DSCEngine__StablecoinBorrowFailed",
      "type": "error"
    },
    {
      "inputs": [],
      "name": "DSCEngine__TokenBurnFailed",
      "type": "error"
    },
    {
      "inputs": [],
      "name": "DSCEngine__TokenToMintExceedsDepositedStablecoin",
      "type": "error"
    },
    {
      "inputs": [],
      "name": "DSCEngine__TransferFailed",
      "type": "error"
    },
    {
      "inputs": [],
      "name": "DSCEngine__WithdrawCollateralFailed",
      "type": "error"
    },
    {
      "inputs": [
        {
          "internalType": "address",
          "name": "owner",
          "type": "address"
        }
      ],
      "name": "OwnableInvalidOwner",
      "type": "error"
    },
    {
      "inputs": [
        {
          "internalType": "address",
          "name": "account",
          "type": "address"
        }
      ],
      "name": "OwnableUnauthorizedAccount",
      "type": "error"
    },
    {
      "inputs": [],
      "name": "ReentrancyGuardReentrantCall",
      "type": "error"
    },
    {
      "anonymous": false,
      "inputs": [
        {
          "indexed": true,
          "internalType": "address",
          "name": "from",
          "type": "address"
        },
        {
          "indexed": true,
          "internalType": "uint256",
          "name": "amount",
          "type": "uint256"
        }
      ],
      "name": "CollateralDeposited",
      "type": "event"
    },
    {
      "anonymous": false,
      "inputs": [
        {
          "indexed": true,
          "internalType": "address",
          "name": "user",
          "type": "address"
        },
        {
          "indexed": false,
          "internalType": "uint256",
          "name": "collateralAmount",
          "type": "uint256"
        },
        {
          "indexed": false,
          "internalType": "uint256",
          "name": "borrowedAmount",
          "type": "uint256"
        }
      ],
      "name": "CollateralDepositedAndBorrowed",
      "type": "event"
    },
    {
      "anonymous": false,
      "inputs": [
        {
          "indexed": true,
          "internalType": "address",
          "name": "from",
          "type": "address"
        },
        {
          "indexed": true,
          "internalType": "uint256",
          "name": "amount",
          "type": "uint256"
        }
      ],
      "name": "CollateralWithdrawn",
      "type": "event"
    },
    {
      "anonymous": false,
      "inputs": [
        {
          "indexed": true,
          "internalType": "address",
          "name": "liquidator",
          "type": "address"
        },
        {
          "indexed": true,
          "internalType": "address",
          "name": "borrower",
          "type": "address"
        },
        {
          "indexed": false,
          "internalType": "uint256",
          "name": "debtAmount",
          "type": "uint256"
        },
        {
          "indexed": false,
          "internalType": "uint256",
          "name": "collateralSeized",
          "type": "uint256"
        }
      ],
      "name": "Liquidation",
      "type": "event"
    },
    {
      "anonymous": false,
      "inputs": [
        {
          "indexed": true,
          "internalType": "address",
          "name": "from",
          "type": "address"
        },
        {
          "indexed": true,
          "internalType": "uint256",
          "name": "amount",
          "type": "uint256"
        }
      ],
      "name": "LoanRepaid",
      "type": "event"
    },
    {
      "anonymous": false,
      "inputs": [
        {
          "indexed": true,
          "internalType": "address",
          "name": "previousOwner",
          "type": "address"
        },
        {
          "indexed": true,
          "internalType": "address",
          "name": "newOwner",
          "type": "address"
        }
      ],
      "name": "OwnershipTransferred",
      "type": "event"
    },
    {
      "anonymous": false,
      "inputs": [
        {
          "indexed": true,
          "internalType": "address",
          "name": "from",
          "type": "address"
        },
        {
          "indexed": false,
          "internalType": "uint256",
          "name": "amount",
          "type": "uint256"
        }
      ],
      "name": "StableCoinDeposited",
      "type": "event"
    },
    {
      "anonymous": false,
      "inputs": [
        {
          "indexed": true,
          "internalType": "address",
          "name": "from",
          "type": "address"
        },
        {
          "indexed": true,
          "internalType": "uint256",
          "name": "amount",
          "type": "uint256"
        }
      ],
      "name": "StableCoinWithdrawed",
      "type": "event"
    },
    {
      "anonymous": false,
      "inputs": [
        {
          "indexed": true,
          "internalType": "address",
          "name": "from",
          "type": "address"
        },
        {
          "indexed": true,
          "internalType": "uint256",
          "name": "amount",
          "type": "uint256"
        }
      ],
      "name": "StablecoinBorrowed",
      "type": "event"
    },
    {
      "anonymous": false,
      "inputs": [
        {
          "indexed": true,
          "internalType": "address",
          "name": "to",
          "type": "address"
        },
        {
          "indexed": true,
          "internalType": "uint256",
          "name": "amount",
          "type": "uint256"
        }
      ],
      "name": "tokenMinted",
      "type": "event"
    },
    {
      "inputs": [],
      "name": "USDC_ADDRESS",
      "outputs": [
        {
          "internalType": "address",
          "name": "",
          "type": "address"
        }
      ],
      "stateMutability": "view",
      "type": "function"
    },
    {
      "inputs": [
        {
          "internalType": "uint256",
          "name": "stablecoinAmount",
          "type": "uint256"
        }
      ],
      "name": "borrowStablecoin",
      "outputs": [],
      "stateMutability": "nonpayable",
      "type": "function"
    },
    {
      "inputs": [
        {
          "internalType": "address",
          "name": "user",
          "type": "address"
        }
      ],
      "name": "canUserBeLiquidated",
      "outputs": [
        {
          "internalType": "bool",
          "name": "",
          "type": "bool"
        }
      ],
      "stateMutability": "view",
      "type": "function"
    },
    {
      "inputs": [],
      "name": "depositCollateral",
      "outputs": [],
      "stateMutability": "payable",
      "type": "function"
    },
    {
      "inputs": [],
      "name": "depositCollateralAndBorrowStablecoin",
      "outputs": [],
      "stateMutability": "payable",
      "type": "function"
    },
    {
      "inputs": [
        {
          "internalType": "uint256",
          "name": "amountStableCoin",
          "type": "uint256"
        }
      ],
      "name": "depositStablecoin",
      "outputs": [],
      "stateMutability": "nonpayable",
      "type": "function"
    },
    {
      "inputs": [
        {
          "internalType": "address",
          "name": "user",
          "type": "address"
        }
      ],
      "name": "getAccuredInterest",
      "outputs": [
        {
          "internalType": "uint256",
          "name": "",
          "type": "uint256"
        }
      ],
      "stateMutability": "view",
      "type": "function"
    },
    {
      "inputs": [
        {
          "internalType": "address",
          "name": "user",
          "type": "address"
        }
      ],
      "name": "getCollateralDepositBalance",
      "outputs": [
        {
          "internalType": "uint256",
          "name": "",
          "type": "uint256"
        }
      ],
      "stateMutability": "view",
      "type": "function"
    },
    {
      "inputs": [],
      "name": "getCollateralThreshold",
      "outputs": [
        {
          "internalType": "uint256",
          "name": "",
          "type": "uint256"
        }
      ],
      "stateMutability": "pure",
      "type": "function"
    },
    {
      "inputs": [
        {
          "internalType": "address",
          "name": "user",
          "type": "address"
        }
      ],
      "name": "getDebtBalance",
      "outputs": [
        {
          "internalType": "uint256",
          "name": "",
          "type": "uint256"
        }
      ],
      "stateMutability": "view",
      "type": "function"
    },
    {
      "inputs": [],
      "name": "getETHPrice",
      "outputs": [
        {
          "internalType": "uint256",
          "name": "",
          "type": "uint256"
        }
      ],
      "stateMutability": "view",
      "type": "function"
    },
    {
      "inputs": [
        {
          "internalType": "address",
          "name": "user",
          "type": "address"
        }
      ],
      "name": "getHealthFactor",
      "outputs": [
        {
          "internalType": "uint256",
          "name": "",
          "type": "uint256"
        }
      ],
      "stateMutability": "view",
      "type": "function"
    },
    {
      "inputs": [],
      "name": "getInterest",
      "outputs": [
        {
          "internalType": "uint256",
          "name": "",
          "type": "uint256"
        }
      ],
      "stateMutability": "pure",
      "type": "function"
    },
    {
      "inputs": [],
      "name": "getMaxBorrowableAmount",
      "outputs": [
        {
          "internalType": "uint256",
          "name": "",
          "type": "uint256"
        }
      ],
      "stateMutability": "view",
      "type": "function"
    },
    {
      "inputs": [],
      "name": "getMaxWithdrawableCollateral",
      "outputs": [
        {
          "internalType": "uint256",
          "name": "",
          "type": "uint256"
        }
      ],
      "stateMutability": "view",
      "type": "function"
    },
    {
      "inputs": [
        {
          "internalType": "address",
          "name": "user",
          "type": "address"
        }
      ],
      "name": "getMintedLendingToken",
      "outputs": [
        {
          "internalType": "uint256",
          "name": "",
          "type": "uint256"
        }
      ],
      "stateMutability": "view",
      "type": "function"
    },
    {
      "inputs": [
        {
          "internalType": "address",
          "name": "user",
          "type": "address"
        }
      ],
      "name": "getStableCoinBalance",
      "outputs": [
        {
          "internalType": "uint256",
          "name": "",
          "type": "uint256"
        }
      ],
      "stateMutability": "view",
      "type": "function"
    },
    {
      "inputs": [
        {
          "internalType": "address",
          "name": "tokenAddress",
          "type": "address"
        }
      ],
      "name": "getTokenPriceInUsd",
      "outputs": [
        {
          "internalType": "uint256",
          "name": "",
          "type": "uint256"
        }
      ],
      "stateMutability": "view",
      "type": "function"
    },
    {
      "inputs": [],
      "name": "getTotalStablecoinInPool",
      "outputs": [
        {
          "internalType": "uint256",
          "name": "",
          "type": "uint256"
        }
      ],
      "stateMutability": "view",
      "type": "function"
    },
    {
      "inputs": [],
      "name": "getTotalStablecoinSupply",
      "outputs": [
        {
          "internalType": "uint256",
          "name": "",
          "type": "uint256"
        }
      ],
      "stateMutability": "view",
      "type": "function"
    },
    {
      "inputs": [],
      "name": "getUSDCPrice",
      "outputs": [
        {
          "internalType": "uint256",
          "name": "",
          "type": "uint256"
        }
      ],
      "stateMutability": "view",
      "type": "function"
    },
    {
      "inputs": [
        {
          "internalType": "address",
          "name": "user",
          "type": "address"
        }
      ],
      "name": "getUserCollateralValueInUsd",
      "outputs": [
        {
          "internalType": "uint256",
          "name": "",
          "type": "uint256"
        }
      ],
      "stateMutability": "view",
      "type": "function"
    },
    {
      "inputs": [
        {
          "internalType": "address",
          "name": "user",
          "type": "address"
        }
      ],
      "name": "getUserTotalDebtInUsd",
      "outputs": [
        {
          "internalType": "uint256",
          "name": "",
          "type": "uint256"
        }
      ],
      "stateMutability": "view",
      "type": "function"
    },
    {
      "inputs": [],
      "name": "getYourAccruedDebtInterest",
      "outputs": [
        {
          "internalType": "uint256",
          "name": "",
          "type": "uint256"
        }
      ],
      "stateMutability": "view",
      "type": "function"
    },
    {
      "inputs": [],
      "name": "getYourBorrowedStablecoin",
      "outputs": [
        {
          "internalType": "uint256",
          "name": "",
          "type": "uint256"
        }
      ],
      "stateMutability": "view",
      "type": "function"
    },
    {
      "inputs": [],
      "name": "getYourCollateralDeposited",
      "outputs": [
        {
          "internalType": "uint256",
          "name": "",
          "type": "uint256"
        }
      ],
      "stateMutability": "view",
      "type": "function"
    },
    {
      "inputs": [],
      "name": "getYourCollateralValueInUSD",
      "outputs": [
        {
          "internalType": "uint256",
          "name": "",
          "type": "uint256"
        }
      ],
      "stateMutability": "view",
      "type": "function"
    },
    {
      "inputs": [],
      "name": "getYourDebtValueInUSD",
      "outputs": [
        {
          "internalType": "uint256",
          "name": "",
          "type": "uint256"
        }
      ],
      "stateMutability": "view",
      "type": "function"
    },
    {
      "inputs": [],
      "name": "getYourEarnedLendingInterest",
      "outputs": [
        {
          "internalType": "uint256",
          "name": "",
          "type": "uint256"
        }
      ],
      "stateMutability": "view",
      "type": "function"
    },
    {
      "inputs": [],
      "name": "getYourHealthFactor",
      "outputs": [
        {
          "internalType": "uint256",
          "name": "",
          "type": "uint256"
        }
      ],
      "stateMutability": "view",
      "type": "function"
    },
    {
      "inputs": [],
      "name": "getYourLendedStablecoin",
      "outputs": [
        {
          "internalType": "uint256",
          "name": "",
          "type": "uint256"
        }
      ],
      "stateMutability": "view",
      "type": "function"
    },
    {
      "inputs": [
        {
          "internalType": "address",
          "name": "stablecoin",
          "type": "address"
        }
      ],
      "name": "isStablecoinValid",
      "outputs": [
        {
          "internalType": "bool",
          "name": "",
          "type": "bool"
        }
      ],
      "stateMutability": "pure",
      "type": "function"
    },
    {
      "inputs": [
        {
          "internalType": "address",
          "name": "_borrower",
          "type": "address"
        },
        {
          "internalType": "uint256",
          "name": "repayAmount",
          "type": "uint256"
        }
      ],
      "name": "liquidate",
      "outputs": [],
      "stateMutability": "nonpayable",
      "type": "function"
    },
    {
      "inputs": [],
      "name": "owner",
      "outputs": [
        {
          "internalType": "address",
          "name": "",
          "type": "address"
        }
      ],
      "stateMutability": "view",
      "type": "function"
    },
    {
      "inputs": [],
      "name": "renounceOwnership",
      "outputs": [],
      "stateMutability": "nonpayable",
      "type": "function"
    },
    {
      "inputs": [
        {
          "internalType": "uint256",
          "name": "stablecoinAmountToRepay",
          "type": "uint256"
        }
      ],
      "name": "repayLoan",
      "outputs": [],
      "stateMutability": "nonpayable",
      "type": "function"
    },
    {
      "inputs": [],
      "name": "s_totalStablecoin",
      "outputs": [
        {
          "internalType": "uint256",
          "name": "",
          "type": "uint256"
        }
      ],
      "stateMutability": "view",
      "type": "function"
    },
    {
      "inputs": [
        {
          "internalType": "address",
          "name": "user",
          "type": "address"
        }
      ],
      "name": "totalTimePassed",
      "outputs": [
        {
          "internalType": "uint256",
          "name": "",
          "type": "uint256"
        }
      ],
      "stateMutability": "view",
      "type": "function"
    },
    {
      "inputs": [
        {
          "internalType": "address",
          "name": "newOwner",
          "type": "address"
        }
      ],
      "name": "transferOwnership",
      "outputs": [],
      "stateMutability": "nonpayable",
      "type": "function"
    },
    {
      "inputs": [
        {
          "internalType": "uint256",
          "name": "amountToWithdraw",
          "type": "uint256"
        }
      ],
      "name": "withdrawCollateral",
      "outputs": [],
      "stateMutability": "nonpayable",
      "type": "function"
    },
    {
      "inputs": [
        {
          "internalType": "uint256",
          "name": "amountStableCoin",
          "type": "uint256"
        }
      ],
      "name": "withdrawStablecoin",
      "outputs": [],
      "stateMutability": "nonpayable",
      "type": "function"
    }
  ],
  "bytecode": "0x60c06040523480156200001157600080fd5b50604051620031b0380380620031b08339810160408190526200003491620000f3565b600160005533806200006057604051631e4fbdf760e01b81526000600482015260240160405180910390fd5b6200006b8162000084565b506001600160a01b0391821660a052166080526200012b565b600180546001600160a01b038381166001600160a01b0319831681179093556040519116919082907f8be0079c531659141344cd1fd0a4f28419497f9722a3daafe3b4186f6b6457e090600090a35050565b80516001600160a01b0381168114620000ee57600080fd5b919050565b600080604083850312156200010757600080fd5b6200011283620000d6565b91506200012260208401620000d6565b90509250929050565b60805160a051612f7f620002316000396000818161082e0152818161096701528181610db20152818161109201528181611160015281816116760152818161179b0152818161184e0152818161194d01528181611d490152818161209d015281816122600152818161246701528181612556015281816126130152818161269e015281816127bc015281816128590152612c9901526000818161073101528181610a1401528181610c9201528181610fab015281816112ed0152818161136c0152818161143701528181611563015281816119f701528181611a8301528181611cb701528181611e160152818161201901528181612a4d0152612c050152612f7f6000f3fe6080604052600436106102465760003560e01c806380a9012b11610139578063bcbaf487116100b6578063e5a4bed31161007a578063e5a4bed314610628578063ef26475c1461063c578063f2fde38b14610683578063f5590562146106a3578063f96d947d146106c3578063fe6bcd7c146106f957600080fd5b8063bcbaf48714610587578063c5839dd1146105a7578063dadb7e79146105bc578063dbafccca146105dc578063dd2856d1146105f257600080fd5b8063a607a8d9116100fd578063a607a8d9146104fb578063ab7b1c8914610510578063ae48c70214610530578063b89a495b14610545578063bb09d9b71461056557600080fd5b806380a9012b1461046c578063870e974e1461048c5780638da5cb5b146104ac57806391b3a439146104de5780639d5ec1c5146104f357600080fd5b806358d398ef116101c75780636f7581401161018b5780636f758140146103d9578063715018a6146103e157806371ebcf53146103f65780637d52b6821461042c578063801a2d991461044c57600080fd5b806358d398ef1461035557806359f99c53146103775780636112fe2e1461039957806363ad31aa146103b95780636e16814f1461031757600080fd5b80633fb1bf3e1161020e5780633fb1bf3e146102e15780634469214b146103175780634ad517bc1461032c5780634fa2b53c14610341578063536f70261461024b57600080fd5b806303bd36061461024b578063042dcee31461027357806322f676b2146102955780632e1a2ce0146102b757806333c6c452146102cc575b600080fd5b34801561025757600080fd5b50610260610719565b6040519081526020015b60405180910390f35b34801561027f57600080fd5b5033600090815260046020526040902054610260565b3480156102a157600080fd5b5033600090815260026020526040902054610260565b3480156102c357600080fd5b506102606107aa565b3480156102d857600080fd5b506102606108da565b3480156102ed57600080fd5b506102606102fc366004612df8565b6001600160a01b031660009081526004602052604090205490565b34801561032357600080fd5b50600854610260565b34801561033857600080fd5b50610260610941565b34801561034d57600080fd5b506096610260565b34801561036157600080fd5b5033600090815260036020526040902054610260565b34801561038357600080fd5b50610397610392366004612e13565b61099e565b005b3480156103a557600080fd5b506103976103b4366004612e13565b610bc7565b3480156103c557600080fd5b506102606103d4366004612df8565b610eb7565b610397610f45565b3480156103ed57600080fd5b5061039761112a565b34801561040257600080fd5b50610260610411366004612df8565b6001600160a01b031660009081526003602052604090205490565b34801561043857600080fd5b50610260610447366004612df8565b61113e565b34801561045857600080fd5b50610260610467366004612df8565b6111ce565b34801561047857600080fd5b50610260610487366004612df8565b6111d9565b34801561049857600080fd5b506103976104a7366004612e13565b6111e4565b3480156104b857600080fd5b506001546001600160a01b03165b6040516001600160a01b03909116815260200161026a565b3480156104ea57600080fd5b50610260611600565b610397611751565b34801561050757600080fd5b50610260611949565b34801561051c57600080fd5b5061039761052b366004612e13565b6119a9565b34801561053c57600080fd5b50610260611de9565b34801561055157600080fd5b50610260610560366004612df8565b611df4565b34801561057157600080fd5b506104c6600080516020612f2a83398151915281565b34801561059357600080fd5b506103976105a2366004612e2c565b611e47565b3480156105b357600080fd5b50610260611fb3565b3480156105c857600080fd5b506103976105d7366004612e13565b611fbe565b3480156105e857600080fd5b5061026060085481565b3480156105fe57600080fd5b5061026061060d366004612df8565b6001600160a01b031660009081526006602052604090205490565b34801561063457600080fd5b506005610260565b34801561064857600080fd5b50610673610657366004612df8565b6001600160a01b0316600080516020612f2a8339815191521490565b604051901515815260200161026a565b34801561068f57600080fd5b5061039761069e366004612df8565b612316565b3480156106af57600080fd5b506106736106be366004612df8565b612351565b3480156106cf57600080fd5b506102606106de366004612df8565b6001600160a01b031660009081526002602052604090205490565b34801561070557600080fd5b50610260610714366004612df8565b6123cf565b60405163b89a495b60e01b81523360048201526000907f00000000000000000000000000000000000000000000000000000000000000006001600160a01b03169063b89a495b906024015b602060405180830381865afa158015610781573d6000803e3d6000fd5b505050506040513d601f19601f820116820180604052508101906107a59190612e56565b905090565b6000806107b633612438565b9050600060966107c7836064612e85565b6107d19190612e9c565b905060006107de33612511565b90508181106107f1576000935050505090565b60006107fd8284612ebe565b6040516302c68be360e31b8152600080516020612f2a83398151915260048201529091506000906001600160a01b037f000000000000000000000000000000000000000000000000000000000000000016906316345f1890602401602060405180830381865afa158015610875573d6000803e3d6000fd5b505050506040513d601f19601f820116820180604052508101906108999190612e56565b90506000816108b084670de0b6b3a7640000612e85565b6108ba9190612e9c565b905060085481116108cb57806108cf565b6008545b965050505050505090565b6000806108e633612438565b905060006108f333612511565b905080600003610907576000199250505090565b610912816064612e85565b6096610926670de0b6b3a764000085612e85565b6109309190612e85565b61093a9190612e9c565b9250505090565b6040516302c68be360e31b8152600080516020612f2a83398151915260048201526000907f00000000000000000000000000000000000000000000000000000000000000006001600160a01b0316906316345f1890602401610764565b600080516020612f2a83398151915281806000036109cf5760405163cb1d3f7d60e01b815260040160405180910390fd5b6109d761259f565b3360009081526002602052604090205415610a7d573360008181526002602052604090819020549051631cc0af0360e11b81526001600160a01b037f000000000000000000000000000000000000000000000000000000000000000016926339815e0692610a4a92600190600401612ed1565b600060405180830381600087803b158015610a6457600080fd5b505af1158015610a78573d6000803e3d6000fd5b505050505b336000908152600760205260408120549003610aa6573360009081526007602052604090204290555b6040516323b872dd60e01b815233600482015230602482015260448101849052600090600080516020612f2a833981519152906323b872dd906064016020604051808303816000875af1158015610b01573d6000803e3d6000fd5b505050506040513d601f19601f82011682018060405250810190610b259190612ef4565b905080610b4557604051634dc34d1760e01b815260040160405180910390fd5b3360009081526002602052604081208054869290610b64908490612f16565b925050819055508360086000828254610b7d9190612f16565b909155505060405184815233907f66cef183dbc45fd6ab6c6cfd4ada8f7b1780d070873ce30723107d9f644ec6609060200160405180910390a250610bc26001600055565b505050565b8080600003610be95760405163cb1d3f7d60e01b815260040160405180910390fd5b610bf161259f565b3360009081526003602052604090205482811015610c695760405162461bcd60e51b815260206004820152602a60248201527f20416d6f756e74206578636565647320746f74616c20636f6c6c61746572616c6044820152690819195c1bdcda5d195960b21b60648201526084015b60405180910390fd5b336000818152600460208190526040808320549051631cc0af0360e11b81526001600160a01b037f000000000000000000000000000000000000000000000000000000000000000016946339815e0694610cc894919392909101612ed1565b600060405180830381600087803b158015610ce257600080fd5b505af1158015610cf6573d6000803e3d6000fd5b5050505060008382610d089190612ebe565b90506000610d15336125c9565b90506000610d2283612685565b9050610d2e81836126d5565b610d7a5760405162461bcd60e51b815260206004820152601d60248201527f436f6c6c61746572616c207468726573686f6c642062726561636865640000006044820152606401610c60565b336000818152600360205260409081902085905551633d6fe0dd60e21b81526004810191909152602481018490526001600160a01b037f0000000000000000000000000000000000000000000000000000000000000000169063f5bf837490604401600060405180830381600087803b158015610df657600080fd5b505af1158015610e0a573d6000803e3d6000fd5b50506040516000925033915088908381818185875af1925050503d8060008114610e50576040519150601f19603f3d011682016040523d82523d6000602084013e610e55565b606091505b5050905080610e7757604051634dc34d1760e01b815260040160405180910390fd5b604051879033907fc30fcfbcaac9e0deffa719714eaa82396ff506a0d0d0eebe170830177288715d90600090a35050505050610eb36001600055565b5050565b6001600160a01b038116600090815260076020526040812054610f1c5760405162461bcd60e51b815260206004820152601a60248201527f5573657220686173206e6f74206465706f7369746564207965740000000000006044820152606401610c60565b6001600160a01b038216600090815260076020526040902054610f3f9042612ebe565b92915050565b3480600003610f675760405163cb1d3f7d60e01b815260040160405180910390fd5b610f6f61259f565b33600090815260036020526040902054156110135733600081815260036020526040808220549051631cc0af0360e11b81526001600160a01b037f000000000000000000000000000000000000000000000000000000000000000016936339815e0693610fe0939192600401612ed1565b600060405180830381600087803b158015610ffa57600080fd5b505af115801561100e573d6000803e3d6000fd5b505050505b33600090815260076020526040812054900361103c573360009081526007602052604090204290555b33600090815260036020526040812054906110573483612f16565b336000818152600360205260409081902083905551633d6fe0dd60e21b81526004810191909152602481018290529091506001600160a01b037f0000000000000000000000000000000000000000000000000000000000000000169063f5bf837490604401600060405180830381600087803b1580156110d657600080fd5b505af11580156110ea573d6000803e3d6000fd5b50506040513492503391507fd7243f6f8212d5188fd054141cf6ea89cfc0d91facb8c3afe2f88a135848014290600090a350506111276001600055565b50565b61113261270b565b61113c6000612738565b565b6040516302c68be360e31b81526001600160a01b0382811660048301526000917f0000000000000000000000000000000000000000000000000000000000000000909116906316345f18906024015b602060405180830381865afa1580156111aa573d6000803e3d6000fd5b505050506040513d601f19601f82011682018060405250810190610f3f9190612e56565b6000610f3f82612511565b6000610f3f82612438565b600080516020612f2a83398151915281806000036112155760405163cb1d3f7d60e01b815260040160405180910390fd5b61121d61259f565b336000908152600260205260409020548311156112735760405162461bcd60e51b8152602060048201526014602482015273496e73756666696369656e742062616c616e636560601b6044820152606401610c60565b8260085410156112c55760405162461bcd60e51b815260206004820152601f60248201527f496e73756666696369656e742070726f746f636f6c206c6971756964697479006044820152606401610c60565b3360008181526002602052604090819020549051631cc0af0360e11b81526001600160a01b037f000000000000000000000000000000000000000000000000000000000000000016926339815e069261132392600190600401612ed1565b600060405180830381600087803b15801561133d57600080fd5b505af1158015611351573d6000803e3d6000fd5b505060405163b89a495b60e01b8152336004820152600092507f00000000000000000000000000000000000000000000000000000000000000006001600160a01b0316915063b89a495b90602401602060405180830381865afa1580156113bc573d6000803e3d6000fd5b505050506040513d601f19601f820116820180604052508101906113e09190612e56565b33600090815260026020526040812080549293508692909190611404908490612ebe565b92505081905550836008600082825461141d9190612ebe565b90915550506040516323d0aab160e01b81523360048201527f00000000000000000000000000000000000000000000000000000000000000006001600160a01b0316906323d0aab190602401600060405180830381600087803b15801561148357600080fd5b505af1158015611497573d6000803e3d6000fd5b5060009250600080516020612f2a833981519152915063a9059cbb9050336114bf8589612f16565b6040516001600160e01b031960e085901b1681526001600160a01b03909216600483015260248201526044016020604051808303816000875af115801561150a573d6000803e3d6000fd5b505050506040513d601f19601f8201168201806040525081019061152e9190612ef4565b90508061154e57604051634dc34d1760e01b815260040160405180910390fd5b6040516323d0aab160e01b81523360048201527f00000000000000000000000000000000000000000000000000000000000000006001600160a01b0316906323d0aab190602401600060405180830381600087803b1580156115af57600080fd5b505af11580156115c3573d6000803e3d6000fd5b50506040518792503391507f13f1180d41ad6611b3b08bbafa35e4540fdd948fe7ada6fa37137e3e46cbb77290600090a35050610bc26001600055565b60008061160c33612511565b90508060000361162b5750503360009081526003602052604090205490565b6000606461163a609684612e85565b6116449190612e9c565b9050600061165133612438565b9050818111611664576000935050505090565b60006116708383612ebe565b905060007f00000000000000000000000000000000000000000000000000000000000000006001600160a01b031663a625d21d6040518163ffffffff1660e01b8152600401602060405180830381865afa1580156116d2573d6000803e3d6000fd5b505050506040513d601f19601f820116820180604052508101906116f69190612e56565b905060008161170d84670de0b6b3a7640000612e85565b6117179190612e9c565b33600090815260036020526040902054909150811161173657806108cf565b33600090815260036020526040902054965050505050505090565b34806000036117735760405163cb1d3f7d60e01b815260040160405180910390fd5b61177b61259f565b611783610f45565b604051630d82fdc960e11b81523460048201526000907f00000000000000000000000000000000000000000000000000000000000000006001600160a01b031690631b05fb9290602401602060405180830381865afa1580156117ea573d6000803e3d6000fd5b505050506040513d601f19601f8201168201806040525081019061180e9190612e56565b9050600061181d600283612e9c565b6040516302c68be360e31b8152600080516020612f2a83398151915260048201529091506000906001600160a01b037f000000000000000000000000000000000000000000000000000000000000000016906316345f1890602401602060405180830381865afa158015611895573d6000803e3d6000fd5b505050506040513d601f19601f820116820180604052508101906118b99190612e56565b90506000816118d084670de0b6b3a7640000612e85565b6118da9190612e9c565b905060085481116118eb57806118ef565b6008545b905080156119005761190081611fbe565b604080513481526020810183905233917fc913d0af25ee3f92d7fd23fa1cfbed7dc2a6b514f9b2e013f18289be5be11b90910160405180910390a2505050506111276001600055565b60007f00000000000000000000000000000000000000000000000000000000000000006001600160a01b031663a625d21d6040518163ffffffff1660e01b8152600401602060405180830381865afa158015610781573d6000803e3d6000fd5b80806000036119cb5760405163cb1d3f7d60e01b815260040160405180910390fd5b6119d361259f565b600080516020612f2a83398151915260405163b89a495b60e01b81523360048201527f00000000000000000000000000000000000000000000000000000000000000006001600160a01b03169063b89a495b90602401602060405180830381865afa158015611a46573d6000803e3d6000fd5b505050506040513d601f19601f82011682018060405250810190611a6a9190612e56565b5060405163b89a495b60e01b81523360048201526000907f00000000000000000000000000000000000000000000000000000000000000006001600160a01b03169063b89a495b90602401602060405180830381865afa158015611ad2573d6000803e3d6000fd5b505050506040513d601f19601f82011682018060405250810190611af69190612e56565b33600090815260046020526040812054919250611b138383612f16565b905060008111611b5b5760405162461bcd60e51b8152602060048201526013602482015272139bc81bdd5d1cdd185b991a5b99c81919589d606a1b6044820152606401610c60565b80861015611bab5760405162461bcd60e51b815260206004820152601960248201527f526570617920616d6f756e7420657863656564732064656274000000000000006044820152606401610c60565b6040516323b872dd60e01b815233600482015230602482015260448101879052600090600080516020612f2a833981519152906323b872dd906064016020604051808303816000875af1158015611c06573d6000803e3d6000fd5b505050506040513d601f19601f82011682018060405250810190611c2a9190612ef4565b905080611c4a57604051630780770360e11b815260040160405180910390fd5b868211611c58576000611c62565b611c628783612ebe565b3360009081526004602052604081209190915560088054899290611c87908490612f16565b9091555050336000908152600460205260408120549003611d1c576040516323d0aab160e01b81523360048201527f00000000000000000000000000000000000000000000000000000000000000006001600160a01b0316906323d0aab190602401600060405180830381600087803b158015611d0357600080fd5b505af1158015611d17573d6000803e3d6000fd5b505050505b3360008181526003602052604090819020549051633d6fe0dd60e21b8152600481019290925260248201527f00000000000000000000000000000000000000000000000000000000000000006001600160a01b03169063f5bf837490604401600060405180830381600087803b158015611d9557600080fd5b505af1158015611da9573d6000803e3d6000fd5b50506040518992503391507fc200a1f31dd659e356e0f112c82558e25f49f7b0f84438691cd96f5cb355882390600090a35050505050610eb36001600055565b60006107a533612438565b60405163b89a495b60e01b81526001600160a01b0382811660048301526000917f00000000000000000000000000000000000000000000000000000000000000009091169063b89a495b9060240161118d565b611e4f61259f565b600080516020612f2a8339815191528180600003611e805760405163cb1d3f7d60e01b815260040160405180910390fd5b6001600160a01b038416600090815260046020526040902054611edc5760405162461bcd60e51b8152602060048201526014602482015273109bdc9c9bddd95c881a185cc81b9bc81919589d60621b6044820152606401610c60565b600083118015611f0457506001600160a01b0384166000908152600460205260409020548311155b611f475760405162461bcd60e51b8152602060048201526014602482015273125b9d985b1a59081c995c185e48185b5bdd5b9d60621b6044820152606401610c60565b6000611f53858561278a565b9050611f6085858361296d565b60408051858152602081018390526001600160a01b0387169133917f4ecae3269f800df64b16cb9f6f8b0b507018888521d1cff0841823e44bc0b00d910160405180910390a3505050610eb36001600055565b60006107a533612511565b8080600003611fe05760405163cb1d3f7d60e01b815260040160405180910390fd5b611fe861259f565b336000818152600460208190526040808320549051631cc0af0360e11b8152600080516020612f2a833981519152947f00000000000000000000000000000000000000000000000000000000000000006001600160a01b0316946339815e069461205494929301612ed1565b600060405180830381600087803b15801561206e57600080fd5b505af1158015612082573d6000803e3d6000fd5b5050604051634bc8272160e11b8152336004820152600092507f00000000000000000000000000000000000000000000000000000000000000006001600160a01b031691506397904e4290602401602060405180830381865afa1580156120ed573d6000803e3d6000fd5b505050506040513d601f19601f820116820180604052508101906121119190612e56565b905060006064612122609687612e85565b61212c9190612e9c565b9050818111156121765760405162461bcd60e51b8152602060048201526015602482015274139bdd08195b9bdd59da0818dbdb1b185d195c985b605a1b6044820152606401610c60565b3360009081526004602052604081208054879290612195908490612f16565b909155505060405163a9059cbb60e01b815233600482015260248101869052600090600080516020612f2a8339815191529063a9059cbb906044016020604051808303816000875af11580156121ef573d6000803e3d6000fd5b505050506040513d601f19601f820116820180604052508101906122139190612ef4565b9050806122335760405163116be6cb60e21b815260040160405180910390fd5b3360008181526003602052604090819020549051633d6fe0dd60e21b8152600481019290925260248201527f00000000000000000000000000000000000000000000000000000000000000006001600160a01b03169063f5bf837490604401600060405180830381600087803b1580156122ac57600080fd5b505af11580156122c0573d6000803e3d6000fd5b5050505085600860008282546122d69190612ebe565b9091555050604051869033907f55ca543acfe189813a500eaff658acafb5d2345c0db5314154e00ac8c9d3b91f90600090a350505050610eb36001600055565b61231e61270b565b6001600160a01b03811661234857604051631e4fbdf760e01b815260006004820152602401610c60565b61112781612738565b604051633f9af35f60e21b81526001600160a01b03821660048201526000908190309063fe6bcd7c90602401602060405180830381865afa15801561239a573d6000803e3d6000fd5b505050506040513d601f19601f820116820180604052508101906123be9190612e56565b670de0b6b3a7640000119392505050565b6000806123db83612438565b905060006123e884612511565b9050806000036123fd57506000199392505050565b612408816064612e85565b609661241c670de0b6b3a764000085612e85565b6124269190612e85565b6124309190612e9c565b949350505050565b60008060036000846001600160a01b03166001600160a01b0316815260200190815260200160002054905060007f00000000000000000000000000000000000000000000000000000000000000006001600160a01b031663a625d21d6040518163ffffffff1660e01b8152600401602060405180830381865afa1580156124c3573d6000803e3d6000fd5b505050506040513d601f19601f820116820180604052508101906124e79190612e56565b90506000670de0b6b3a76400006124fe8385612e85565b6125089190612e9c565b95945050505050565b6001600160a01b0381811660009081526004602081905260408083205490516302c68be360e31b8152600080516020612f2a83398151915292810192909252919283917f0000000000000000000000000000000000000000000000000000000000000000909116906316345f1890602401602060405180830381865afa1580156124c3573d6000803e3d6000fd5b6002600054036125c257604051633ee5aeb560e01b815260040160405180910390fd5b6002600055565b6001600160a01b0381811660009081526004602081905260408083205490516351c8572160e11b8152600080516020612f2a833981519152928101929092526024820181905291927f0000000000000000000000000000000000000000000000000000000000000000169063a390ae4290604401602060405180830381865afa15801561265a573d6000803e3d6000fd5b505050506040513d601f19601f8201168201806040525081019061267e9190612e56565b9392505050565b604051630d82fdc960e11b8152600481018290526000907f00000000000000000000000000000000000000000000000000000000000000006001600160a01b031690631b05fb929060240161118d565b6000816000036126e757506001610f3f565b6000826126f5856064612e85565b6126ff9190612e9c565b60961115949350505050565b6001546001600160a01b0316331461113c5760405163118cdaa760e01b8152336004820152602401610c60565b600180546001600160a01b038381166001600160a01b0319831681179093556040519116919082907f8be0079c531659141344cd1fd0a4f28419497f9722a3daafe3b4186f6b6457e090600090a35050565b6040516351c8572160e11b8152600080516020612f2a833981519152600482015260248101829052600090600a9082907f00000000000000000000000000000000000000000000000000000000000000006001600160a01b03169063a390ae4290604401602060405180830381865afa15801561280b573d6000803e3d6000fd5b505050506040513d601f19601f8201168201806040525081019061282f9190612e56565b90506000606461283f8482612f16565b6128499084612e85565b6128539190612e9c565b905060007f00000000000000000000000000000000000000000000000000000000000000006001600160a01b031663a625d21d6040518163ffffffff1660e01b8152600401602060405180830381865afa1580156128b5573d6000803e3d6000fd5b505050506040513d601f19601f820116820180604052508101906128d99190612e56565b9050806128ee83670de0b6b3a7640000612e85565b6128f89190612e9c565b6001600160a01b0388166000908152600360205260409020549095508211156129635760405162461bcd60e51b815260206004820152601e60248201527f4e6f7420656e6f75676820636f6c6c61746572616c20746f207365697a6500006044820152606401610c60565b5050505092915050565b61297683612d67565b6129c25760405162461bcd60e51b815260206004820152601d60248201527f55736572206973206e6f7420756e646572636f6c6c61746572697a65640000006044820152606401610c60565b6001600160a01b038316600090815260036020526040902054811115612a225760405162461bcd60e51b8152602060048201526015602482015274139bdd08115b9bdd59da0818dbdb1b185d195c985b605a1b6044820152606401610c60565b6001600160a01b038381166000908152600460208190526040808320549051631cc0af0360e11b81527f0000000000000000000000000000000000000000000000000000000000000000909416936339815e0693612a839389939201612ed1565b600060405180830381600087803b158015612a9d57600080fd5b505af1158015612ab1573d6000803e3d6000fd5b50506040516323b872dd60e01b81523360048201523060248201526044810185905260009250600080516020612f2a83398151915291506323b872dd906064016020604051808303816000875af1158015612b10573d6000803e3d6000fd5b505050506040513d601f19601f82011682018060405250810190612b349190612ef4565b905080612b545760405163255a46f960e11b815260040160405180910390fd5b6001600160a01b03841660009081526004602052604081208054859290612b7c908490612ebe565b90915550506001600160a01b03841660009081526003602052604081208054849290612ba9908490612ebe565b925050819055508260086000828254612bc29190612f16565b90915550506001600160a01b0384166000908152600460205260408120549003612c62576040516323d0aab160e01b81526001600160a01b0385811660048301527f000000000000000000000000000000000000000000000000000000000000000016906323d0aab190602401600060405180830381600087803b158015612c4957600080fd5b505af1158015612c5d573d6000803e3d6000fd5b505050505b6001600160a01b0384811660008181526003602052604090819020549051633d6fe0dd60e21b8152600481019290925260248201527f00000000000000000000000000000000000000000000000000000000000000009091169063f5bf837490604401600060405180830381600087803b158015612cdf57600080fd5b505af1158015612cf3573d6000803e3d6000fd5b50506040516000925033915084908381818185875af1925050503d8060008114612d39576040519150601f19603f3d011682016040523d82523d6000602084013e612d3e565b606091505b5050905080612d605760405163255a46f960e11b815260040160405180910390fd5b5050505050565b600080612d7383612438565b90506000612d8084612511565b905080600003612d94575060009392505050565b6000612da1826064612e85565b6096612db5670de0b6b3a764000086612e85565b612dbf9190612e85565b612dc99190612e9c565b670de0b6b3a76400001195945050505050565b80356001600160a01b0381168114612df357600080fd5b919050565b600060208284031215612e0a57600080fd5b61267e82612ddc565b600060208284031215612e2557600080fd5b5035919050565b60008060408385031215612e3f57600080fd5b612e4883612ddc565b946020939093013593505050565b600060208284031215612e6857600080fd5b5051919050565b634e487b7160e01b600052601160045260246000fd5b8082028115828204841417610f3f57610f3f612e6f565b600082612eb957634e487b7160e01b600052601260045260246000fd5b500490565b81810381811115610f3f57610f3f612e6f565b6001600160a01b0393909316835260208301919091521515604082015260600190565b600060208284031215612f0657600080fd5b8151801515811461267e57600080fd5b80820180821115610f3f57610f3f612e6f56fe00000000000000000000000076efc6b7adac502dc210f255ea8420672c1355d3a264697066735822122025254db719c7a810cd8a248e9652658717e55c7e9970f70b2f08ce6ffd569f3364736f6c63430008140033",
  "linkReferences": {},
  "deployedLinkReferences": {}
}