{
  "_format": "hh-sol-artifact-1",
  "contractName": "DSCEngine",
  "sourceName": "contracts/DSCEngine.sol",
  "abi": [
    {
      "inputs": [
        {
          "internalType": "address",
          "name": "priceOracleAddress",
          "type": "address"
        },
        {
          "internalType": "address",
          "name": "InterestRateModelAddress",
          "type": "address"
        }
      ],
      "stateMutability": "nonpayable",
      "type": "constructor"
    },
    {
      "inputs": [],
      "name": "DSCEngine__LiquidationFailed",
      "type": "error"
    },
    {
      "inputs": [],
      "name": "DSCEngine__LoanRepaymentFailed",
      "type": "error"
    },
    {
      "inputs": [],
      "name": "DSCEngine__Mintfailed",
      "type": "error"
    },
    {
      "inputs": [],
      "name": "DSCEngine__NeedsMoreThanZero",
      "type": "error"
    },
    {
      "inputs": [],
      "name": "DSCEngine__NotAllowedCollateral",
      "type": "error"
    },
    {
      "inputs": [],
      "name": "DSCEngine__NotAllowedToken",
      "type": "error"
    },
    {
      "inputs": [],
      "name": "DSCEngine__StablecoinBorrowFailed",
      "type": "error"
    },
    {
      "inputs": [],
      "name": "DSCEngine__TokenBurnFailed",
      "type": "error"
    },
    {
      "inputs": [],
      "name": "DSCEngine__TokenToMintExceedsDepositedStablecoin",
      "type": "error"
    },
    {
      "inputs": [],
      "name": "DSCEngine__TransferFailed",
      "type": "error"
    },
    {
      "inputs": [],
      "name": "DSCEngine__WithdrawCollateralFailed",
      "type": "error"
    },
    {
      "inputs": [
        {
          "internalType": "address",
          "name": "owner",
          "type": "address"
        }
      ],
      "name": "OwnableInvalidOwner",
      "type": "error"
    },
    {
      "inputs": [
        {
          "internalType": "address",
          "name": "account",
          "type": "address"
        }
      ],
      "name": "OwnableUnauthorizedAccount",
      "type": "error"
    },
    {
      "inputs": [],
      "name": "ReentrancyGuardReentrantCall",
      "type": "error"
    },
    {
      "inputs": [
        {
          "internalType": "address",
          "name": "token",
          "type": "address"
        }
      ],
      "name": "SafeERC20FailedOperation",
      "type": "error"
    },
    {
      "anonymous": false,
      "inputs": [
        {
          "indexed": true,
          "internalType": "address",
          "name": "from",
          "type": "address"
        },
        {
          "indexed": true,
          "internalType": "uint256",
          "name": "amount",
          "type": "uint256"
        }
      ],
      "name": "CollateralDeposited",
      "type": "event"
    },
    {
      "anonymous": false,
      "inputs": [
        {
          "indexed": true,
          "internalType": "address",
          "name": "user",
          "type": "address"
        },
        {
          "indexed": false,
          "internalType": "uint256",
          "name": "collateralAmount",
          "type": "uint256"
        },
        {
          "indexed": false,
          "internalType": "uint256",
          "name": "borrowedAmount",
          "type": "uint256"
        }
      ],
      "name": "CollateralDepositedAndBorrowed",
      "type": "event"
    },
    {
      "anonymous": false,
      "inputs": [
        {
          "indexed": true,
          "internalType": "address",
          "name": "from",
          "type": "address"
        },
        {
          "indexed": true,
          "internalType": "uint256",
          "name": "amount",
          "type": "uint256"
        }
      ],
      "name": "CollateralWithdrawn",
      "type": "event"
    },
    {
      "anonymous": false,
      "inputs": [
        {
          "indexed": true,
          "internalType": "address",
          "name": "liquidator",
          "type": "address"
        },
        {
          "indexed": true,
          "internalType": "address",
          "name": "borrower",
          "type": "address"
        },
        {
          "indexed": false,
          "internalType": "uint256",
          "name": "debtAmount",
          "type": "uint256"
        },
        {
          "indexed": false,
          "internalType": "uint256",
          "name": "collateralSeized",
          "type": "uint256"
        }
      ],
      "name": "Liquidation",
      "type": "event"
    },
    {
      "anonymous": false,
      "inputs": [
        {
          "indexed": true,
          "internalType": "address",
          "name": "from",
          "type": "address"
        },
        {
          "indexed": true,
          "internalType": "uint256",
          "name": "amount",
          "type": "uint256"
        }
      ],
      "name": "LoanRepaid",
      "type": "event"
    },
    {
      "anonymous": false,
      "inputs": [
        {
          "indexed": true,
          "internalType": "address",
          "name": "previousOwner",
          "type": "address"
        },
        {
          "indexed": true,
          "internalType": "address",
          "name": "newOwner",
          "type": "address"
        }
      ],
      "name": "OwnershipTransferred",
      "type": "event"
    },
    {
      "anonymous": false,
      "inputs": [
        {
          "indexed": true,
          "internalType": "address",
          "name": "from",
          "type": "address"
        },
        {
          "indexed": false,
          "internalType": "uint256",
          "name": "amount",
          "type": "uint256"
        }
      ],
      "name": "StableCoinDeposited",
      "type": "event"
    },
    {
      "anonymous": false,
      "inputs": [
        {
          "indexed": true,
          "internalType": "address",
          "name": "from",
          "type": "address"
        },
        {
          "indexed": true,
          "internalType": "uint256",
          "name": "amount",
          "type": "uint256"
        }
      ],
      "name": "StableCoinWithdrawed",
      "type": "event"
    },
    {
      "anonymous": false,
      "inputs": [
        {
          "indexed": true,
          "internalType": "address",
          "name": "from",
          "type": "address"
        },
        {
          "indexed": true,
          "internalType": "uint256",
          "name": "amount",
          "type": "uint256"
        }
      ],
      "name": "StablecoinBorrowed",
      "type": "event"
    },
    {
      "anonymous": false,
      "inputs": [
        {
          "indexed": true,
          "internalType": "address",
          "name": "to",
          "type": "address"
        },
        {
          "indexed": true,
          "internalType": "uint256",
          "name": "amount",
          "type": "uint256"
        }
      ],
      "name": "tokenMinted",
      "type": "event"
    },
    {
      "inputs": [],
      "name": "USDC_ADDRESS",
      "outputs": [
        {
          "internalType": "address",
          "name": "",
          "type": "address"
        }
      ],
      "stateMutability": "view",
      "type": "function"
    },
    {
      "inputs": [
        {
          "internalType": "uint256",
          "name": "stablecoinAmount",
          "type": "uint256"
        }
      ],
      "name": "borrowStablecoin",
      "outputs": [],
      "stateMutability": "nonpayable",
      "type": "function"
    },
    {
      "inputs": [
        {
          "internalType": "address",
          "name": "user",
          "type": "address"
        }
      ],
      "name": "canUserBeLiquidated",
      "outputs": [
        {
          "internalType": "bool",
          "name": "",
          "type": "bool"
        }
      ],
      "stateMutability": "view",
      "type": "function"
    },
    {
      "inputs": [],
      "name": "depositCollateral",
      "outputs": [],
      "stateMutability": "payable",
      "type": "function"
    },
    {
      "inputs": [],
      "name": "depositCollateralAndBorrowStablecoin",
      "outputs": [],
      "stateMutability": "payable",
      "type": "function"
    },
    {
      "inputs": [
        {
          "internalType": "uint256",
          "name": "amountStableCoin",
          "type": "uint256"
        }
      ],
      "name": "depositStablecoin",
      "outputs": [],
      "stateMutability": "nonpayable",
      "type": "function"
    },
    {
      "inputs": [
        {
          "internalType": "address",
          "name": "user",
          "type": "address"
        }
      ],
      "name": "getAccuredInterest",
      "outputs": [
        {
          "internalType": "uint256",
          "name": "",
          "type": "uint256"
        }
      ],
      "stateMutability": "view",
      "type": "function"
    },
    {
      "inputs": [
        {
          "internalType": "address",
          "name": "user",
          "type": "address"
        }
      ],
      "name": "getCollateralDepositBalance",
      "outputs": [
        {
          "internalType": "uint256",
          "name": "",
          "type": "uint256"
        }
      ],
      "stateMutability": "view",
      "type": "function"
    },
    {
      "inputs": [],
      "name": "getCollateralThreshold",
      "outputs": [
        {
          "internalType": "uint256",
          "name": "",
          "type": "uint256"
        }
      ],
      "stateMutability": "pure",
      "type": "function"
    },
    {
      "inputs": [
        {
          "internalType": "address",
          "name": "user",
          "type": "address"
        }
      ],
      "name": "getDebtBalance",
      "outputs": [
        {
          "internalType": "uint256",
          "name": "",
          "type": "uint256"
        }
      ],
      "stateMutability": "view",
      "type": "function"
    },
    {
      "inputs": [],
      "name": "getETHPrice",
      "outputs": [
        {
          "internalType": "uint256",
          "name": "",
          "type": "uint256"
        }
      ],
      "stateMutability": "view",
      "type": "function"
    },
    {
      "inputs": [
        {
          "internalType": "address",
          "name": "user",
          "type": "address"
        }
      ],
      "name": "getHealthFactor",
      "outputs": [
        {
          "internalType": "uint256",
          "name": "",
          "type": "uint256"
        }
      ],
      "stateMutability": "view",
      "type": "function"
    },
    {
      "inputs": [],
      "name": "getInterest",
      "outputs": [
        {
          "internalType": "uint256",
          "name": "",
          "type": "uint256"
        }
      ],
      "stateMutability": "pure",
      "type": "function"
    },
    {
      "inputs": [],
      "name": "getMaxBorrowableAmount",
      "outputs": [
        {
          "internalType": "uint256",
          "name": "",
          "type": "uint256"
        }
      ],
      "stateMutability": "view",
      "type": "function"
    },
    {
      "inputs": [],
      "name": "getMaxWithdrawableCollateral",
      "outputs": [
        {
          "internalType": "uint256",
          "name": "",
          "type": "uint256"
        }
      ],
      "stateMutability": "view",
      "type": "function"
    },
    {
      "inputs": [
        {
          "internalType": "address",
          "name": "user",
          "type": "address"
        }
      ],
      "name": "getMintedLendingToken",
      "outputs": [
        {
          "internalType": "uint256",
          "name": "",
          "type": "uint256"
        }
      ],
      "stateMutability": "view",
      "type": "function"
    },
    {
      "inputs": [
        {
          "internalType": "address",
          "name": "user",
          "type": "address"
        }
      ],
      "name": "getStableCoinBalance",
      "outputs": [
        {
          "internalType": "uint256",
          "name": "",
          "type": "uint256"
        }
      ],
      "stateMutability": "view",
      "type": "function"
    },
    {
      "inputs": [
        {
          "internalType": "address",
          "name": "tokenAddress",
          "type": "address"
        }
      ],
      "name": "getTokenPriceInUsd",
      "outputs": [
        {
          "internalType": "uint256",
          "name": "",
          "type": "uint256"
        }
      ],
      "stateMutability": "view",
      "type": "function"
    },
    {
      "inputs": [],
      "name": "getTotalStablecoinInPool",
      "outputs": [
        {
          "internalType": "uint256",
          "name": "",
          "type": "uint256"
        }
      ],
      "stateMutability": "view",
      "type": "function"
    },
    {
      "inputs": [],
      "name": "getTotalStablecoinSupply",
      "outputs": [
        {
          "internalType": "uint256",
          "name": "",
          "type": "uint256"
        }
      ],
      "stateMutability": "view",
      "type": "function"
    },
    {
      "inputs": [],
      "name": "getUSDCPrice",
      "outputs": [
        {
          "internalType": "uint256",
          "name": "",
          "type": "uint256"
        }
      ],
      "stateMutability": "view",
      "type": "function"
    },
    {
      "inputs": [
        {
          "internalType": "address",
          "name": "user",
          "type": "address"
        }
      ],
      "name": "getUserCollateralValueInUsd",
      "outputs": [
        {
          "internalType": "uint256",
          "name": "",
          "type": "uint256"
        }
      ],
      "stateMutability": "view",
      "type": "function"
    },
    {
      "inputs": [
        {
          "internalType": "address",
          "name": "user",
          "type": "address"
        }
      ],
      "name": "getUserTotalDebtInUsd",
      "outputs": [
        {
          "internalType": "uint256",
          "name": "",
          "type": "uint256"
        }
      ],
      "stateMutability": "view",
      "type": "function"
    },
    {
      "inputs": [],
      "name": "getYourAccruedDebtInterest",
      "outputs": [
        {
          "internalType": "uint256",
          "name": "",
          "type": "uint256"
        }
      ],
      "stateMutability": "view",
      "type": "function"
    },
    {
      "inputs": [],
      "name": "getYourBorrowedStablecoin",
      "outputs": [
        {
          "internalType": "uint256",
          "name": "",
          "type": "uint256"
        }
      ],
      "stateMutability": "view",
      "type": "function"
    },
    {
      "inputs": [],
      "name": "getYourCollateralDeposited",
      "outputs": [
        {
          "internalType": "uint256",
          "name": "",
          "type": "uint256"
        }
      ],
      "stateMutability": "view",
      "type": "function"
    },
    {
      "inputs": [],
      "name": "getYourCollateralValueInUSD",
      "outputs": [
        {
          "internalType": "uint256",
          "name": "",
          "type": "uint256"
        }
      ],
      "stateMutability": "view",
      "type": "function"
    },
    {
      "inputs": [],
      "name": "getYourDebtValueInUSD",
      "outputs": [
        {
          "internalType": "uint256",
          "name": "",
          "type": "uint256"
        }
      ],
      "stateMutability": "view",
      "type": "function"
    },
    {
      "inputs": [],
      "name": "getYourEarnedLendingInterest",
      "outputs": [
        {
          "internalType": "uint256",
          "name": "",
          "type": "uint256"
        }
      ],
      "stateMutability": "view",
      "type": "function"
    },
    {
      "inputs": [],
      "name": "getYourHealthFactor",
      "outputs": [
        {
          "internalType": "uint256",
          "name": "",
          "type": "uint256"
        }
      ],
      "stateMutability": "view",
      "type": "function"
    },
    {
      "inputs": [],
      "name": "getYourLendedStablecoin",
      "outputs": [
        {
          "internalType": "uint256",
          "name": "",
          "type": "uint256"
        }
      ],
      "stateMutability": "view",
      "type": "function"
    },
    {
      "inputs": [
        {
          "internalType": "address",
          "name": "stablecoin",
          "type": "address"
        }
      ],
      "name": "isStablecoinValid",
      "outputs": [
        {
          "internalType": "bool",
          "name": "",
          "type": "bool"
        }
      ],
      "stateMutability": "pure",
      "type": "function"
    },
    {
      "inputs": [],
      "name": "owner",
      "outputs": [
        {
          "internalType": "address",
          "name": "",
          "type": "address"
        }
      ],
      "stateMutability": "view",
      "type": "function"
    },
    {
      "inputs": [],
      "name": "renounceOwnership",
      "outputs": [],
      "stateMutability": "nonpayable",
      "type": "function"
    },
    {
      "inputs": [
        {
          "internalType": "uint256",
          "name": "stablecoinAmountToRepay",
          "type": "uint256"
        }
      ],
      "name": "repayLoan",
      "outputs": [],
      "stateMutability": "nonpayable",
      "type": "function"
    },
    {
      "inputs": [],
      "name": "s_totalStablecoin",
      "outputs": [
        {
          "internalType": "uint256",
          "name": "",
          "type": "uint256"
        }
      ],
      "stateMutability": "view",
      "type": "function"
    },
    {
      "inputs": [
        {
          "internalType": "address",
          "name": "user",
          "type": "address"
        }
      ],
      "name": "totalTimePassed",
      "outputs": [
        {
          "internalType": "uint256",
          "name": "",
          "type": "uint256"
        }
      ],
      "stateMutability": "view",
      "type": "function"
    },
    {
      "inputs": [
        {
          "internalType": "address",
          "name": "newOwner",
          "type": "address"
        }
      ],
      "name": "transferOwnership",
      "outputs": [],
      "stateMutability": "nonpayable",
      "type": "function"
    },
    {
      "inputs": [
        {
          "internalType": "uint256",
          "name": "withdrawAmount",
          "type": "uint256"
        }
      ],
      "name": "withdrawCollateral",
      "outputs": [],
      "stateMutability": "nonpayable",
      "type": "function"
    },
    {
      "inputs": [
        {
          "internalType": "uint256",
          "name": "amountStableCoin",
          "type": "uint256"
        }
      ],
      "name": "withdrawStablecoin",
      "outputs": [],
      "stateMutability": "nonpayable",
      "type": "function"
    }
  ],
  "bytecode": "0x60c06040523480156200001157600080fd5b5060405162001cd638038062001cd68339810160408190526200003491620000f3565b600160005533806200006057604051631e4fbdf760e01b81526000600482015260240160405180910390fd5b6200006b8162000084565b506001600160a01b0391821660a052166080526200012b565b600180546001600160a01b038381166001600160a01b0319831681179093556040519116919082907f8be0079c531659141344cd1fd0a4f28419497f9722a3daafe3b4186f6b6457e090600090a35050565b80516001600160a01b0381168114620000ee57600080fd5b919050565b600080604083850312156200010757600080fd5b6200011283620000d6565b91506200012260208401620000d6565b90509250929050565b60805160a051611b3f62000197600039600081816108150152818161095401528181610d4f01528181610fc9015281816111cf015281816115eb015281816116e0015281816117e6015261187101526000818161071201528181610e9b01526112e70152611b3f6000f3fe60806040526004361061023b5760003560e01c806380a9012b1161012e578063c5839dd1116100ab578063ef26475c1161006f578063ef26475c14610617578063f2fde38b14610664578063f559056214610684578063f96d947d146106a4578063fe6bcd7c146106da57600080fd5b8063c5839dd114610582578063dadb7e7914610597578063dbafccca146105b7578063dd2856d1146105cd578063e5a4bed31461060357600080fd5b8063a607a8d9116100f2578063a607a8d9146104f0578063ab7b1c8914610505578063ae48c70214610525578063b89a495b1461053a578063bb09d9b71461055a57600080fd5b806380a9012b14610461578063870e974e146104815780638da5cb5b146104a157806391b3a439146104d35780639d5ec1c5146104e857600080fd5b806358d398ef116101bc5780636f758140116101805780636f758140146103ce578063715018a6146103d657806371ebcf53146103eb5780637d52b68214610421578063801a2d991461044157600080fd5b806358d398ef1461034a57806359f99c531461036c5780636112fe2e1461038e57806363ad31aa146103ae5780636e16814f1461030c57600080fd5b80633fb1bf3e116102035780633fb1bf3e146102d65780634469214b1461030c5780634ad517bc146103215780634fa2b53c14610336578063536f70261461024057600080fd5b806303bd360614610240578063042dcee31461026857806322f676b21461028a5780632e1a2ce0146102ac57806333c6c452146102c1575b600080fd5b34801561024c57600080fd5b506102556106fa565b6040519081526020015b60405180910390f35b34801561027457600080fd5b5033600090815260046020526040902054610255565b34801561029657600080fd5b5033600090815260026020526040902054610255565b3480156102b857600080fd5b5061025561078b565b3480156102cd57600080fd5b506102556108c1565b3480156102e257600080fd5b506102556102f1366004611a04565b6001600160a01b031660009081526004602052604090205490565b34801561031857600080fd5b50600854610255565b34801561032d57600080fd5b50610255610928565b34801561034257600080fd5b506096610255565b34801561035657600080fd5b5033600090815260036020526040902054610255565b34801561037857600080fd5b5061038c610387366004611a2d565b61098b565b005b34801561039a57600080fd5b5061038c6103a9366004611a2d565b610a4b565b3480156103ba57600080fd5b506102556103c9366004611a04565b610c38565b61038c610cc6565b3480156103e257600080fd5b5061038c610d19565b3480156103f757600080fd5b50610255610406366004611a04565b6001600160a01b031660009081526003602052604090205490565b34801561042d57600080fd5b5061025561043c366004611a04565b610d2d565b34801561044d57600080fd5b5061025561045c366004611a04565b610dbd565b34801561046d57600080fd5b5061025561047c366004611a04565b610dc8565b34801561048d57600080fd5b5061038c61049c366004611a2d565b610dd3565b3480156104ad57600080fd5b506001546001600160a01b03165b6040516001600160a01b03909116815260200161025f565b3480156104df57600080fd5b50610255610f53565b61038c6110a4565b3480156104fc57600080fd5b506102556111cb565b34801561051157600080fd5b5061038c610520366004611a2d565b61122b565b34801561053157600080fd5b506102556112ba565b34801561054657600080fd5b50610255610555366004611a04565b6112c5565b34801561056657600080fd5b506104bb7376efc6b7adac502dc210f255ea8420672c1355d381565b34801561058e57600080fd5b50610255611318565b3480156105a357600080fd5b5061038c6105b2366004611a2d565b611323565b3480156105c357600080fd5b5061025560085481565b3480156105d957600080fd5b506102556105e8366004611a04565b6001600160a01b031660009081526006602052604090205490565b34801561060f57600080fd5b506005610255565b34801561062357600080fd5b50610654610632366004611a04565b6001600160a01b03167376efc6b7adac502dc210f255ea8420672c1355d31490565b604051901515815260200161025f565b34801561067057600080fd5b5061038c61067f366004611a04565b611497565b34801561069057600080fd5b5061065461069f366004611a04565b6114d5565b3480156106b057600080fd5b506102556106bf366004611a04565b6001600160a01b031660009081526002602052604090205490565b3480156106e657600080fd5b506102556106f5366004611a04565b611553565b60405163b89a495b60e01b81523360048201526000907f00000000000000000000000000000000000000000000000000000000000000006001600160a01b03169063b89a495b906024015b602060405180830381865afa158015610762573d6000803e3d6000fd5b505050506040513d601f19601f820116820180604052508101906107869190611a46565b905090565b600080610797336115bc565b9050600060966107a8836064611a75565b6107b29190611a8c565b905060006107bf33611695565b90508181106107d2576000935050505090565b60006107de8284611aae565b6040516302c68be360e31b81527376efc6b7adac502dc210f255ea8420672c1355d360048201529091506000906001600160a01b037f000000000000000000000000000000000000000000000000000000000000000016906316345f1890602401602060405180830381865afa15801561085c573d6000803e3d6000fd5b505050506040513d601f19601f820116820180604052508101906108809190611a46565b905060008161089784670de0b6b3a7640000611a75565b6108a19190611a8c565b905060085481116108b257806108b6565b6008545b965050505050505090565b6000806108cd336115bc565b905060006108da33611695565b9050806000036108ee576000199250505090565b6108f9816064611a75565b609661090d670de0b6b3a764000085611a75565b6109179190611a75565b6109219190611a8c565b9250505090565b6040516302c68be360e31b81527376efc6b7adac502dc210f255ea8420672c1355d360048201526000907f00000000000000000000000000000000000000000000000000000000000000006001600160a01b0316906316345f1890602401610745565b600081116109b45760405162461bcd60e51b81526004016109ab90611ac1565b60405180910390fd5b7376efc6b7adac502dc210f255ea8420672c1355d36109d581333085611729565b33600090815260026020526040812080548492906109f4908490611af6565b925050819055508160086000828254610a0d9190611af6565b909155505060405182815233907f66cef183dbc45fd6ab6c6cfd4ada8f7b1780d070873ce30723107d9f644ec6609060200160405180910390a25050565b60008111610aad5760405162461bcd60e51b815260206004820152602960248201527f576974686472617720616d6f756e74206d7573742062652067726561746572206044820152687468616e207a65726f60b81b60648201526084016109ab565b3360009081526003602052604090205481811015610b0d5760405162461bcd60e51b815260206004820152601f60248201527f496e73756666696369656e7420636f6c6c61746572616c2062616c616e63650060448201526064016109ab565b6000610b198383611aae565b90506000610b2633611796565b90506000610b3383611858565b9050610b3f81836118a8565b610b8b5760405162461bcd60e51b815260206004820152601d60248201527f436f6c6c61746572616c207468726573686f6c6420627265616368656400000060448201526064016109ab565b336000818152600360205260408082208690555190919087908381818185875af1925050503d8060008114610bdc576040519150601f19603f3d011682016040523d82523d6000602084013e610be1565b606091505b5050905080610c0357604051634dc34d1760e01b815260040160405180910390fd5b604051869033907fc30fcfbcaac9e0deffa719714eaa82396ff506a0d0d0eebe170830177288715d90600090a3505050505050565b6001600160a01b038116600090815260076020526040812054610c9d5760405162461bcd60e51b815260206004820152601a60248201527f5573657220686173206e6f74206465706f73697465642079657400000000000060448201526064016109ab565b6001600160a01b038216600090815260076020526040902054610cc09042611aae565b92915050565b3360009081526003602052604081208054349290610ce5908490611af6565b9091555050604051349033907fd7243f6f8212d5188fd054141cf6ea89cfc0d91facb8c3afe2f88a135848014290600090a3565b610d216118de565b610d2b600061190b565b565b6040516302c68be360e31b81526001600160a01b0382811660048301526000917f0000000000000000000000000000000000000000000000000000000000000000909116906316345f18906024015b602060405180830381865afa158015610d99573d6000803e3d6000fd5b505050506040513d601f19601f82011682018060405250810190610cc09190611a46565b6000610cc082611695565b6000610cc0826115bc565b60008111610df35760405162461bcd60e51b81526004016109ab90611ac1565b33600090815260026020526040902054811115610e495760405162461bcd60e51b8152602060048201526014602482015273496e73756666696369656e742062616c616e636560601b60448201526064016109ab565b3360009081526002602052604081208054839290610e68908490611aae565b925050819055508060086000828254610e819190611aae565b90915550506040516323d0aab160e01b81523360048201527f00000000000000000000000000000000000000000000000000000000000000006001600160a01b0316906323d0aab190602401600060405180830381600087803b158015610ee757600080fd5b505af1158015610efb573d6000803e3d6000fd5b507376efc6b7adac502dc210f255ea8420672c1355d39250610f229150829050338461195d565b604051829033907f13f1180d41ad6611b3b08bbafa35e4540fdd948fe7ada6fa37137e3e46cbb77290600090a35050565b600080610f5f33611695565b905080600003610f7e5750503360009081526003602052604090205490565b60006064610f8d609684611a75565b610f979190611a8c565b90506000610fa4336115bc565b9050818111610fb7576000935050505090565b6000610fc38383611aae565b905060007f00000000000000000000000000000000000000000000000000000000000000006001600160a01b031663a625d21d6040518163ffffffff1660e01b8152600401602060405180830381865afa158015611025573d6000803e3d6000fd5b505050506040513d601f19601f820116820180604052508101906110499190611a46565b905060008161106084670de0b6b3a7640000611a75565b61106a9190611a8c565b33600090815260036020526040902054909150811161108957806108b6565b33600090815260036020526040902054965050505050505090565b600034116111005760405162461bcd60e51b8152602060048201526024808201527f436f6c6c61746572616c206d7573742062652067726561746572207468616e206044820152637a65726f60e01b60648201526084016109ab565b611108610cc6565b686c6b935b8bbd4000006000670de0b6b3a76400006111278334611a75565b6111319190611a8c565b905060006064611142836032611a75565b61114c9190611a8c565b9050600061115f64e8d4a5100083611a8c565b905060085481116111705780611174565b6008545b90506103e88082106111895761118982611323565b604080513481526020810184905233917fc913d0af25ee3f92d7fd23fa1cfbed7dc2a6b514f9b2e013f18289be5be11b90910160405180910390a25050505050565b60007f00000000000000000000000000000000000000000000000000000000000000006001600160a01b031663a625d21d6040518163ffffffff1660e01b8152600401602060405180830381865afa158015610762573d6000803e3d6000fd5b7376efc6b7adac502dc210f255ea8420672c1355d361124c81333085611729565b336000908152600460205260408120805484929061126b908490611aae565b9250508190555081600860008282546112849190611af6565b9091555050604051829033907fc200a1f31dd659e356e0f112c82558e25f49f7b0f84438691cd96f5cb355882390600090a35050565b6000610786336115bc565b60405163b89a495b60e01b81526001600160a01b0382811660048301526000917f00000000000000000000000000000000000000000000000000000000000000009091169063b89a495b90602401610d7c565b600061078633611695565b600081116113435760405162461bcd60e51b81526004016109ab90611ac1565b60085481111561138c5760405162461bcd60e51b81526020600482015260146024820152734e6f7420656e6f756768206c697175696469747960601b60448201526064016109ab565b336000908152600360205260408120549060646113aa609685611a75565b6113b49190611a8c565b9050818111156114065760405162461bcd60e51b815260206004820152601760248201527f496e73756666696369656e7420636f6c6c61746572616c00000000000000000060448201526064016109ab565b3360009081526004602052604081208054859290611425908490611af6565b92505081905550826008600082825461143e9190611aae565b909155507376efc6b7adac502dc210f255ea8420672c1355d3905061146481338661195d565b604051849033907f55ca543acfe189813a500eaff658acafb5d2345c0db5314154e00ac8c9d3b91f90600090a350505050565b61149f6118de565b6001600160a01b0381166114c957604051631e4fbdf760e01b8152600060048201526024016109ab565b6114d28161190b565b50565b604051633f9af35f60e21b81526001600160a01b03821660048201526000908190309063fe6bcd7c90602401602060405180830381865afa15801561151e573d6000803e3d6000fd5b505050506040513d601f19601f820116820180604052508101906115429190611a46565b670de0b6b3a7640000119392505050565b60008061155f836115bc565b9050600061156c84611695565b90508060000361158157506000199392505050565b61158c816064611a75565b60966115a0670de0b6b3a764000085611a75565b6115aa9190611a75565b6115b49190611a8c565b949350505050565b60008060036000846001600160a01b03166001600160a01b0316815260200190815260200160002054905060007f00000000000000000000000000000000000000000000000000000000000000006001600160a01b031663a625d21d6040518163ffffffff1660e01b8152600401602060405180830381865afa158015611647573d6000803e3d6000fd5b505050506040513d601f19601f8201168201806040525081019061166b9190611a46565b90506000670de0b6b3a76400006116828385611a75565b61168c9190611a8c565b95945050505050565b6001600160a01b0381811660009081526004602081905260408083205490516302c68be360e31b81527376efc6b7adac502dc210f255ea8420672c1355d392810192909252919283917f0000000000000000000000000000000000000000000000000000000000000000909116906316345f1890602401602060405180830381865afa158015611647573d6000803e3d6000fd5b6040516001600160a01b0384811660248301528381166044830152606482018390526117909186918216906323b872dd906084015b604051602081830303815290604052915060e01b6020820180516001600160e01b038381831617835250505050611993565b50505050565b6001600160a01b0381811660009081526004602081905260408083205490516351c8572160e11b81527376efc6b7adac502dc210f255ea8420672c1355d3928101929092526024820181905291927f0000000000000000000000000000000000000000000000000000000000000000169063a390ae4290604401602060405180830381865afa15801561182d573d6000803e3d6000fd5b505050506040513d601f19601f820116820180604052508101906118519190611a46565b9392505050565b604051630d82fdc960e11b8152600481018290526000907f00000000000000000000000000000000000000000000000000000000000000006001600160a01b031690631b05fb9290602401610d7c565b6000816000036118ba57506001610cc0565b6000826118c8856064611a75565b6118d29190611a8c565b60961115949350505050565b6001546001600160a01b03163314610d2b5760405163118cdaa760e01b81523360048201526024016109ab565b600180546001600160a01b038381166001600160a01b0319831681179093556040519116919082907f8be0079c531659141344cd1fd0a4f28419497f9722a3daafe3b4186f6b6457e090600090a35050565b6040516001600160a01b0383811660248301526044820183905261198e91859182169063a9059cbb9060640161175e565b505050565b600080602060008451602086016000885af1806119b6576040513d6000823e3d81fd5b50506000513d915081156119ce5780600114156119db565b6001600160a01b0384163b155b1561179057604051635274afe760e01b81526001600160a01b03851660048201526024016109ab565b600060208284031215611a1657600080fd5b81356001600160a01b038116811461185157600080fd5b600060208284031215611a3f57600080fd5b5035919050565b600060208284031215611a5857600080fd5b5051919050565b634e487b7160e01b600052601160045260246000fd5b8082028115828204841417610cc057610cc0611a5f565b600082611aa957634e487b7160e01b600052601260045260246000fd5b500490565b81810381811115610cc057610cc0611a5f565b6020808252818101527f416d6f756e74206d7573742062652067726561746572207468616e207a65726f604082015260600190565b80820180821115610cc057610cc0611a5f56fea2646970667358221220a65d88a8feb30f81bd2d6fc3b1758e03955204e4397a79d45d6accd0dc0ee78564736f6c63430008140033",
  "linkReferences": {},
  "deployedLinkReferences": {}
}