{
  "_format": "hh-sol-artifact-1",
  "contractName": "DSCEngine",
  "sourceName": "contracts/DSCEngine.sol",
  "abi": [
    {
      "inputs": [
        {
          "internalType": "address",
          "name": "priceOracleAddress",
          "type": "address"
        },
        {
          "internalType": "address",
          "name": "InterestRateModelAddress",
          "type": "address"
        }
      ],
      "stateMutability": "nonpayable",
      "type": "constructor"
    },
    {
      "inputs": [],
      "name": "DSCEngine__LiquidationFailed",
      "type": "error"
    },
    {
      "inputs": [],
      "name": "DSCEngine__LoanRepaymentFailed",
      "type": "error"
    },
    {
      "inputs": [],
      "name": "DSCEngine__Mintfailed",
      "type": "error"
    },
    {
      "inputs": [],
      "name": "DSCEngine__NeedsMoreThanZero",
      "type": "error"
    },
    {
      "inputs": [],
      "name": "DSCEngine__NotAllowedCollateral",
      "type": "error"
    },
    {
      "inputs": [],
      "name": "DSCEngine__NotAllowedToken",
      "type": "error"
    },
    {
      "inputs": [],
      "name": "DSCEngine__StablecoinBorrowFailed",
      "type": "error"
    },
    {
      "inputs": [],
      "name": "DSCEngine__TokenBurnFailed",
      "type": "error"
    },
    {
      "inputs": [],
      "name": "DSCEngine__TokenToMintExceedsDepositedStablecoin",
      "type": "error"
    },
    {
      "inputs": [],
      "name": "DSCEngine__TransferFailed",
      "type": "error"
    },
    {
      "inputs": [],
      "name": "DSCEngine__WithdrawCollateralFailed",
      "type": "error"
    },
    {
      "inputs": [
        {
          "internalType": "address",
          "name": "owner",
          "type": "address"
        }
      ],
      "name": "OwnableInvalidOwner",
      "type": "error"
    },
    {
      "inputs": [
        {
          "internalType": "address",
          "name": "account",
          "type": "address"
        }
      ],
      "name": "OwnableUnauthorizedAccount",
      "type": "error"
    },
    {
      "inputs": [],
      "name": "ReentrancyGuardReentrantCall",
      "type": "error"
    },
    {
      "anonymous": false,
      "inputs": [
        {
          "indexed": true,
          "internalType": "address",
          "name": "from",
          "type": "address"
        },
        {
          "indexed": true,
          "internalType": "uint256",
          "name": "amount",
          "type": "uint256"
        }
      ],
      "name": "CollateralDeposited",
      "type": "event"
    },
    {
      "anonymous": false,
      "inputs": [
        {
          "indexed": true,
          "internalType": "address",
          "name": "user",
          "type": "address"
        },
        {
          "indexed": false,
          "internalType": "uint256",
          "name": "collateralAmount",
          "type": "uint256"
        },
        {
          "indexed": false,
          "internalType": "uint256",
          "name": "borrowedAmount",
          "type": "uint256"
        }
      ],
      "name": "CollateralDepositedAndBorrowed",
      "type": "event"
    },
    {
      "anonymous": false,
      "inputs": [
        {
          "indexed": true,
          "internalType": "address",
          "name": "from",
          "type": "address"
        },
        {
          "indexed": true,
          "internalType": "uint256",
          "name": "amount",
          "type": "uint256"
        }
      ],
      "name": "CollateralWithdrawn",
      "type": "event"
    },
    {
      "anonymous": false,
      "inputs": [
        {
          "indexed": true,
          "internalType": "address",
          "name": "liquidator",
          "type": "address"
        },
        {
          "indexed": true,
          "internalType": "address",
          "name": "borrower",
          "type": "address"
        },
        {
          "indexed": false,
          "internalType": "uint256",
          "name": "debtAmount",
          "type": "uint256"
        },
        {
          "indexed": false,
          "internalType": "uint256",
          "name": "collateralSeized",
          "type": "uint256"
        }
      ],
      "name": "Liquidation",
      "type": "event"
    },
    {
      "anonymous": false,
      "inputs": [
        {
          "indexed": true,
          "internalType": "address",
          "name": "from",
          "type": "address"
        },
        {
          "indexed": true,
          "internalType": "uint256",
          "name": "amount",
          "type": "uint256"
        }
      ],
      "name": "LoanRepaid",
      "type": "event"
    },
    {
      "anonymous": false,
      "inputs": [
        {
          "indexed": true,
          "internalType": "address",
          "name": "previousOwner",
          "type": "address"
        },
        {
          "indexed": true,
          "internalType": "address",
          "name": "newOwner",
          "type": "address"
        }
      ],
      "name": "OwnershipTransferred",
      "type": "event"
    },
    {
      "anonymous": false,
      "inputs": [
        {
          "indexed": true,
          "internalType": "address",
          "name": "from",
          "type": "address"
        },
        {
          "indexed": false,
          "internalType": "uint256",
          "name": "amount",
          "type": "uint256"
        }
      ],
      "name": "StableCoinDeposited",
      "type": "event"
    },
    {
      "anonymous": false,
      "inputs": [
        {
          "indexed": true,
          "internalType": "address",
          "name": "from",
          "type": "address"
        },
        {
          "indexed": true,
          "internalType": "uint256",
          "name": "amount",
          "type": "uint256"
        }
      ],
      "name": "StableCoinWithdrawed",
      "type": "event"
    },
    {
      "anonymous": false,
      "inputs": [
        {
          "indexed": true,
          "internalType": "address",
          "name": "from",
          "type": "address"
        },
        {
          "indexed": true,
          "internalType": "uint256",
          "name": "amount",
          "type": "uint256"
        }
      ],
      "name": "StablecoinBorrowed",
      "type": "event"
    },
    {
      "anonymous": false,
      "inputs": [
        {
          "indexed": true,
          "internalType": "address",
          "name": "to",
          "type": "address"
        },
        {
          "indexed": true,
          "internalType": "uint256",
          "name": "amount",
          "type": "uint256"
        }
      ],
      "name": "tokenMinted",
      "type": "event"
    },
    {
      "inputs": [],
      "name": "USDC_ADDRESS",
      "outputs": [
        {
          "internalType": "address",
          "name": "",
          "type": "address"
        }
      ],
      "stateMutability": "view",
      "type": "function"
    },
    {
      "inputs": [
        {
          "internalType": "uint256",
          "name": "stablecoinAmount",
          "type": "uint256"
        }
      ],
      "name": "borrowStablecoin",
      "outputs": [],
      "stateMutability": "nonpayable",
      "type": "function"
    },
    {
      "inputs": [
        {
          "internalType": "address",
          "name": "user",
          "type": "address"
        }
      ],
      "name": "canUserBeLiquidated",
      "outputs": [
        {
          "internalType": "bool",
          "name": "",
          "type": "bool"
        }
      ],
      "stateMutability": "view",
      "type": "function"
    },
    {
      "inputs": [],
      "name": "depositCollateral",
      "outputs": [],
      "stateMutability": "payable",
      "type": "function"
    },
    {
      "inputs": [],
      "name": "depositCollateralAndBorrowStablecoin",
      "outputs": [],
      "stateMutability": "payable",
      "type": "function"
    },
    {
      "inputs": [
        {
          "internalType": "uint256",
          "name": "amountStableCoin",
          "type": "uint256"
        }
      ],
      "name": "depositStablecoin",
      "outputs": [],
      "stateMutability": "nonpayable",
      "type": "function"
    },
    {
      "inputs": [
        {
          "internalType": "address",
          "name": "user",
          "type": "address"
        }
      ],
      "name": "getAccuredInterest",
      "outputs": [
        {
          "internalType": "uint256",
          "name": "",
          "type": "uint256"
        }
      ],
      "stateMutability": "view",
      "type": "function"
    },
    {
      "inputs": [
        {
          "internalType": "address",
          "name": "user",
          "type": "address"
        }
      ],
      "name": "getCollateralDepositBalance",
      "outputs": [
        {
          "internalType": "uint256",
          "name": "",
          "type": "uint256"
        }
      ],
      "stateMutability": "view",
      "type": "function"
    },
    {
      "inputs": [],
      "name": "getCollateralThreshold",
      "outputs": [
        {
          "internalType": "uint256",
          "name": "",
          "type": "uint256"
        }
      ],
      "stateMutability": "pure",
      "type": "function"
    },
    {
      "inputs": [
        {
          "internalType": "address",
          "name": "user",
          "type": "address"
        }
      ],
      "name": "getDebtBalance",
      "outputs": [
        {
          "internalType": "uint256",
          "name": "",
          "type": "uint256"
        }
      ],
      "stateMutability": "view",
      "type": "function"
    },
    {
      "inputs": [],
      "name": "getETHPrice",
      "outputs": [
        {
          "internalType": "uint256",
          "name": "",
          "type": "uint256"
        }
      ],
      "stateMutability": "view",
      "type": "function"
    },
    {
      "inputs": [
        {
          "internalType": "address",
          "name": "user",
          "type": "address"
        }
      ],
      "name": "getHealthFactor",
      "outputs": [
        {
          "internalType": "uint256",
          "name": "",
          "type": "uint256"
        }
      ],
      "stateMutability": "view",
      "type": "function"
    },
    {
      "inputs": [],
      "name": "getInterest",
      "outputs": [
        {
          "internalType": "uint256",
          "name": "",
          "type": "uint256"
        }
      ],
      "stateMutability": "pure",
      "type": "function"
    },
    {
      "inputs": [],
      "name": "getMaxBorrowableAmount",
      "outputs": [
        {
          "internalType": "uint256",
          "name": "",
          "type": "uint256"
        }
      ],
      "stateMutability": "view",
      "type": "function"
    },
    {
      "inputs": [],
      "name": "getMaxWithdrawableCollateral",
      "outputs": [
        {
          "internalType": "uint256",
          "name": "",
          "type": "uint256"
        }
      ],
      "stateMutability": "view",
      "type": "function"
    },
    {
      "inputs": [
        {
          "internalType": "address",
          "name": "user",
          "type": "address"
        }
      ],
      "name": "getMintedLendingToken",
      "outputs": [
        {
          "internalType": "uint256",
          "name": "",
          "type": "uint256"
        }
      ],
      "stateMutability": "view",
      "type": "function"
    },
    {
      "inputs": [
        {
          "internalType": "address",
          "name": "user",
          "type": "address"
        }
      ],
      "name": "getStableCoinBalance",
      "outputs": [
        {
          "internalType": "uint256",
          "name": "",
          "type": "uint256"
        }
      ],
      "stateMutability": "view",
      "type": "function"
    },
    {
      "inputs": [
        {
          "internalType": "address",
          "name": "tokenAddress",
          "type": "address"
        }
      ],
      "name": "getTokenPriceInUsd",
      "outputs": [
        {
          "internalType": "uint256",
          "name": "",
          "type": "uint256"
        }
      ],
      "stateMutability": "view",
      "type": "function"
    },
    {
      "inputs": [],
      "name": "getTotalStablecoinInPool",
      "outputs": [
        {
          "internalType": "uint256",
          "name": "",
          "type": "uint256"
        }
      ],
      "stateMutability": "view",
      "type": "function"
    },
    {
      "inputs": [],
      "name": "getTotalStablecoinSupply",
      "outputs": [
        {
          "internalType": "uint256",
          "name": "",
          "type": "uint256"
        }
      ],
      "stateMutability": "view",
      "type": "function"
    },
    {
      "inputs": [],
      "name": "getUSDCPrice",
      "outputs": [
        {
          "internalType": "uint256",
          "name": "",
          "type": "uint256"
        }
      ],
      "stateMutability": "view",
      "type": "function"
    },
    {
      "inputs": [
        {
          "internalType": "address",
          "name": "user",
          "type": "address"
        }
      ],
      "name": "getUserCollateralValueInUsd",
      "outputs": [
        {
          "internalType": "uint256",
          "name": "",
          "type": "uint256"
        }
      ],
      "stateMutability": "view",
      "type": "function"
    },
    {
      "inputs": [
        {
          "internalType": "address",
          "name": "user",
          "type": "address"
        }
      ],
      "name": "getUserTotalDebtInUsd",
      "outputs": [
        {
          "internalType": "uint256",
          "name": "",
          "type": "uint256"
        }
      ],
      "stateMutability": "view",
      "type": "function"
    },
    {
      "inputs": [],
      "name": "getYourAccruedDebtInterest",
      "outputs": [
        {
          "internalType": "uint256",
          "name": "",
          "type": "uint256"
        }
      ],
      "stateMutability": "view",
      "type": "function"
    },
    {
      "inputs": [],
      "name": "getYourBorrowedStablecoin",
      "outputs": [
        {
          "internalType": "uint256",
          "name": "",
          "type": "uint256"
        }
      ],
      "stateMutability": "view",
      "type": "function"
    },
    {
      "inputs": [],
      "name": "getYourCollateralDeposited",
      "outputs": [
        {
          "internalType": "uint256",
          "name": "",
          "type": "uint256"
        }
      ],
      "stateMutability": "view",
      "type": "function"
    },
    {
      "inputs": [],
      "name": "getYourCollateralValueInUSD",
      "outputs": [
        {
          "internalType": "uint256",
          "name": "",
          "type": "uint256"
        }
      ],
      "stateMutability": "view",
      "type": "function"
    },
    {
      "inputs": [],
      "name": "getYourDebtValueInUSD",
      "outputs": [
        {
          "internalType": "uint256",
          "name": "",
          "type": "uint256"
        }
      ],
      "stateMutability": "view",
      "type": "function"
    },
    {
      "inputs": [],
      "name": "getYourEarnedLendingInterest",
      "outputs": [
        {
          "internalType": "uint256",
          "name": "",
          "type": "uint256"
        }
      ],
      "stateMutability": "view",
      "type": "function"
    },
    {
      "inputs": [],
      "name": "getYourHealthFactor",
      "outputs": [
        {
          "internalType": "uint256",
          "name": "",
          "type": "uint256"
        }
      ],
      "stateMutability": "view",
      "type": "function"
    },
    {
      "inputs": [],
      "name": "getYourLendedStablecoin",
      "outputs": [
        {
          "internalType": "uint256",
          "name": "",
          "type": "uint256"
        }
      ],
      "stateMutability": "view",
      "type": "function"
    },
    {
      "inputs": [
        {
          "internalType": "address",
          "name": "stablecoin",
          "type": "address"
        }
      ],
      "name": "isStablecoinValid",
      "outputs": [
        {
          "internalType": "bool",
          "name": "",
          "type": "bool"
        }
      ],
      "stateMutability": "pure",
      "type": "function"
    },
    {
      "inputs": [
        {
          "internalType": "address",
          "name": "_borrower",
          "type": "address"
        },
        {
          "internalType": "uint256",
          "name": "repayAmount",
          "type": "uint256"
        }
      ],
      "name": "liquidate",
      "outputs": [],
      "stateMutability": "nonpayable",
      "type": "function"
    },
    {
      "inputs": [],
      "name": "owner",
      "outputs": [
        {
          "internalType": "address",
          "name": "",
          "type": "address"
        }
      ],
      "stateMutability": "view",
      "type": "function"
    },
    {
      "inputs": [],
      "name": "renounceOwnership",
      "outputs": [],
      "stateMutability": "nonpayable",
      "type": "function"
    },
    {
      "inputs": [
        {
          "internalType": "uint256",
          "name": "stablecoinAmountToRepay",
          "type": "uint256"
        }
      ],
      "name": "repayLoan",
      "outputs": [],
      "stateMutability": "nonpayable",
      "type": "function"
    },
    {
      "inputs": [],
      "name": "s_totalStablecoin",
      "outputs": [
        {
          "internalType": "uint256",
          "name": "",
          "type": "uint256"
        }
      ],
      "stateMutability": "view",
      "type": "function"
    },
    {
      "inputs": [
        {
          "internalType": "address",
          "name": "user",
          "type": "address"
        }
      ],
      "name": "totalTimePassed",
      "outputs": [
        {
          "internalType": "uint256",
          "name": "",
          "type": "uint256"
        }
      ],
      "stateMutability": "view",
      "type": "function"
    },
    {
      "inputs": [
        {
          "internalType": "address",
          "name": "newOwner",
          "type": "address"
        }
      ],
      "name": "transferOwnership",
      "outputs": [],
      "stateMutability": "nonpayable",
      "type": "function"
    },
    {
      "inputs": [
        {
          "internalType": "uint256",
          "name": "amountToWithdraw",
          "type": "uint256"
        }
      ],
      "name": "withdrawCollateral",
      "outputs": [],
      "stateMutability": "nonpayable",
      "type": "function"
    },
    {
      "inputs": [
        {
          "internalType": "uint256",
          "name": "amountStableCoin",
          "type": "uint256"
        }
      ],
      "name": "withdrawStablecoin",
      "outputs": [],
      "stateMutability": "nonpayable",
      "type": "function"
    }
  ],
  "bytecode": "0x60c06040523480156200001157600080fd5b506040516200319c3803806200319c8339810160408190526200003491620000f3565b600160005533806200006057604051631e4fbdf760e01b81526000600482015260240160405180910390fd5b6200006b8162000084565b506001600160a01b0391821660a052166080526200012b565b600180546001600160a01b038381166001600160a01b0319831681179093556040519116919082907f8be0079c531659141344cd1fd0a4f28419497f9722a3daafe3b4186f6b6457e090600090a35050565b80516001600160a01b0381168114620000ee57600080fd5b919050565b600080604083850312156200010757600080fd5b6200011283620000d6565b91506200012260208401620000d6565b90509250929050565b60805160a051612f6b620002316000396000818161082e0152818161096701528181610d9e0152818161107e0152818161114c01528181611662015281816117870152818161183a0152818161193901528181611d35015281816120890152818161224c0152818161245301528181612542015281816125ff0152818161268a015281816127a8015281816128450152612c85015260008181610731015281816109ff01528181610c7e01528181610f97015281816112d901528181611358015281816114230152818161154f015281816119e301528181611a6f01528181611ca301528181611e020152818161200501528181612a390152612bf10152612f6b6000f3fe6080604052600436106102465760003560e01c806380a9012b11610139578063bcbaf487116100b6578063e5a4bed31161007a578063e5a4bed314610628578063ef26475c1461063c578063f2fde38b14610683578063f5590562146106a3578063f96d947d146106c3578063fe6bcd7c146106f957600080fd5b8063bcbaf48714610587578063c5839dd1146105a7578063dadb7e79146105bc578063dbafccca146105dc578063dd2856d1146105f257600080fd5b8063a607a8d9116100fd578063a607a8d9146104fb578063ab7b1c8914610510578063ae48c70214610530578063b89a495b14610545578063bb09d9b71461056557600080fd5b806380a9012b1461046c578063870e974e1461048c5780638da5cb5b146104ac57806391b3a439146104de5780639d5ec1c5146104f357600080fd5b806358d398ef116101c75780636f7581401161018b5780636f758140146103d9578063715018a6146103e157806371ebcf53146103f65780637d52b6821461042c578063801a2d991461044c57600080fd5b806358d398ef1461035557806359f99c53146103775780636112fe2e1461039957806363ad31aa146103b95780636e16814f1461031757600080fd5b80633fb1bf3e1161020e5780633fb1bf3e146102e15780634469214b146103175780634ad517bc1461032c5780634fa2b53c14610341578063536f70261461024b57600080fd5b806303bd36061461024b578063042dcee31461027357806322f676b2146102955780632e1a2ce0146102b757806333c6c452146102cc575b600080fd5b34801561025757600080fd5b50610260610719565b6040519081526020015b60405180910390f35b34801561027f57600080fd5b5033600090815260046020526040902054610260565b3480156102a157600080fd5b5033600090815260026020526040902054610260565b3480156102c357600080fd5b506102606107aa565b3480156102d857600080fd5b506102606108da565b3480156102ed57600080fd5b506102606102fc366004612de4565b6001600160a01b031660009081526004602052604090205490565b34801561032357600080fd5b50600854610260565b34801561033857600080fd5b50610260610941565b34801561034d57600080fd5b506096610260565b34801561036157600080fd5b5033600090815260036020526040902054610260565b34801561038357600080fd5b50610397610392366004612dff565b61099e565b005b3480156103a557600080fd5b506103976103b4366004612dff565b610bb3565b3480156103c557600080fd5b506102606103d4366004612de4565b610ea3565b610397610f31565b3480156103ed57600080fd5b50610397611116565b34801561040257600080fd5b50610260610411366004612de4565b6001600160a01b031660009081526003602052604090205490565b34801561043857600080fd5b50610260610447366004612de4565b61112a565b34801561045857600080fd5b50610260610467366004612de4565b6111ba565b34801561047857600080fd5b50610260610487366004612de4565b6111c5565b34801561049857600080fd5b506103976104a7366004612dff565b6111d0565b3480156104b857600080fd5b506001546001600160a01b03165b6040516001600160a01b03909116815260200161026a565b3480156104ea57600080fd5b506102606115ec565b61039761173d565b34801561050757600080fd5b50610260611935565b34801561051c57600080fd5b5061039761052b366004612dff565b611995565b34801561053c57600080fd5b50610260611dd5565b34801561055157600080fd5b50610260610560366004612de4565b611de0565b34801561057157600080fd5b506104c6600080516020612f1683398151915281565b34801561059357600080fd5b506103976105a2366004612e18565b611e33565b3480156105b357600080fd5b50610260611f9f565b3480156105c857600080fd5b506103976105d7366004612dff565b611faa565b3480156105e857600080fd5b5061026060085481565b3480156105fe57600080fd5b5061026061060d366004612de4565b6001600160a01b031660009081526006602052604090205490565b34801561063457600080fd5b506005610260565b34801561064857600080fd5b50610673610657366004612de4565b6001600160a01b0316600080516020612f168339815191521490565b604051901515815260200161026a565b34801561068f57600080fd5b5061039761069e366004612de4565b612302565b3480156106af57600080fd5b506106736106be366004612de4565b61233d565b3480156106cf57600080fd5b506102606106de366004612de4565b6001600160a01b031660009081526002602052604090205490565b34801561070557600080fd5b50610260610714366004612de4565b6123bb565b60405163b89a495b60e01b81523360048201526000907f00000000000000000000000000000000000000000000000000000000000000006001600160a01b03169063b89a495b906024015b602060405180830381865afa158015610781573d6000803e3d6000fd5b505050506040513d601f19601f820116820180604052508101906107a59190612e42565b905090565b6000806107b633612424565b9050600060966107c7836064612e71565b6107d19190612e88565b905060006107de336124fd565b90508181106107f1576000935050505090565b60006107fd8284612eaa565b6040516302c68be360e31b8152600080516020612f1683398151915260048201529091506000906001600160a01b037f000000000000000000000000000000000000000000000000000000000000000016906316345f1890602401602060405180830381865afa158015610875573d6000803e3d6000fd5b505050506040513d601f19601f820116820180604052508101906108999190612e42565b90506000816108b084670de0b6b3a7640000612e71565b6108ba9190612e88565b905060085481116108cb57806108cf565b6008545b965050505050505090565b6000806108e633612424565b905060006108f3336124fd565b905080600003610907576000199250505090565b610912816064612e71565b6096610926670de0b6b3a764000085612e71565b6109309190612e71565b61093a9190612e88565b9250505090565b6040516302c68be360e31b8152600080516020612f1683398151915260048201526000907f00000000000000000000000000000000000000000000000000000000000000006001600160a01b0316906316345f1890602401610764565b600080516020612f1683398151915281806000036109cf5760405163cb1d3f7d60e01b815260040160405180910390fd5b6109d761258b565b3360008181526002602052604090819020549051631cc0af0360e11b81526001600160a01b037f000000000000000000000000000000000000000000000000000000000000000016926339815e0692610a3592600190600401612ebd565b600060405180830381600087803b158015610a4f57600080fd5b505af1158015610a63573d6000803e3d6000fd5b50503360009081526007602052604081205490039150610a929050573360009081526007602052604090204290555b6040516323b872dd60e01b815233600482015230602482015260448101849052600090600080516020612f16833981519152906323b872dd906064016020604051808303816000875af1158015610aed573d6000803e3d6000fd5b505050506040513d601f19601f82011682018060405250810190610b119190612ee0565b905080610b3157604051634dc34d1760e01b815260040160405180910390fd5b3360009081526002602052604081208054869290610b50908490612f02565b925050819055508360086000828254610b699190612f02565b909155505060405184815233907f66cef183dbc45fd6ab6c6cfd4ada8f7b1780d070873ce30723107d9f644ec6609060200160405180910390a250610bae6001600055565b505050565b8080600003610bd55760405163cb1d3f7d60e01b815260040160405180910390fd5b610bdd61258b565b3360009081526003602052604090205482811015610c555760405162461bcd60e51b815260206004820152602a60248201527f20416d6f756e74206578636565647320746f74616c20636f6c6c61746572616c6044820152690819195c1bdcda5d195960b21b60648201526084015b60405180910390fd5b336000818152600460208190526040808320549051631cc0af0360e11b81526001600160a01b037f000000000000000000000000000000000000000000000000000000000000000016946339815e0694610cb494919392909101612ebd565b600060405180830381600087803b158015610cce57600080fd5b505af1158015610ce2573d6000803e3d6000fd5b5050505060008382610cf49190612eaa565b90506000610d01336125b5565b90506000610d0e83612671565b9050610d1a81836126c1565b610d665760405162461bcd60e51b815260206004820152601d60248201527f436f6c6c61746572616c207468726573686f6c642062726561636865640000006044820152606401610c4c565b336000818152600360205260409081902085905551633d6fe0dd60e21b81526004810191909152602481018490526001600160a01b037f0000000000000000000000000000000000000000000000000000000000000000169063f5bf837490604401600060405180830381600087803b158015610de257600080fd5b505af1158015610df6573d6000803e3d6000fd5b50506040516000925033915088908381818185875af1925050503d8060008114610e3c576040519150601f19603f3d011682016040523d82523d6000602084013e610e41565b606091505b5050905080610e6357604051634dc34d1760e01b815260040160405180910390fd5b604051879033907fc30fcfbcaac9e0deffa719714eaa82396ff506a0d0d0eebe170830177288715d90600090a35050505050610e9f6001600055565b5050565b6001600160a01b038116600090815260076020526040812054610f085760405162461bcd60e51b815260206004820152601a60248201527f5573657220686173206e6f74206465706f7369746564207965740000000000006044820152606401610c4c565b6001600160a01b038216600090815260076020526040902054610f2b9042612eaa565b92915050565b3480600003610f535760405163cb1d3f7d60e01b815260040160405180910390fd5b610f5b61258b565b3360009081526003602052604090205415610fff5733600081815260036020526040808220549051631cc0af0360e11b81526001600160a01b037f000000000000000000000000000000000000000000000000000000000000000016936339815e0693610fcc939192600401612ebd565b600060405180830381600087803b158015610fe657600080fd5b505af1158015610ffa573d6000803e3d6000fd5b505050505b336000908152600760205260408120549003611028573360009081526007602052604090204290555b33600090815260036020526040812054906110433483612f02565b336000818152600360205260409081902083905551633d6fe0dd60e21b81526004810191909152602481018290529091506001600160a01b037f0000000000000000000000000000000000000000000000000000000000000000169063f5bf837490604401600060405180830381600087803b1580156110c257600080fd5b505af11580156110d6573d6000803e3d6000fd5b50506040513492503391507fd7243f6f8212d5188fd054141cf6ea89cfc0d91facb8c3afe2f88a135848014290600090a350506111136001600055565b50565b61111e6126f7565b6111286000612724565b565b6040516302c68be360e31b81526001600160a01b0382811660048301526000917f0000000000000000000000000000000000000000000000000000000000000000909116906316345f18906024015b602060405180830381865afa158015611196573d6000803e3d6000fd5b505050506040513d601f19601f82011682018060405250810190610f2b9190612e42565b6000610f2b826124fd565b6000610f2b82612424565b600080516020612f1683398151915281806000036112015760405163cb1d3f7d60e01b815260040160405180910390fd5b61120961258b565b3360009081526002602052604090205483111561125f5760405162461bcd60e51b8152602060048201526014602482015273496e73756666696369656e742062616c616e636560601b6044820152606401610c4c565b8260085410156112b15760405162461bcd60e51b815260206004820152601f60248201527f496e73756666696369656e742070726f746f636f6c206c6971756964697479006044820152606401610c4c565b3360008181526002602052604090819020549051631cc0af0360e11b81526001600160a01b037f000000000000000000000000000000000000000000000000000000000000000016926339815e069261130f92600190600401612ebd565b600060405180830381600087803b15801561132957600080fd5b505af115801561133d573d6000803e3d6000fd5b505060405163b89a495b60e01b8152336004820152600092507f00000000000000000000000000000000000000000000000000000000000000006001600160a01b0316915063b89a495b90602401602060405180830381865afa1580156113a8573d6000803e3d6000fd5b505050506040513d601f19601f820116820180604052508101906113cc9190612e42565b336000908152600260205260408120805492935086929091906113f0908490612eaa565b9250508190555083600860008282546114099190612eaa565b90915550506040516323d0aab160e01b81523360048201527f00000000000000000000000000000000000000000000000000000000000000006001600160a01b0316906323d0aab190602401600060405180830381600087803b15801561146f57600080fd5b505af1158015611483573d6000803e3d6000fd5b5060009250600080516020612f16833981519152915063a9059cbb9050336114ab8589612f02565b6040516001600160e01b031960e085901b1681526001600160a01b03909216600483015260248201526044016020604051808303816000875af11580156114f6573d6000803e3d6000fd5b505050506040513d601f19601f8201168201806040525081019061151a9190612ee0565b90508061153a57604051634dc34d1760e01b815260040160405180910390fd5b6040516323d0aab160e01b81523360048201527f00000000000000000000000000000000000000000000000000000000000000006001600160a01b0316906323d0aab190602401600060405180830381600087803b15801561159b57600080fd5b505af11580156115af573d6000803e3d6000fd5b50506040518792503391507f13f1180d41ad6611b3b08bbafa35e4540fdd948fe7ada6fa37137e3e46cbb77290600090a35050610bae6001600055565b6000806115f8336124fd565b9050806000036116175750503360009081526003602052604090205490565b60006064611626609684612e71565b6116309190612e88565b9050600061163d33612424565b9050818111611650576000935050505090565b600061165c8383612eaa565b905060007f00000000000000000000000000000000000000000000000000000000000000006001600160a01b031663a625d21d6040518163ffffffff1660e01b8152600401602060405180830381865afa1580156116be573d6000803e3d6000fd5b505050506040513d601f19601f820116820180604052508101906116e29190612e42565b90506000816116f984670de0b6b3a7640000612e71565b6117039190612e88565b33600090815260036020526040902054909150811161172257806108cf565b33600090815260036020526040902054965050505050505090565b348060000361175f5760405163cb1d3f7d60e01b815260040160405180910390fd5b61176761258b565b61176f610f31565b604051630d82fdc960e11b81523460048201526000907f00000000000000000000000000000000000000000000000000000000000000006001600160a01b031690631b05fb9290602401602060405180830381865afa1580156117d6573d6000803e3d6000fd5b505050506040513d601f19601f820116820180604052508101906117fa9190612e42565b90506000611809600283612e88565b6040516302c68be360e31b8152600080516020612f1683398151915260048201529091506000906001600160a01b037f000000000000000000000000000000000000000000000000000000000000000016906316345f1890602401602060405180830381865afa158015611881573d6000803e3d6000fd5b505050506040513d601f19601f820116820180604052508101906118a59190612e42565b90506000816118bc84670de0b6b3a7640000612e71565b6118c69190612e88565b905060085481116118d757806118db565b6008545b905080156118ec576118ec81611faa565b604080513481526020810183905233917fc913d0af25ee3f92d7fd23fa1cfbed7dc2a6b514f9b2e013f18289be5be11b90910160405180910390a2505050506111136001600055565b60007f00000000000000000000000000000000000000000000000000000000000000006001600160a01b031663a625d21d6040518163ffffffff1660e01b8152600401602060405180830381865afa158015610781573d6000803e3d6000fd5b80806000036119b75760405163cb1d3f7d60e01b815260040160405180910390fd5b6119bf61258b565b600080516020612f1683398151915260405163b89a495b60e01b81523360048201527f00000000000000000000000000000000000000000000000000000000000000006001600160a01b03169063b89a495b90602401602060405180830381865afa158015611a32573d6000803e3d6000fd5b505050506040513d601f19601f82011682018060405250810190611a569190612e42565b5060405163b89a495b60e01b81523360048201526000907f00000000000000000000000000000000000000000000000000000000000000006001600160a01b03169063b89a495b90602401602060405180830381865afa158015611abe573d6000803e3d6000fd5b505050506040513d601f19601f82011682018060405250810190611ae29190612e42565b33600090815260046020526040812054919250611aff8383612f02565b905060008111611b475760405162461bcd60e51b8152602060048201526013602482015272139bc81bdd5d1cdd185b991a5b99c81919589d606a1b6044820152606401610c4c565b80861015611b975760405162461bcd60e51b815260206004820152601960248201527f526570617920616d6f756e7420657863656564732064656274000000000000006044820152606401610c4c565b6040516323b872dd60e01b815233600482015230602482015260448101879052600090600080516020612f16833981519152906323b872dd906064016020604051808303816000875af1158015611bf2573d6000803e3d6000fd5b505050506040513d601f19601f82011682018060405250810190611c169190612ee0565b905080611c3657604051630780770360e11b815260040160405180910390fd5b868211611c44576000611c4e565b611c4e8783612eaa565b3360009081526004602052604081209190915560088054899290611c73908490612f02565b9091555050336000908152600460205260408120549003611d08576040516323d0aab160e01b81523360048201527f00000000000000000000000000000000000000000000000000000000000000006001600160a01b0316906323d0aab190602401600060405180830381600087803b158015611cef57600080fd5b505af1158015611d03573d6000803e3d6000fd5b505050505b3360008181526003602052604090819020549051633d6fe0dd60e21b8152600481019290925260248201527f00000000000000000000000000000000000000000000000000000000000000006001600160a01b03169063f5bf837490604401600060405180830381600087803b158015611d8157600080fd5b505af1158015611d95573d6000803e3d6000fd5b50506040518992503391507fc200a1f31dd659e356e0f112c82558e25f49f7b0f84438691cd96f5cb355882390600090a35050505050610e9f6001600055565b60006107a533612424565b60405163b89a495b60e01b81526001600160a01b0382811660048301526000917f00000000000000000000000000000000000000000000000000000000000000009091169063b89a495b90602401611179565b611e3b61258b565b600080516020612f168339815191528180600003611e6c5760405163cb1d3f7d60e01b815260040160405180910390fd5b6001600160a01b038416600090815260046020526040902054611ec85760405162461bcd60e51b8152602060048201526014602482015273109bdc9c9bddd95c881a185cc81b9bc81919589d60621b6044820152606401610c4c565b600083118015611ef057506001600160a01b0384166000908152600460205260409020548311155b611f335760405162461bcd60e51b8152602060048201526014602482015273125b9d985b1a59081c995c185e48185b5bdd5b9d60621b6044820152606401610c4c565b6000611f3f8585612776565b9050611f4c858583612959565b60408051858152602081018390526001600160a01b0387169133917f4ecae3269f800df64b16cb9f6f8b0b507018888521d1cff0841823e44bc0b00d910160405180910390a3505050610e9f6001600055565b60006107a5336124fd565b8080600003611fcc5760405163cb1d3f7d60e01b815260040160405180910390fd5b611fd461258b565b336000818152600460208190526040808320549051631cc0af0360e11b8152600080516020612f16833981519152947f00000000000000000000000000000000000000000000000000000000000000006001600160a01b0316946339815e069461204094929301612ebd565b600060405180830381600087803b15801561205a57600080fd5b505af115801561206e573d6000803e3d6000fd5b5050604051634bc8272160e11b8152336004820152600092507f00000000000000000000000000000000000000000000000000000000000000006001600160a01b031691506397904e4290602401602060405180830381865afa1580156120d9573d6000803e3d6000fd5b505050506040513d601f19601f820116820180604052508101906120fd9190612e42565b90506000606461210e609687612e71565b6121189190612e88565b9050818111156121625760405162461bcd60e51b8152602060048201526015602482015274139bdd08195b9bdd59da0818dbdb1b185d195c985b605a1b6044820152606401610c4c565b3360009081526004602052604081208054879290612181908490612f02565b909155505060405163a9059cbb60e01b815233600482015260248101869052600090600080516020612f168339815191529063a9059cbb906044016020604051808303816000875af11580156121db573d6000803e3d6000fd5b505050506040513d601f19601f820116820180604052508101906121ff9190612ee0565b90508061221f5760405163116be6cb60e21b815260040160405180910390fd5b3360008181526003602052604090819020549051633d6fe0dd60e21b8152600481019290925260248201527f00000000000000000000000000000000000000000000000000000000000000006001600160a01b03169063f5bf837490604401600060405180830381600087803b15801561229857600080fd5b505af11580156122ac573d6000803e3d6000fd5b5050505085600860008282546122c29190612eaa565b9091555050604051869033907f55ca543acfe189813a500eaff658acafb5d2345c0db5314154e00ac8c9d3b91f90600090a350505050610e9f6001600055565b61230a6126f7565b6001600160a01b03811661233457604051631e4fbdf760e01b815260006004820152602401610c4c565b61111381612724565b604051633f9af35f60e21b81526001600160a01b03821660048201526000908190309063fe6bcd7c90602401602060405180830381865afa158015612386573d6000803e3d6000fd5b505050506040513d601f19601f820116820180604052508101906123aa9190612e42565b670de0b6b3a7640000119392505050565b6000806123c783612424565b905060006123d4846124fd565b9050806000036123e957506000199392505050565b6123f4816064612e71565b6096612408670de0b6b3a764000085612e71565b6124129190612e71565b61241c9190612e88565b949350505050565b60008060036000846001600160a01b03166001600160a01b0316815260200190815260200160002054905060007f00000000000000000000000000000000000000000000000000000000000000006001600160a01b031663a625d21d6040518163ffffffff1660e01b8152600401602060405180830381865afa1580156124af573d6000803e3d6000fd5b505050506040513d601f19601f820116820180604052508101906124d39190612e42565b90506000670de0b6b3a76400006124ea8385612e71565b6124f49190612e88565b95945050505050565b6001600160a01b0381811660009081526004602081905260408083205490516302c68be360e31b8152600080516020612f1683398151915292810192909252919283917f0000000000000000000000000000000000000000000000000000000000000000909116906316345f1890602401602060405180830381865afa1580156124af573d6000803e3d6000fd5b6002600054036125ae57604051633ee5aeb560e01b815260040160405180910390fd5b6002600055565b6001600160a01b0381811660009081526004602081905260408083205490516351c8572160e11b8152600080516020612f16833981519152928101929092526024820181905291927f0000000000000000000000000000000000000000000000000000000000000000169063a390ae4290604401602060405180830381865afa158015612646573d6000803e3d6000fd5b505050506040513d601f19601f8201168201806040525081019061266a9190612e42565b9392505050565b604051630d82fdc960e11b8152600481018290526000907f00000000000000000000000000000000000000000000000000000000000000006001600160a01b031690631b05fb9290602401611179565b6000816000036126d357506001610f2b565b6000826126e1856064612e71565b6126eb9190612e88565b60961115949350505050565b6001546001600160a01b031633146111285760405163118cdaa760e01b8152336004820152602401610c4c565b600180546001600160a01b038381166001600160a01b0319831681179093556040519116919082907f8be0079c531659141344cd1fd0a4f28419497f9722a3daafe3b4186f6b6457e090600090a35050565b6040516351c8572160e11b8152600080516020612f16833981519152600482015260248101829052600090600a9082907f00000000000000000000000000000000000000000000000000000000000000006001600160a01b03169063a390ae4290604401602060405180830381865afa1580156127f7573d6000803e3d6000fd5b505050506040513d601f19601f8201168201806040525081019061281b9190612e42565b90506000606461282b8482612f02565b6128359084612e71565b61283f9190612e88565b905060007f00000000000000000000000000000000000000000000000000000000000000006001600160a01b031663a625d21d6040518163ffffffff1660e01b8152600401602060405180830381865afa1580156128a1573d6000803e3d6000fd5b505050506040513d601f19601f820116820180604052508101906128c59190612e42565b9050806128da83670de0b6b3a7640000612e71565b6128e49190612e88565b6001600160a01b03881660009081526003602052604090205490955082111561294f5760405162461bcd60e51b815260206004820152601e60248201527f4e6f7420656e6f75676820636f6c6c61746572616c20746f207365697a6500006044820152606401610c4c565b5050505092915050565b61296283612d53565b6129ae5760405162461bcd60e51b815260206004820152601d60248201527f55736572206973206e6f7420756e646572636f6c6c61746572697a65640000006044820152606401610c4c565b6001600160a01b038316600090815260036020526040902054811115612a0e5760405162461bcd60e51b8152602060048201526015602482015274139bdd08115b9bdd59da0818dbdb1b185d195c985b605a1b6044820152606401610c4c565b6001600160a01b038381166000908152600460208190526040808320549051631cc0af0360e11b81527f0000000000000000000000000000000000000000000000000000000000000000909416936339815e0693612a6f9389939201612ebd565b600060405180830381600087803b158015612a8957600080fd5b505af1158015612a9d573d6000803e3d6000fd5b50506040516323b872dd60e01b81523360048201523060248201526044810185905260009250600080516020612f1683398151915291506323b872dd906064016020604051808303816000875af1158015612afc573d6000803e3d6000fd5b505050506040513d601f19601f82011682018060405250810190612b209190612ee0565b905080612b405760405163255a46f960e11b815260040160405180910390fd5b6001600160a01b03841660009081526004602052604081208054859290612b68908490612eaa565b90915550506001600160a01b03841660009081526003602052604081208054849290612b95908490612eaa565b925050819055508260086000828254612bae9190612f02565b90915550506001600160a01b0384166000908152600460205260408120549003612c4e576040516323d0aab160e01b81526001600160a01b0385811660048301527f000000000000000000000000000000000000000000000000000000000000000016906323d0aab190602401600060405180830381600087803b158015612c3557600080fd5b505af1158015612c49573d6000803e3d6000fd5b505050505b6001600160a01b0384811660008181526003602052604090819020549051633d6fe0dd60e21b8152600481019290925260248201527f00000000000000000000000000000000000000000000000000000000000000009091169063f5bf837490604401600060405180830381600087803b158015612ccb57600080fd5b505af1158015612cdf573d6000803e3d6000fd5b50506040516000925033915084908381818185875af1925050503d8060008114612d25576040519150601f19603f3d011682016040523d82523d6000602084013e612d2a565b606091505b5050905080612d4c5760405163255a46f960e11b815260040160405180910390fd5b5050505050565b600080612d5f83612424565b90506000612d6c846124fd565b905080600003612d80575060009392505050565b6000612d8d826064612e71565b6096612da1670de0b6b3a764000086612e71565b612dab9190612e71565b612db59190612e88565b670de0b6b3a76400001195945050505050565b80356001600160a01b0381168114612ddf57600080fd5b919050565b600060208284031215612df657600080fd5b61266a82612dc8565b600060208284031215612e1157600080fd5b5035919050565b60008060408385031215612e2b57600080fd5b612e3483612dc8565b946020939093013593505050565b600060208284031215612e5457600080fd5b5051919050565b634e487b7160e01b600052601160045260246000fd5b8082028115828204841417610f2b57610f2b612e5b565b600082612ea557634e487b7160e01b600052601260045260246000fd5b500490565b81810381811115610f2b57610f2b612e5b565b6001600160a01b0393909316835260208301919091521515604082015260600190565b600060208284031215612ef257600080fd5b8151801515811461266a57600080fd5b80820180821115610f2b57610f2b612e5b56fe00000000000000000000000076efc6b7adac502dc210f255ea8420672c1355d3a2646970667358221220f9915b317824c3bae322f7dd4cfb86c3baf78d22062e8d4fa291bcb11fdaa63464736f6c63430008140033",
  "linkReferences": {},
  "deployedLinkReferences": {}
}