{
  "_format": "hh-sol-artifact-1",
  "contractName": "DSCEngine",
  "sourceName": "contracts/DSCEngine.sol",
  "abi": [
    {
      "inputs": [
        {
          "internalType": "address",
          "name": "priceOracleAddress",
          "type": "address"
        },
        {
          "internalType": "address",
          "name": "InterestRateModelAddress",
          "type": "address"
        }
      ],
      "stateMutability": "nonpayable",
      "type": "constructor"
    },
    {
      "inputs": [],
      "name": "DSCEngine__LiquidationFailed",
      "type": "error"
    },
    {
      "inputs": [],
      "name": "DSCEngine__LoanRepaymentFailed",
      "type": "error"
    },
    {
      "inputs": [],
      "name": "DSCEngine__Mintfailed",
      "type": "error"
    },
    {
      "inputs": [],
      "name": "DSCEngine__NeedsMoreThanZero",
      "type": "error"
    },
    {
      "inputs": [],
      "name": "DSCEngine__NotAllowedCollateral",
      "type": "error"
    },
    {
      "inputs": [],
      "name": "DSCEngine__NotAllowedToken",
      "type": "error"
    },
    {
      "inputs": [],
      "name": "DSCEngine__StablecoinBorrowFailed",
      "type": "error"
    },
    {
      "inputs": [],
      "name": "DSCEngine__TokenBurnFailed",
      "type": "error"
    },
    {
      "inputs": [],
      "name": "DSCEngine__TokenToMintExceedsDepositedStablecoin",
      "type": "error"
    },
    {
      "inputs": [],
      "name": "DSCEngine__TransferFailed",
      "type": "error"
    },
    {
      "inputs": [],
      "name": "DSCEngine__WithdrawCollateralFailed",
      "type": "error"
    },
    {
      "inputs": [
        {
          "internalType": "address",
          "name": "owner",
          "type": "address"
        }
      ],
      "name": "OwnableInvalidOwner",
      "type": "error"
    },
    {
      "inputs": [
        {
          "internalType": "address",
          "name": "account",
          "type": "address"
        }
      ],
      "name": "OwnableUnauthorizedAccount",
      "type": "error"
    },
    {
      "inputs": [],
      "name": "ReentrancyGuardReentrantCall",
      "type": "error"
    },
    {
      "inputs": [
        {
          "internalType": "address",
          "name": "token",
          "type": "address"
        }
      ],
      "name": "SafeERC20FailedOperation",
      "type": "error"
    },
    {
      "anonymous": false,
      "inputs": [
        {
          "indexed": true,
          "internalType": "address",
          "name": "from",
          "type": "address"
        },
        {
          "indexed": true,
          "internalType": "uint256",
          "name": "amount",
          "type": "uint256"
        }
      ],
      "name": "CollateralDeposited",
      "type": "event"
    },
    {
      "anonymous": false,
      "inputs": [
        {
          "indexed": true,
          "internalType": "address",
          "name": "user",
          "type": "address"
        },
        {
          "indexed": false,
          "internalType": "uint256",
          "name": "collateralAmount",
          "type": "uint256"
        },
        {
          "indexed": false,
          "internalType": "uint256",
          "name": "borrowedAmount",
          "type": "uint256"
        }
      ],
      "name": "CollateralDepositedAndBorrowed",
      "type": "event"
    },
    {
      "anonymous": false,
      "inputs": [
        {
          "indexed": true,
          "internalType": "address",
          "name": "from",
          "type": "address"
        },
        {
          "indexed": true,
          "internalType": "uint256",
          "name": "amount",
          "type": "uint256"
        }
      ],
      "name": "CollateralWithdrawn",
      "type": "event"
    },
    {
      "anonymous": false,
      "inputs": [
        {
          "indexed": true,
          "internalType": "address",
          "name": "liquidator",
          "type": "address"
        },
        {
          "indexed": true,
          "internalType": "address",
          "name": "borrower",
          "type": "address"
        },
        {
          "indexed": false,
          "internalType": "uint256",
          "name": "debtAmount",
          "type": "uint256"
        },
        {
          "indexed": false,
          "internalType": "uint256",
          "name": "collateralSeized",
          "type": "uint256"
        }
      ],
      "name": "Liquidation",
      "type": "event"
    },
    {
      "anonymous": false,
      "inputs": [
        {
          "indexed": true,
          "internalType": "address",
          "name": "from",
          "type": "address"
        },
        {
          "indexed": true,
          "internalType": "uint256",
          "name": "amount",
          "type": "uint256"
        }
      ],
      "name": "LoanRepaid",
      "type": "event"
    },
    {
      "anonymous": false,
      "inputs": [
        {
          "indexed": true,
          "internalType": "address",
          "name": "previousOwner",
          "type": "address"
        },
        {
          "indexed": true,
          "internalType": "address",
          "name": "newOwner",
          "type": "address"
        }
      ],
      "name": "OwnershipTransferred",
      "type": "event"
    },
    {
      "anonymous": false,
      "inputs": [
        {
          "indexed": true,
          "internalType": "address",
          "name": "from",
          "type": "address"
        },
        {
          "indexed": false,
          "internalType": "uint256",
          "name": "amount",
          "type": "uint256"
        }
      ],
      "name": "StableCoinDeposited",
      "type": "event"
    },
    {
      "anonymous": false,
      "inputs": [
        {
          "indexed": true,
          "internalType": "address",
          "name": "from",
          "type": "address"
        },
        {
          "indexed": true,
          "internalType": "uint256",
          "name": "amount",
          "type": "uint256"
        }
      ],
      "name": "StableCoinWithdrawed",
      "type": "event"
    },
    {
      "anonymous": false,
      "inputs": [
        {
          "indexed": true,
          "internalType": "address",
          "name": "from",
          "type": "address"
        },
        {
          "indexed": true,
          "internalType": "uint256",
          "name": "amount",
          "type": "uint256"
        }
      ],
      "name": "StablecoinBorrowed",
      "type": "event"
    },
    {
      "anonymous": false,
      "inputs": [
        {
          "indexed": true,
          "internalType": "address",
          "name": "to",
          "type": "address"
        },
        {
          "indexed": true,
          "internalType": "uint256",
          "name": "amount",
          "type": "uint256"
        }
      ],
      "name": "tokenMinted",
      "type": "event"
    },
    {
      "inputs": [],
      "name": "USDC_ADDRESS",
      "outputs": [
        {
          "internalType": "address",
          "name": "",
          "type": "address"
        }
      ],
      "stateMutability": "view",
      "type": "function"
    },
    {
      "inputs": [
        {
          "internalType": "uint256",
          "name": "stablecoinAmount",
          "type": "uint256"
        }
      ],
      "name": "borrowStablecoin",
      "outputs": [],
      "stateMutability": "nonpayable",
      "type": "function"
    },
    {
      "inputs": [
        {
          "internalType": "address",
          "name": "user",
          "type": "address"
        }
      ],
      "name": "canUserBeLiquidated",
      "outputs": [
        {
          "internalType": "bool",
          "name": "",
          "type": "bool"
        }
      ],
      "stateMutability": "view",
      "type": "function"
    },
    {
      "inputs": [],
      "name": "depositCollateral",
      "outputs": [],
      "stateMutability": "payable",
      "type": "function"
    },
    {
      "inputs": [],
      "name": "depositCollateralAndBorrowStablecoin",
      "outputs": [],
      "stateMutability": "payable",
      "type": "function"
    },
    {
      "inputs": [
        {
          "internalType": "uint256",
          "name": "amountStableCoin",
          "type": "uint256"
        }
      ],
      "name": "depositStablecoin",
      "outputs": [],
      "stateMutability": "nonpayable",
      "type": "function"
    },
    {
      "inputs": [
        {
          "internalType": "address",
          "name": "user",
          "type": "address"
        }
      ],
      "name": "getAccuredInterest",
      "outputs": [
        {
          "internalType": "uint256",
          "name": "",
          "type": "uint256"
        }
      ],
      "stateMutability": "view",
      "type": "function"
    },
    {
      "inputs": [
        {
          "internalType": "address",
          "name": "user",
          "type": "address"
        }
      ],
      "name": "getCollateralDepositBalance",
      "outputs": [
        {
          "internalType": "uint256",
          "name": "",
          "type": "uint256"
        }
      ],
      "stateMutability": "view",
      "type": "function"
    },
    {
      "inputs": [],
      "name": "getCollateralThreshold",
      "outputs": [
        {
          "internalType": "uint256",
          "name": "",
          "type": "uint256"
        }
      ],
      "stateMutability": "pure",
      "type": "function"
    },
    {
      "inputs": [
        {
          "internalType": "address",
          "name": "user",
          "type": "address"
        }
      ],
      "name": "getDebtBalance",
      "outputs": [
        {
          "internalType": "uint256",
          "name": "",
          "type": "uint256"
        }
      ],
      "stateMutability": "view",
      "type": "function"
    },
    {
      "inputs": [],
      "name": "getETHPrice",
      "outputs": [
        {
          "internalType": "uint256",
          "name": "",
          "type": "uint256"
        }
      ],
      "stateMutability": "view",
      "type": "function"
    },
    {
      "inputs": [
        {
          "internalType": "address",
          "name": "user",
          "type": "address"
        }
      ],
      "name": "getHealthFactor",
      "outputs": [
        {
          "internalType": "uint256",
          "name": "",
          "type": "uint256"
        }
      ],
      "stateMutability": "view",
      "type": "function"
    },
    {
      "inputs": [],
      "name": "getInterest",
      "outputs": [
        {
          "internalType": "uint256",
          "name": "",
          "type": "uint256"
        }
      ],
      "stateMutability": "pure",
      "type": "function"
    },
    {
      "inputs": [],
      "name": "getMaxBorrowableAmount",
      "outputs": [
        {
          "internalType": "uint256",
          "name": "",
          "type": "uint256"
        }
      ],
      "stateMutability": "view",
      "type": "function"
    },
    {
      "inputs": [],
      "name": "getMaxWithdrawableCollateral",
      "outputs": [
        {
          "internalType": "uint256",
          "name": "",
          "type": "uint256"
        }
      ],
      "stateMutability": "view",
      "type": "function"
    },
    {
      "inputs": [
        {
          "internalType": "address",
          "name": "user",
          "type": "address"
        }
      ],
      "name": "getMintedLendingToken",
      "outputs": [
        {
          "internalType": "uint256",
          "name": "",
          "type": "uint256"
        }
      ],
      "stateMutability": "view",
      "type": "function"
    },
    {
      "inputs": [
        {
          "internalType": "address",
          "name": "user",
          "type": "address"
        }
      ],
      "name": "getStableCoinBalance",
      "outputs": [
        {
          "internalType": "uint256",
          "name": "",
          "type": "uint256"
        }
      ],
      "stateMutability": "view",
      "type": "function"
    },
    {
      "inputs": [
        {
          "internalType": "address",
          "name": "tokenAddress",
          "type": "address"
        }
      ],
      "name": "getTokenPriceInUsd",
      "outputs": [
        {
          "internalType": "uint256",
          "name": "",
          "type": "uint256"
        }
      ],
      "stateMutability": "view",
      "type": "function"
    },
    {
      "inputs": [],
      "name": "getTotalStablecoinInPool",
      "outputs": [
        {
          "internalType": "uint256",
          "name": "",
          "type": "uint256"
        }
      ],
      "stateMutability": "view",
      "type": "function"
    },
    {
      "inputs": [],
      "name": "getTotalStablecoinSupply",
      "outputs": [
        {
          "internalType": "uint256",
          "name": "",
          "type": "uint256"
        }
      ],
      "stateMutability": "view",
      "type": "function"
    },
    {
      "inputs": [],
      "name": "getUSDCPrice",
      "outputs": [
        {
          "internalType": "uint256",
          "name": "",
          "type": "uint256"
        }
      ],
      "stateMutability": "view",
      "type": "function"
    },
    {
      "inputs": [
        {
          "internalType": "address",
          "name": "user",
          "type": "address"
        }
      ],
      "name": "getUserCollateralValueInUsd",
      "outputs": [
        {
          "internalType": "uint256",
          "name": "",
          "type": "uint256"
        }
      ],
      "stateMutability": "view",
      "type": "function"
    },
    {
      "inputs": [
        {
          "internalType": "address",
          "name": "user",
          "type": "address"
        }
      ],
      "name": "getUserTotalDebtInUsd",
      "outputs": [
        {
          "internalType": "uint256",
          "name": "",
          "type": "uint256"
        }
      ],
      "stateMutability": "view",
      "type": "function"
    },
    {
      "inputs": [],
      "name": "getYourAccruedDebtInterest",
      "outputs": [
        {
          "internalType": "uint256",
          "name": "",
          "type": "uint256"
        }
      ],
      "stateMutability": "view",
      "type": "function"
    },
    {
      "inputs": [],
      "name": "getYourBorrowedStablecoin",
      "outputs": [
        {
          "internalType": "uint256",
          "name": "",
          "type": "uint256"
        }
      ],
      "stateMutability": "view",
      "type": "function"
    },
    {
      "inputs": [],
      "name": "getYourCollateralDeposited",
      "outputs": [
        {
          "internalType": "uint256",
          "name": "",
          "type": "uint256"
        }
      ],
      "stateMutability": "view",
      "type": "function"
    },
    {
      "inputs": [],
      "name": "getYourCollateralValueInUSD",
      "outputs": [
        {
          "internalType": "uint256",
          "name": "",
          "type": "uint256"
        }
      ],
      "stateMutability": "view",
      "type": "function"
    },
    {
      "inputs": [],
      "name": "getYourDebtValueInUSD",
      "outputs": [
        {
          "internalType": "uint256",
          "name": "",
          "type": "uint256"
        }
      ],
      "stateMutability": "view",
      "type": "function"
    },
    {
      "inputs": [],
      "name": "getYourEarnedLendingInterest",
      "outputs": [
        {
          "internalType": "uint256",
          "name": "",
          "type": "uint256"
        }
      ],
      "stateMutability": "view",
      "type": "function"
    },
    {
      "inputs": [],
      "name": "getYourHealthFactor",
      "outputs": [
        {
          "internalType": "uint256",
          "name": "",
          "type": "uint256"
        }
      ],
      "stateMutability": "view",
      "type": "function"
    },
    {
      "inputs": [],
      "name": "getYourLendedStablecoin",
      "outputs": [
        {
          "internalType": "uint256",
          "name": "",
          "type": "uint256"
        }
      ],
      "stateMutability": "view",
      "type": "function"
    },
    {
      "inputs": [
        {
          "internalType": "address",
          "name": "stablecoin",
          "type": "address"
        }
      ],
      "name": "isStablecoinValid",
      "outputs": [
        {
          "internalType": "bool",
          "name": "",
          "type": "bool"
        }
      ],
      "stateMutability": "pure",
      "type": "function"
    },
    {
      "inputs": [],
      "name": "owner",
      "outputs": [
        {
          "internalType": "address",
          "name": "",
          "type": "address"
        }
      ],
      "stateMutability": "view",
      "type": "function"
    },
    {
      "inputs": [],
      "name": "renounceOwnership",
      "outputs": [],
      "stateMutability": "nonpayable",
      "type": "function"
    },
    {
      "inputs": [
        {
          "internalType": "uint256",
          "name": "stablecoinAmountToRepay",
          "type": "uint256"
        }
      ],
      "name": "repayLoan",
      "outputs": [],
      "stateMutability": "nonpayable",
      "type": "function"
    },
    {
      "inputs": [],
      "name": "s_totalStablecoin",
      "outputs": [
        {
          "internalType": "uint256",
          "name": "",
          "type": "uint256"
        }
      ],
      "stateMutability": "view",
      "type": "function"
    },
    {
      "inputs": [
        {
          "internalType": "address",
          "name": "user",
          "type": "address"
        }
      ],
      "name": "totalTimePassed",
      "outputs": [
        {
          "internalType": "uint256",
          "name": "",
          "type": "uint256"
        }
      ],
      "stateMutability": "view",
      "type": "function"
    },
    {
      "inputs": [
        {
          "internalType": "address",
          "name": "newOwner",
          "type": "address"
        }
      ],
      "name": "transferOwnership",
      "outputs": [],
      "stateMutability": "nonpayable",
      "type": "function"
    },
    {
      "inputs": [
        {
          "internalType": "uint256",
          "name": "withdrawAmount",
          "type": "uint256"
        }
      ],
      "name": "withdrawCollateral",
      "outputs": [],
      "stateMutability": "nonpayable",
      "type": "function"
    },
    {
      "inputs": [
        {
          "internalType": "uint256",
          "name": "amountStableCoin",
          "type": "uint256"
        }
      ],
      "name": "withdrawStablecoin",
      "outputs": [],
      "stateMutability": "nonpayable",
      "type": "function"
    }
  ],
  "bytecode": "0x60c06040523480156200001157600080fd5b5060405162001d7c38038062001d7c8339810160408190526200003491620000f3565b600160005533806200006057604051631e4fbdf760e01b81526000600482015260240160405180910390fd5b6200006b8162000084565b506001600160a01b0391821660a052166080526200012b565b600180546001600160a01b038381166001600160a01b0319831681179093556040519116919082907f8be0079c531659141344cd1fd0a4f28419497f9722a3daafe3b4186f6b6457e090600090a35050565b80516001600160a01b0381168114620000ee57600080fd5b919050565b600080604083850312156200010757600080fd5b6200011283620000d6565b91506200012260208401620000d6565b90509250929050565b60805160a051611be562000197600039600081816108150152818161095401528181610d4f01528181610fc9015281816111cf0152818161166f015281816117640152818161186a01526118f501526000818161071201528181610e9b015261136b0152611be56000f3fe60806040526004361061023b5760003560e01c806380a9012b1161012e578063c5839dd1116100ab578063ef26475c1161006f578063ef26475c14610617578063f2fde38b14610664578063f559056214610684578063f96d947d146106a4578063fe6bcd7c146106da57600080fd5b8063c5839dd114610582578063dadb7e7914610597578063dbafccca146105b7578063dd2856d1146105cd578063e5a4bed31461060357600080fd5b8063a607a8d9116100f2578063a607a8d9146104f0578063ab7b1c8914610505578063ae48c70214610525578063b89a495b1461053a578063bb09d9b71461055a57600080fd5b806380a9012b14610461578063870e974e146104815780638da5cb5b146104a157806391b3a439146104d35780639d5ec1c5146104e857600080fd5b806358d398ef116101bc5780636f758140116101805780636f758140146103ce578063715018a6146103d657806371ebcf53146103eb5780637d52b68214610421578063801a2d991461044157600080fd5b806358d398ef1461034a57806359f99c531461036c5780636112fe2e1461038e57806363ad31aa146103ae5780636e16814f1461030c57600080fd5b80633fb1bf3e116102035780633fb1bf3e146102d65780634469214b1461030c5780634ad517bc146103215780634fa2b53c14610336578063536f70261461024057600080fd5b806303bd360614610240578063042dcee31461026857806322f676b21461028a5780632e1a2ce0146102ac57806333c6c452146102c1575b600080fd5b34801561024c57600080fd5b506102556106fa565b6040519081526020015b60405180910390f35b34801561027457600080fd5b5033600090815260046020526040902054610255565b34801561029657600080fd5b5033600090815260026020526040902054610255565b3480156102b857600080fd5b5061025561078b565b3480156102cd57600080fd5b506102556108c1565b3480156102e257600080fd5b506102556102f1366004611a88565b6001600160a01b031660009081526004602052604090205490565b34801561031857600080fd5b50600854610255565b34801561032d57600080fd5b50610255610928565b34801561034257600080fd5b506096610255565b34801561035657600080fd5b5033600090815260036020526040902054610255565b34801561037857600080fd5b5061038c610387366004611ab1565b61098b565b005b34801561039a57600080fd5b5061038c6103a9366004611ab1565b610a4b565b3480156103ba57600080fd5b506102556103c9366004611a88565b610c38565b61038c610cc6565b3480156103e257600080fd5b5061038c610d19565b3480156103f757600080fd5b50610255610406366004611a88565b6001600160a01b031660009081526003602052604090205490565b34801561042d57600080fd5b5061025561043c366004611a88565b610d2d565b34801561044d57600080fd5b5061025561045c366004611a88565b610dbd565b34801561046d57600080fd5b5061025561047c366004611a88565b610dc8565b34801561048d57600080fd5b5061038c61049c366004611ab1565b610dd3565b3480156104ad57600080fd5b506001546001600160a01b03165b6040516001600160a01b03909116815260200161025f565b3480156104df57600080fd5b50610255610f53565b61038c6110a4565b3480156104fc57600080fd5b506102556111cb565b34801561051157600080fd5b5061038c610520366004611ab1565b61122b565b34801561053157600080fd5b5061025561133e565b34801561054657600080fd5b50610255610555366004611a88565b611349565b34801561056657600080fd5b506104bb7376efc6b7adac502dc210f255ea8420672c1355d381565b34801561058e57600080fd5b5061025561139c565b3480156105a357600080fd5b5061038c6105b2366004611ab1565b6113a7565b3480156105c357600080fd5b5061025560085481565b3480156105d957600080fd5b506102556105e8366004611a88565b6001600160a01b031660009081526006602052604090205490565b34801561060f57600080fd5b506005610255565b34801561062357600080fd5b50610654610632366004611a88565b6001600160a01b03167376efc6b7adac502dc210f255ea8420672c1355d31490565b604051901515815260200161025f565b34801561067057600080fd5b5061038c61067f366004611a88565b61151b565b34801561069057600080fd5b5061065461069f366004611a88565b611559565b3480156106b057600080fd5b506102556106bf366004611a88565b6001600160a01b031660009081526002602052604090205490565b3480156106e657600080fd5b506102556106f5366004611a88565b6115d7565b60405163b89a495b60e01b81523360048201526000907f00000000000000000000000000000000000000000000000000000000000000006001600160a01b03169063b89a495b906024015b602060405180830381865afa158015610762573d6000803e3d6000fd5b505050506040513d601f19601f820116820180604052508101906107869190611aca565b905090565b60008061079733611640565b9050600060966107a8836064611af9565b6107b29190611b10565b905060006107bf33611719565b90508181106107d2576000935050505090565b60006107de8284611b32565b6040516302c68be360e31b81527376efc6b7adac502dc210f255ea8420672c1355d360048201529091506000906001600160a01b037f000000000000000000000000000000000000000000000000000000000000000016906316345f1890602401602060405180830381865afa15801561085c573d6000803e3d6000fd5b505050506040513d601f19601f820116820180604052508101906108809190611aca565b905060008161089784670de0b6b3a7640000611af9565b6108a19190611b10565b905060085481116108b257806108b6565b6008545b965050505050505090565b6000806108cd33611640565b905060006108da33611719565b9050806000036108ee576000199250505090565b6108f9816064611af9565b609661090d670de0b6b3a764000085611af9565b6109179190611af9565b6109219190611b10565b9250505090565b6040516302c68be360e31b81527376efc6b7adac502dc210f255ea8420672c1355d360048201526000907f00000000000000000000000000000000000000000000000000000000000000006001600160a01b0316906316345f1890602401610745565b600081116109b45760405162461bcd60e51b81526004016109ab90611b45565b60405180910390fd5b7376efc6b7adac502dc210f255ea8420672c1355d36109d5813330856117ad565b33600090815260026020526040812080548492906109f4908490611b7a565b925050819055508160086000828254610a0d9190611b7a565b909155505060405182815233907f66cef183dbc45fd6ab6c6cfd4ada8f7b1780d070873ce30723107d9f644ec6609060200160405180910390a25050565b60008111610aad5760405162461bcd60e51b815260206004820152602960248201527f576974686472617720616d6f756e74206d7573742062652067726561746572206044820152687468616e207a65726f60b81b60648201526084016109ab565b3360009081526003602052604090205481811015610b0d5760405162461bcd60e51b815260206004820152601f60248201527f496e73756666696369656e7420636f6c6c61746572616c2062616c616e63650060448201526064016109ab565b6000610b198383611b32565b90506000610b263361181a565b90506000610b33836118dc565b9050610b3f818361192c565b610b8b5760405162461bcd60e51b815260206004820152601d60248201527f436f6c6c61746572616c207468726573686f6c6420627265616368656400000060448201526064016109ab565b336000818152600360205260408082208690555190919087908381818185875af1925050503d8060008114610bdc576040519150601f19603f3d011682016040523d82523d6000602084013e610be1565b606091505b5050905080610c0357604051634dc34d1760e01b815260040160405180910390fd5b604051869033907fc30fcfbcaac9e0deffa719714eaa82396ff506a0d0d0eebe170830177288715d90600090a3505050505050565b6001600160a01b038116600090815260076020526040812054610c9d5760405162461bcd60e51b815260206004820152601a60248201527f5573657220686173206e6f74206465706f73697465642079657400000000000060448201526064016109ab565b6001600160a01b038216600090815260076020526040902054610cc09042611b32565b92915050565b3360009081526003602052604081208054349290610ce5908490611b7a565b9091555050604051349033907fd7243f6f8212d5188fd054141cf6ea89cfc0d91facb8c3afe2f88a135848014290600090a3565b610d21611962565b610d2b600061198f565b565b6040516302c68be360e31b81526001600160a01b0382811660048301526000917f0000000000000000000000000000000000000000000000000000000000000000909116906316345f18906024015b602060405180830381865afa158015610d99573d6000803e3d6000fd5b505050506040513d601f19601f82011682018060405250810190610cc09190611aca565b6000610cc082611719565b6000610cc082611640565b60008111610df35760405162461bcd60e51b81526004016109ab90611b45565b33600090815260026020526040902054811115610e495760405162461bcd60e51b8152602060048201526014602482015273496e73756666696369656e742062616c616e636560601b60448201526064016109ab565b3360009081526002602052604081208054839290610e68908490611b32565b925050819055508060086000828254610e819190611b32565b90915550506040516323d0aab160e01b81523360048201527f00000000000000000000000000000000000000000000000000000000000000006001600160a01b0316906323d0aab190602401600060405180830381600087803b158015610ee757600080fd5b505af1158015610efb573d6000803e3d6000fd5b507376efc6b7adac502dc210f255ea8420672c1355d39250610f22915082905033846119e1565b604051829033907f13f1180d41ad6611b3b08bbafa35e4540fdd948fe7ada6fa37137e3e46cbb77290600090a35050565b600080610f5f33611719565b905080600003610f7e5750503360009081526003602052604090205490565b60006064610f8d609684611af9565b610f979190611b10565b90506000610fa433611640565b9050818111610fb7576000935050505090565b6000610fc38383611b32565b905060007f00000000000000000000000000000000000000000000000000000000000000006001600160a01b031663a625d21d6040518163ffffffff1660e01b8152600401602060405180830381865afa158015611025573d6000803e3d6000fd5b505050506040513d601f19601f820116820180604052508101906110499190611aca565b905060008161106084670de0b6b3a7640000611af9565b61106a9190611b10565b33600090815260036020526040902054909150811161108957806108b6565b33600090815260036020526040902054965050505050505090565b600034116111005760405162461bcd60e51b8152602060048201526024808201527f436f6c6c61746572616c206d7573742062652067726561746572207468616e206044820152637a65726f60e01b60648201526084016109ab565b611108610cc6565b686c6b935b8bbd4000006000670de0b6b3a76400006111278334611af9565b6111319190611b10565b905060006064611142836032611af9565b61114c9190611b10565b9050600061115f64e8d4a5100083611b10565b905060085481116111705780611174565b6008545b90506103e880821061118957611189826113a7565b604080513481526020810184905233917fc913d0af25ee3f92d7fd23fa1cfbed7dc2a6b514f9b2e013f18289be5be11b90910160405180910390a25050505050565b60007f00000000000000000000000000000000000000000000000000000000000000006001600160a01b031663a625d21d6040518163ffffffff1660e01b8152600401602060405180830381865afa158015610762573d6000803e3d6000fd5b6040516323b872dd60e01b8152336004820152306024820152604481018290526000907376efc6b7adac502dc210f255ea8420672c1355d3906323b872dd906064016020604051808303816000875af115801561128c573d6000803e3d6000fd5b505050506040513d601f19601f820116820180604052508101906112b09190611b8d565b9050806112d057604051630780770360e11b815260040160405180910390fd5b33600090815260046020526040812080548492906112ef908490611b32565b9250508190555081600860008282546113089190611b7a565b9091555050604051829033907fc200a1f31dd659e356e0f112c82558e25f49f7b0f84438691cd96f5cb355882390600090a35050565b600061078633611640565b60405163b89a495b60e01b81526001600160a01b0382811660048301526000917f00000000000000000000000000000000000000000000000000000000000000009091169063b89a495b90602401610d7c565b600061078633611719565b600081116113c75760405162461bcd60e51b81526004016109ab90611b45565b6008548111156114105760405162461bcd60e51b81526020600482015260146024820152734e6f7420656e6f756768206c697175696469747960601b60448201526064016109ab565b3360009081526003602052604081205490606461142e609685611af9565b6114389190611b10565b90508181111561148a5760405162461bcd60e51b815260206004820152601760248201527f496e73756666696369656e7420636f6c6c61746572616c00000000000000000060448201526064016109ab565b33600090815260046020526040812080548592906114a9908490611b7a565b9250508190555082600860008282546114c29190611b32565b909155507376efc6b7adac502dc210f255ea8420672c1355d390506114e88133866119e1565b604051849033907f55ca543acfe189813a500eaff658acafb5d2345c0db5314154e00ac8c9d3b91f90600090a350505050565b611523611962565b6001600160a01b03811661154d57604051631e4fbdf760e01b8152600060048201526024016109ab565b6115568161198f565b50565b604051633f9af35f60e21b81526001600160a01b03821660048201526000908190309063fe6bcd7c90602401602060405180830381865afa1580156115a2573d6000803e3d6000fd5b505050506040513d601f19601f820116820180604052508101906115c69190611aca565b670de0b6b3a7640000119392505050565b6000806115e383611640565b905060006115f084611719565b90508060000361160557506000199392505050565b611610816064611af9565b6096611624670de0b6b3a764000085611af9565b61162e9190611af9565b6116389190611b10565b949350505050565b60008060036000846001600160a01b03166001600160a01b0316815260200190815260200160002054905060007f00000000000000000000000000000000000000000000000000000000000000006001600160a01b031663a625d21d6040518163ffffffff1660e01b8152600401602060405180830381865afa1580156116cb573d6000803e3d6000fd5b505050506040513d601f19601f820116820180604052508101906116ef9190611aca565b90506000670de0b6b3a76400006117068385611af9565b6117109190611b10565b95945050505050565b6001600160a01b0381811660009081526004602081905260408083205490516302c68be360e31b81527376efc6b7adac502dc210f255ea8420672c1355d392810192909252919283917f0000000000000000000000000000000000000000000000000000000000000000909116906316345f1890602401602060405180830381865afa1580156116cb573d6000803e3d6000fd5b6040516001600160a01b0384811660248301528381166044830152606482018390526118149186918216906323b872dd906084015b604051602081830303815290604052915060e01b6020820180516001600160e01b038381831617835250505050611a17565b50505050565b6001600160a01b0381811660009081526004602081905260408083205490516351c8572160e11b81527376efc6b7adac502dc210f255ea8420672c1355d3928101929092526024820181905291927f0000000000000000000000000000000000000000000000000000000000000000169063a390ae4290604401602060405180830381865afa1580156118b1573d6000803e3d6000fd5b505050506040513d601f19601f820116820180604052508101906118d59190611aca565b9392505050565b604051630d82fdc960e11b8152600481018290526000907f00000000000000000000000000000000000000000000000000000000000000006001600160a01b031690631b05fb9290602401610d7c565b60008160000361193e57506001610cc0565b60008261194c856064611af9565b6119569190611b10565b60961115949350505050565b6001546001600160a01b03163314610d2b5760405163118cdaa760e01b81523360048201526024016109ab565b600180546001600160a01b038381166001600160a01b0319831681179093556040519116919082907f8be0079c531659141344cd1fd0a4f28419497f9722a3daafe3b4186f6b6457e090600090a35050565b6040516001600160a01b03838116602483015260448201839052611a1291859182169063a9059cbb906064016117e2565b505050565b600080602060008451602086016000885af180611a3a576040513d6000823e3d81fd5b50506000513d91508115611a52578060011415611a5f565b6001600160a01b0384163b155b1561181457604051635274afe760e01b81526001600160a01b03851660048201526024016109ab565b600060208284031215611a9a57600080fd5b81356001600160a01b03811681146118d557600080fd5b600060208284031215611ac357600080fd5b5035919050565b600060208284031215611adc57600080fd5b5051919050565b634e487b7160e01b600052601160045260246000fd5b8082028115828204841417610cc057610cc0611ae3565b600082611b2d57634e487b7160e01b600052601260045260246000fd5b500490565b81810381811115610cc057610cc0611ae3565b6020808252818101527f416d6f756e74206d7573742062652067726561746572207468616e207a65726f604082015260600190565b80820180821115610cc057610cc0611ae3565b600060208284031215611b9f57600080fd5b815180151581146118d557600080fdfea26469706673582212207b69ff9a2a5cab2c5808b8974d3c75b4f6e8a5b5e0a2082ce18a10adce7cd64f64736f6c63430008140033",
  "linkReferences": {},
  "deployedLinkReferences": {}
}